:1000000000000320D101000091B0000049B00000C1
:1000100049B0000049B0000049B0000049B00000FC
:1000200049B0000049B0000049B0000091B00000A4
:1000300091B0000049B00000B1CD0000B5CD000086
:1000400091B0000091B0000091B0000091B00000AC
:1000500091B0000091B0000091B0000091B000009C
:1000600091B0000091B0000091B0000091B000008C
:1000700091B0000091B0000091B0000091B000007C
:1000800091B0000091B0000091B0000091B000006C
:1000900091B0000091B0000091B0000091B000005C
:1000A000B1320000BD32000091B0000091B00000FC
:1000B00091B0000091B0000091B0000011BD0000AF
:1000C00091B0000049E3000091B0000091B0000041
:1000D00091B0000091B0000091B0000091B000001C
:1000E00091B0000091B0000091B0000091B000000C
:1000F00091B0000091B0000091B0000091B00000FC
:1001000091B0000091B0000091B0000091B00000EB
:1001100091B0000055C0000091B0000091B0000007
:1001200091B0000091B0000091B0000091B00000CB
:1001300091B0000091B0000091B0000091B00000BB
:1001400091B0000091B0000091B0000091B00000AB
:1001500091B0000091B0000091B0000091B000009B
:1001600091B0000091B00000C932000091B00000D1
:1001700091B0000091B0000091B0000091B000007B
:1001800091B0000091B0000091B0000091B000006B
:1001900091B0000091B0000091B0000091B000005B
:1001A00091B0000091B0000091B0000091B000004B
:1001B00091B0000091B0000091B0000091B000003B
:1001C00091B0000091B0000091B0000091B000002B
:1001D0005C4B4CF2205210B51A804DF628121A8052
:1001E00000BF00BF0AF058FF574B4FF030621A6053
:1001F000564A9A60564ADA60564B4FF470021A60BB
:10020000554B564A1A60564B1A78110703D51A787F
:1002100042F008021A70534B5349AA221A70534AEB
:10022000534B8B4204D252F8040F43F8040BF8E707
:10023000504B514900228B4202D243F8042BFAE77B
:100240004E494F4A002352F8230041F8230001335E
:10025000742BF8D14B4B4C4A802103F8011B93427D
:10026000FBD14A4B454A1A60494B8A221A70A3F5C2
:10027000805324225A70A0221A709A799207FCD5D2
:100280009A79D406FCD4434A937903F00C03082BE3
:10029000FAD1414B60221A7002331A78802AFCD1BD
:1002A0003C4B01221A715D225A719A799006FCD555
:1002B0009979384A4906FBD5384B394919600021EC
:1002C000596020231370937903F00C030C2BFAD19F
:1002D000344B354A1A60354A354C136813F4807331
:1002E00003D123604FF4A8531360324B324A1A6093
:1002F00000225A60072243F8042C304AC3F80C2D20
:1003000062B60BF041F82368DA0705D52C480AF0ED
:10031000A5FF2C4B2C4A1A602C4B1B785B0609D589
:10032000284C294B22689A4204D125480AF096FFAE
:10033000002323600AF0B6FE10F02AF90DF068F9E8
:10034000FEE700BF0E20054030800440823F0400DD
:100350000100002B88ED00E0002008E0030000858C
:1003600002D0074000E007403816FF1FF85D01008B
:100370003007FF1F3816FF1F4021FF1F0002FF1F1D
:100380000000000000E400E064E400E008ED00E0AC
:10039000005006400040064001E007404480044011
:1003A0000000060204800440C010070010D0034083
:1003B00014D0034014E000E01FBF02000000202022
:1003C00009E7AE621CE00340A5C3945A00F0074061
:1003D000FFFFFFFFFFFFFFFFFFFFFFFFFFFFFFFF2D
:1003E000FFFFFFFFFFFFFFFFFFFFFFFFFFFFFFFF1D
:1003F000FFFFFFFFFFFFFFFFFFFFFFFFFFFFFFFF0D
:10040000FFFFFFFFFFFFFFFFFFFFFFFFDEF9FFFF23
:1004100010B5054C237833B9044B13B10448AFF33E
:1004200000800123237010BD3816FF1F000000005C
:10043000F45D0100084B10B51BB108490848AFF343
:1004400000800848036803B910BD074B002BFBD0A0
:10045000BDE81040184700BF000000003C16FF1F19
:10046000F45D01003816FF1F0000000000207047F7
:10047000704700BF704700BF036D0BB1012070478C
:10048000406D003018BF0120704700BF704700BFAB
:1004900010B50446806D18B110F0C8F80023A365AC
:1004A000236D2BB104F11800BDE8104007F016BD14
:1004B000636D002BF6D110BDF0B5002395B01A4640
:1004C0000546183104A84FF47A74224F8DF8043091
:1004D0008DF80C30129313930294009707F052FD9D
:1004E000129B002B2BD05C200DF09AF804461A4B7F
:1004F0009DF80400029A1949236000269DF80C30EB
:100500002073A160226104A9237504F118006660BC
:1005100007F0B6FC6368124AA76001334FF47A71A2
:10052000A6652E712E732C616360A9602A600D4B45
:10053000009304A807F0D2FC284615B0F0BD139B29
:10054000002BD0D1064A2B71AC602B732B612A6033
:10055000EDE700BFF04C0100404D0100A84C010048
:10056000144D0100CC4C0100836C13B1184605F00A
:1005700031BFC06C08B103F067BD4FF0FF3070476A
:1005800000B5836C83B063B1184601220DF10701F9
:1005900005F050FE01280CD19DF8070003B05DF86E
:1005A00004FBC06C28B101220DF1070103F078FCB7
:1005B000F0E74FF0FF30F1E7036D9BB11A7812F0CE
:1005C000700F00D1704710B504460021184606F0A0
:1005D00023F8606D28B100220023BDE8104003F02D
:1005E0004BBD10BD406D0028ECD090F8313013F0B9
:1005F000500FE7D00022002303F03EBD38B5846DD4
:100600000CB1204638BD05464FF4807010F006F856
:100610000146A86580B1286D0C7028B14FF4807236
:1006200007F066FAAC6DECE7686D40B14FF480728C
:1006300005F0A0F8AC6DE4E7024CAC65E1E70C46D0
:10064000DFE700BF5416FF1F8A79A2F150031B0693
:1006500020D4F0B54B79046D0D798E784F780978F8
:10066000013385B002F26C72DBB244B103918DE8C4
:10067000E0002046022106F0E7F805B0F0BD406D2D
:100680000028FAD003918DE8E000022104F0AEFAD0
:1006900005B0F0BD00207047D0B5046D8CB1012BC2
:1006A00008BF002A01D30020D0BD1146204605F026
:1006B000B3FF0028F7D0204606F02EF90028F2D02C
:1006C000D0BD446D002CEED0204603F0D5FC0028B0
:1006D000E9D02046BDE8D04004F036BBF0B5036D4C
:1006E00083B00C462BB318460DF1060201A905F0A4
:1006F00015FCD8B1BDF80430BDF8062003B9AAB185
:1007000002F01F06C3F343155912C2F345177600D2
:10071000013D01F5EA6103F01F03D21226706571F5
:10072000A17123716770A27003B0F0BD002003B007
:10073000F0BD406D0028F9D00DF1060201A903F0CB
:100740004FFBD6E7F0B5036D83B00C462BB31846CC
:100750000DF1060201A905F0D1FBD8B1BDF80430B6
:10076000BDF8062003B9AAB102F01F06C3F3431572
:100770005912C2F345177600013D01F5EA6103F015
:100780001F03D21226706571A17123716770A27068
:1007900003B0F0BD002003B0F0BD406D0028F9D0DB
:1007A0000DF1060201A903F00BFBD6E7036D13B1AF
:1007B000586900217047436D13B193E803007047F7
:1007C00018461946704700BF036D13B1D869002160
:1007D0007047436D13B11869596970471846194637
:1007E000704700BF036D13B1184605F023BD406D7F
:1007F00008B103F055BB4FF0FF307047036D13B1E4
:10080000184605F0E7BD406D08B103F01DBC4FF080
:10081000FF307047036D33B11B7813F0700F14BFB6
:10082000012000207047406D30B190F8313013F056
:10083000500F14BF01200020704700BF8A79A2F139
:1008400050031B0620D4F0B54B79046D0D798E78DA
:100850004F780978013385B002F26C72DBB244B193
:1008600003918DE8E0002046042105F0EDFF05B07E
:10087000F0BD406D0028FAD003918DE8E00004211E
:1008800004F0B4F905B0F0BD00207047006970B302
:100890000368184A1B6993420ED1026D6AB113783E
:1008A00003F0080303F0FF000BB3D3695069181A73
:1008B00048BF6FF0004070471847416DC1B191F8D3
:1008C000313003F0080303F0FF0083B1D1E90423C2
:1008D000D1E90001101A30B463EB010100256FF07B
:1008E00000448D4208BF844200D2204630BC70478D
:1008F00008467047190B0000036963B11A6807497D
:1009000092698A4208D1186D08B105F097BF586DF9
:1009100008B103F0FFBF70471846104721090000D7
:10092000036D13B1184605F089BF406D08B103F09F
:10093000F1BF7047836C13B1184605F07FBFC06CE0
:1009400008B103F0E7BF704703698BB110B41C68AE
:100950000D48E468844211D1186D18B15DF8044B5C
:1009600006F016B8586D28B15DF8044B04F05CBA77
:100970000020704700205DF8044B7047184623465E
:100980005DF8044B184700BF110A0000036973B1FA
:100990001A68084952698A4207D1186D08B105F0F2
:1009A00019BD586D18B103F04FBB184610474FF0F2
:1009B000FF307047FD070000036923B310B51968C5
:1009C000124A8C68944282B014D1186D48B1012249
:1009D0000DF1070105F02EFC90B19DF8070002B063
:1009E00010BD586D0028F8D001220DF1070103F069
:1009F00057FAF1E7184601220DF10701A047EBE78E
:100A00004FF0FF30EBE74FF0FF307047E507000095
:100A1000036D13B1184605F0BBBF406D08B104F07B
:100A200003BA7047836C13B1184605F0B1BFC06CB0
:100A300008B104F0F9B9704700B5836C83B08DF844
:100A4000071043B1184601220DF1070105F0A0FF80
:100A500003B05DF804FBC06C0028F9D001220DF151
:100A6000070104F0E1F903B05DF804FB10B5036978
:100A700082B08DF80710BBB11968104ACC68944257
:100A800015D1186D30B101220DF1070105F080FF7D
:100A900002B010BD586D0028FAD001220DF10701F7
:100AA00004F0C2F902B010BD184602B010BD1846DD
:100AB00001220DF10701A04702B010BD110A00008C
:100AC000826C62B1137803F0080303F0FF0003B3F4
:100AD000D3695069181A48BF6FF000407047C16C65
:100AE000C1B191F8313003F0080303F0FF0083B186
:100AF000D1E90423D1E90001101A30B463EB0101FC
:100B000000256FF000448D4208BF844200D2204689
:100B100030BC704708467047026D62B1137803F02D
:100B2000080303F0FF0003B3D3695069181A48BFE4
:100B30006FF000407047416DC1B191F8313003F062
:100B4000080303F0FF0083B1D1E90423D1E90001D8
:100B5000101A30B463EB010100256FF000448D42A0
:100B600008BF844200D2204630BC70470846704718
:100B7000D0B4039C16461F4634B1012C1ED0022C63
:100B80000DD00020D0BC7047046DDCB1012B08BF34
:100B9000002AF6D220461146D0BC05F03DBD036DBB
:100BA000B3B1DA69B61847F10007012F08BF002E6C
:100BB000E7D231461846D0BC05F02EBD036D8BB18F
:100BC0005A69EFE7406D0028DBD0D0BC03F054BA7F
:100BD000406D0028D5D0D0E9042392197B41D0BCC8
:100BE00003F04ABA406D0028CBD0D0E90023921917
:100BF0007B41EAE738B50446806D0C4B236018B1A1
:100C00000FF014FD0023A365236D04F118054BB10B
:100C1000284607F063F9064BA360284607F05EF903
:100C2000204638BD636D002BF2D1F4E7404D010042
:100C3000CC4C010038B50446806D0E4B236018B1D2
:100C40000FF0F4FC0023A365236D04F118056BB1CC
:100C5000284607F043F9084BA360284607F03EF901
:100C600020465C210CF0DEFC204638BD636D002B75
:100C7000EED1F0E7404D0100CC4C010070B50469A5
:100C8000244B036005461CB16668013E66600EB1E8
:100C9000284670BD2368204ADB6A93422CD1A06DA0
:100CA00010B10FF0C3FCA665236D5BB304F118000F
:100CB00007F014F92C69002CEAD02368174A5B6806
:100CC00093421CD1A06D164B236018B10FF0AEFCFF
:100CD0000023A365236D04F11806BBB1304607F06D
:100CE000FDF8104BA360304607F0F8F820465C2171
:100CF0000CF098FC284670BD20469847DAE720465D
:100D00009847C5E7636D002BD0D1D3E7636D002B07
:100D1000E4D1E6E7144D010091040000350C000019
:100D2000404D0100CC4C010070B50569284B0360B3
:100D300004461DB16E68013E6E602EB1204614213E
:100D40000CF070FC204670BD2B68224ADB6A93428F
:100D500030D1A86D10B10FF069FCAE652B6D7BB37F
:100D600005F1180007F0BAF82569002DE6D02B68C8
:100D7000194A5B68934220D1A86D184B2B6018B1BB
:100D80000FF054FC0023AB652B6D05F11806DBB1A9
:100D9000304607F0A3F8124BAB60304607F09EF8E0
:100DA00028465C210CF03EFC204614210CF03AFC55
:100DB000204670BD28469847D6E728469847BDE7A5
:100DC0006B6D002BCCD1CFE76B6D002BE0D1E2E750
:100DD000144D010091040000350C0000404D01004D
:100DE000CC4C0100F0B59BB044F20223574A58495D
:100DF00006A807F05DF9189B002B00F088805C20A6
:100E00000CF00EFC044600259DF81C10089A9DF875
:100E100024305048504E20600AAF2173A6603946F6
:100E20002261237504F11800656007F029F86368F2
:100E30004A494B4EA56501334FF47A728DF808503C
:100E40008DF810500594A1606360039201963846B6
:100E5000444F069707F042F80598D0B10368424A1C
:100E60001B6B934212D1036D002B4CD001A83F495C
:100E70000CF0FEF801A80CF021F9059C01961CB1BC
:100E80006568013D656065B11BB0F0BD98470028FD
:100E9000ECD1182136480BF025FE36480CF00EF93F
:100EA000EBE72368344ADB6A934240D1A06D10B16E
:100EB0000FF0BCFBA565236D002B3ED004F118009C
:100EC00007F00CF8059C002CDED023682B4A5B68E9
:100ED00093422FD1A06D1F4B236018B10FF0A6FBDA
:100EE0000023A365236D04F1180553B3284606F0CB
:100EF000F5FFA760284606F0F1FF20465C210CF0C4
:100F000091FB1BB0F0BD436D002BAFD1C1E7199B26
:100F1000002B7FF474AF4FF47A72114E8DF80830C5
:100F20008DF810300593039201960AAF8FE72046A3
:100F30009847C7E720469847A6E7636D002BBDD1C9
:100F4000C0E7636D002BD1D1D3E700BF944D010002
:100F50007419FF1F404D0100A84C0100F04C010026
:100F6000144D0100CC4C010079040000E016FF1F75
:100F7000AC4D0100BC0BFF1F91040000350C0000BC
:100F800000B5AFB00023B522084869460CF020FB3D
:100F9000074B0DF1FF3203F1B50012F8011F03F802
:100FA000011F8342F9D12FB05DF804FBE016FF1F4B
:100FB000B718FF1F30B591B00021054604A80CF00A
:100FC000E1F99F499F48A04C0CF0AAFA9F499D481F
:100FD0000CF0A2FA9E499B480CF0A2FA9D49994850
:100FE0000CF09EFA964997480CF09AFA0A2221686A
:100FF0000CA80CF0F9F90CA992480CF08DFA0CA889
:101000000CF080F9236892498E48013323600CF07C
:1010100087FA90498B480CF083FA8F4989480CF085
:101020007BFA874987480CF07BFA8C4B8C491A680D
:1010300002A810F017F902A982480CF071FA894948
:1010400080480CF06DFA0024214628460CF0B2FAD4
:10105000013401787B480CF071FA082CF4D17D49F9
:1010600078480CF05DFA764976480CF059FA7E4BD8
:101070007E491A6801A810F0F5F801A971480CF032
:101080004FFA78496F480CF04BFA214628460CF08D
:1010900091FA013401786B480CF050FA0D2CF4D120
:1010A0000924214628460CF085FA0134017804A869
:1010B0000CF044FA0C2CF4D104A80CF0A3FA6C49FF
:1010C00004460CA80CF05EF96A4B19680A22091B49
:1010D00008A80CF089F908A90CA80CF03FFA5C49A3
:1010E0000CF044FA014657480CF016FA08A80CF028
:1010F00009F90CA80CF006F95D490CA80CF042F9AE
:101100009FED5D0A022108A80CF082F908A90CA83D
:101110000CF024FA4E490CF029FA014649480CF02B
:10112000FBF908A80CF0EEF80CA80CF0EBF850490D
:101130000CA80CF027F9514B022193ED000A08A8E6
:101140000CF066F908A90CA80CF008FA40490CF05C
:101150000DFA01463B480CF0DFF908A80CF0D2F874
:101160000CA80CF0CFF842490CA80CF00BF99FED3D
:10117000440A012108A80CF04BF908A90CA80CF0AE
:10118000EDF938490CF0F2F901462E480CF0C4F99B
:1011900008A80CF0B7F80CA80CF0B4F839492948A5
:1011A0000CF0BAF90D24214628460CF003FA01345C
:1011B000017824480CF0C2F92B2CF4D13249214893
:1011C000324C0CF0ADF91E491E480CF0A9F9304B19
:1011D0003049D3E900230CA810F044F80CA91948B1
:1011E0000CF09EF91F4917480CF09AF9144915485C
:1011F0000CF096F9D4E9002326490CA810F032F837
:101200000CA910480CF08CF916490E480CF088F91E
:101210000B490C480CF084F9D4E900231D490CA8B3
:1012200010F020F80CA907480CF07AF91A49054883
:101230000CF076F904A80CF065F811B030BD00BFD1
:10124000C84D0100E016FF1F7416FF1FA017FF1FF7
:10125000FC4D0100E84D01000017FF1F2C18FF1F77
:10126000CC4D0100D44D01001817FF1FD84D0100CF
:10127000E04D0100F016FF1F000000009016FF1F58
:101280009A9939413018FF1FE44D01004818FF1F9B
:101290009816FF1FEC4D0100F44D010010B52C49CC
:1012A0002C4809F0A3FD4FF4FA712A4809F040FDDB
:1012B00070B1132128480BF015FC28480BF0FEFEF6
:1012C000244809F085FC09F0FFFB8B2824D010BDD1
:1012D0000446204809F07CFC09F0FAFB40B92D21B6
:1012E0001F480BF0FFFB1D48BDE810400BF0E6BEA9
:1012F00028211C480BF0F6FB164809F069FC09F0A0
:10130000EDFB234601460A2214480BF0EBFE13487E
:10131000BDE810400BF0D2BE0E4809F059FC12494E
:1013200009F03EFC104809F0DBFB40B91A210F48D8
:101330000BF0D8FB0948BDE810400BF0BFBE3E21C2
:101340000B480BF0CFFB0548BDE810400BF0B6BED4
:10135000A416FF1F1C17FF1F004E0100BC0BFF1F30
:101360009C4E0100704E01002018FF1F144E01001A
:10137000304E010070B5132184B006465D480BF075
:10138000B1FB5D480BF09AFE002130460BF0FAFFEE
:101390005A4809F0BBFC594809F01AFC09F096FBC1
:1013A00048B30F2156480BF09DFB53480BF086FEC7
:1013B000524809F00DFC09F087FB902836D04F48C1
:1013C00009F006FC09F080FB8A286AD00D214D48FF
:1013D0000BF088FB48480BF071FE16214A480BF0D1
:1013E00081FB45480BF06AFE484930460CF052F844
:1013F000304604B070BD0446404809F0E9FB09F0EE
:1014000067FB0028E9D0292141480BF06BFB3B48E2
:1014100009F0DEFB09F062FB234601460A2236484A
:101420000BF060FE34480BF049FED6E70C2139483A
:10143000394D0BF057FB30480BF040FE2F4809F0B8
:10144000C7FB364909F086FB354809F055FB0128F2
:101450000BBF15211821334833480BF043FB2648B6
:101460000BF02CFE1D2131480BF03CFB22480BF009
:1014700025FE002421462A4809F06EFB01342B2C5E
:1014800005F8010FF6D1684629490BF07BFF694644
:1014900030460BF0F7FF68460BF034FF304604B0DF
:1014A00070BD164809F094FB224909F077FB0D2125
:1014B00021480BF017FB10480BF000FE1D4809F007
:1014C00055FB02280ED01B4809F050FB03284FF0B3
:1014D0000D010CBF19481A480BF004FB06480BF02D
:1014E000EDFD7AE70B2117480BF0FCFA02480BF0F0
:1014F000E5FD72E7CC4E0100BC0BFF1F1C17FF1F60
:10150000E04E0100904F0100CC4F0100E44F01007C
:10151000A04F0100F04E01008B18FF1F7C16FF1F2B
:101520007816FF1F004F0100184F0100344F0100D3
:101530008C18FF1FF416FF1F544F0100704F01005D
:10154000804F0100644F010010B50D4C204601F0A2
:101550005FF90C4B204683ED000A01F0B9F90A4A05
:101560000A4B92ED000A1860B8EEC00A204601F05E
:1015700017FA074BBDEEC00A83ED000A10BD00BF8D
:101580005816FF1F9016FF1F5018FF1F2C18FF1F23
:101590001817FF1F2DE9F0432DED028B97B0FFF7D1
:1015A000D3FF0CA81A22A949A94FDFF8B8829FEDF2
:1015B000A98A01F083FFDDE90C01DDE90E45A64AA9
:1015C000A64BC2E90001DDE91001C3E90045A44BC7
:1015D000B946C3E9000105E00AF00EFBC1B2A1481B
:1015E00000F0F4FF0AF0F4FA04460028F4D198F869
:1015F0006C3003F0FF05002B00F0E1809949944D19
:101600000CA80CAE00F0F0FF0FCE0FC50FCE0FC52B
:1016100096E8030045F8040B0CA8298021460BF03E
:10162000B1FE97F8203013B1FB7F002B6DD108ACD1
:101630000CA98D480BF026FF0CA80BF063FE99F85F
:101640002130002B59D000210CA80BF09BFE8749BC
:10165000874D0CA80BF064FF864B3A6886491A60E8
:1016600002A80FF0FFFD02A90CA80BF059FF834957
:101670000CA80BF055FF82490CA80BF051FF7B49D9
:101680000CA80BF04DFF7F4B7A687B491A6005A8C8
:101690000FF0E8FD05A90CA80BF042FF7A490CA851
:1016A0000BF03EFF71490CA80BF03AFFB7F90A3076
:1016B000764907EE103AB7F9083007EE903AB8EEDF
:1016C000C77AF8EEE77A01A8E7EE087AFDEEE77A46
:1016D00017EE902AC5ED007A0FF0C4FD01A90CA801
:1016E0000BF01EFF68490CA80BF01AFF0CA920464E
:1016F0000BF0BCFE0CA80BF005FE214664480BF075
:10170000C1FE20460BF0FEFD6CE708AC57490CA863
:101710000BF006FF7A7E5F4920460FF0A3FD2146BD
:101720000CA80BF0FDFE5C490CA80BF0F9FEBA7E8C
:10173000584920460FF096FD21460CA80BF0F0FE0C
:1017400055490CA80BF0ECFEFA7E524920460FF0EA
:1017500089FD21460CA80BF0E3FE49490CA80BF0CB
:10176000DFFEFA7D4B490332D2B220460FF07AFDFC
:1017700021460CA80BF0D4FE47490CA80BF0D0FE74
:10178000BA7D444920460FF06DFD21460CA80BF0B0
:10179000C7FE41490CA80BF0C3FE7A7D3D492046A7
:1017A0000FF060FD21460CA80BF0BAFE33490CA8DF
:1017B0000BF0B6FE32490CA80BF0B2FE38E7294612
:1017C00029480BF0E1FE002831D10CA8FFF7D2FD2B
:1017D0000CA932480BF056FE0CA80BF093FD2F49D4
:1017E0002F480BF045FC2E480BF068FC2B490CA849
:1017F0000BF0DCFD0CA8FFF7DDFB0CA80BF082FD65
:10180000FFF7F0FAFFF7BCFBFFF748FD2549264834
:101810000BF040FE234914480BF03CFE21491C48C4
:101820000BF038FE17B0BDEC028BBDE8F083294603
:1018300017480BF0A9FE0028C7D01C490A480BF036
:101840006FFE1B4912480BF06BFEBEE7C016FF1F70
:101850005418FF1F0AD7233C4818FF1F9816FF1F74
:101860001017FF1FB017FF1F0017FF1FC84D010003
:10187000F016FF1FA016FF1F1C500100FC4D0100B9
:10188000E84D01004018FF1FD44D01002450010015
:101890003018FF1F10500100185001007C18FF1F66
:1018A000BC0BFF1FD4520100E016FF1F2C5001009B
:1018B0004450010010B5142104460BF0B3FE20463D
:1018C00010BD00BF2DE9F8433F4D4048404F414E09
:1018D000DFF84081DFF84091002400F075F905F150
:1018E00015006C602C602C816C81AC81EC812C82A9
:1018F0006C822C7500F0DEFEAC77EC7785F820402A
:1019000085F8214085F8224085F8234085F8244059
:1019100085F8254030482C776C7700F0D7FE2F4BA8
:101920002F4D384628224FF0FF3101F0F3FC3246AC
:101930002C4938460DF098FF2B482C4F09F032F90E
:101940002B4809F017F92B4809F0CEF82A4809F07E
:1019500011F9B523294A2A492A4809F009FA2A48DF
:1019600009F008F9214640460BF00CFD32462946A5
:1019700040460DF079FF214638460BF003FD324614
:10198000294638460DF070FFDFF890801F4F214642
:1019900048460BF0F7FC3246294648460DF064FFF6
:1019A000214640460BF0EEFC3246294640460DF0FB
:1019B0005BFF384616490BF0E5FC324629463846AF
:1019C000BDE8F8430DF050BF5418FF1FB017FF1FBC
:1019D000C016FF1F3007FF1F5816FF1F7808FF1F94
:1019E00005D300008D0400001C17FF1F0017FF1F08
:1019F000D416FF1F7816FF1FF416FF1FB818FF1F1D
:101A00003407FF1FA416FF1F2018FF1FA017FF1F7A
:101A100064500100E016FF1F3018FF1F7C18FF1FE5
:101A20003A483B4AF8B504683A4D3B4F40F2EE263F
:101A300013783BB12B78DB0704D5036839685B1A50
:101A40000E2B07D8036811781B1B00293ED0B3F575
:101A5000FA6FEDD94FF4E13130480BF03BFA2F49E2
:101A60002F4809F0B1F82F4B2F4A304801240321A9
:101A70001C6000F047FE18B939E02D480BF032F831
:101A80000C212C4801F074FC20210028F5D02748B7
:101A900000F01EFF284B1D21186028480BF022F88B
:101AA00027480BF00BFBFE21264802F0C1F880B15D
:101AB000182125480BF016F821480BF0FFFA4FF4D7
:101AC00016512248BDE8F8400BF08CB9B342AFD9AB
:101AD000C0E71C211E480BF005F819480BF0EEFA80
:101AE000FE21184802F0A4F80028F9D0E0E71D21F3
:101AF00018480AF0F7FF12480BF0E0FA0A4A0B48C0
:101B0000032100F0FFFD0028F8D0B9E79C1EFF1F5D
:101B10002020FF1F3820FF1F3821FF1FA40BFF1FAD
:101B20001C17FF1F7416FF1F7808FF1F5816FF1F92
:101B30008C500100C016FF1F5018FF1FB05001004D
:101B4000BC0BFF1F7019FF1FD0500100900BFF1F2F
:101B5000EC5001006C500100312921D041291FD0E7
:101B6000302915D04E2913D0562911D032291BD037
:101B7000442919D033291FD0342921D0352917D031
:101B8000362901D0452909D1012380F82D3002E002
:101B9000002380F82D30012380F82E30002070477C
:101BA000032380F82D30F6E7042380F82D30F2E788
:101BB000052380F82D30EEE7072380F82D30EAE783
:101BC000062380F82D30E6E72DE9F0410446002594
:101BD00000F1250738466561256125836583A58366
:101BE000E5832584658484F8245004F12E0600F0F2
:101BF00061FD04F1360884F82C5084F82D502A46F3
:101C0000334603F8012B43454FF00005F9D1A56495
:101C10006564A4F84C50A4F84E50A4F85050A4F8B1
:101C20005250A4F85450A4F8565084F8585004F177
:101C3000590000F03FFD84F8605084F861502B4655
:101C400004F1620204F16A0102F8013B91424FF093
:101C50000005F9D16560A560E560656125612583B2
:101C60006583A583E5832584658484F824503846FC
:101C700000F020FD84F82C5084F82D5006F8015B0C
:101C800046454FF00003F9D184F841302046BDE8C5
:101C9000F08100BF30B490F86C20034652B10022AE
:101CA00080F86D2090F86C200121013A80F83F10F7
:101CB00080F86C2093F86E2093F82E10940069B190
:101CC000A11803EBC10191F8620000287DD193F8BF
:101CD0002D00A11803EBC10181F8610093F82F10CA
:101CE00071B1A11803EBC10193F8290081F85D00DF
:101CF00093F82A0081F85E0093F82B0081F85F00CA
:101D000093F8301091B1A11803EBC10193F82700AB
:101D100081F85B0093F8260081F85A0093F82500BB
:101D200081F8590093F82C0081F8600093F8311085
:101D300041B103F11001A51803C903EBC5054435F2
:101D400085E8030093F8321021B1A11803EBC1011B
:101D50009869C86493F8341021B1A11803EBC1014C
:101D6000186A486593F8331021B1A11803EBC1013B
:101D7000D869086593F83510F9B9224403EBC2021B
:101D8000623203F12E0003F1360510F8014B12F810
:101D9000011B854241EA040102F8011CF5D193F8C8
:101DA000402042B1002283F86E2093F86C2012B9D3
:101DB000012283F86C2030BC7047A11803EBC101ED
:101DC00093F8240081F85800D7E791F8611093F850
:101DD0002D00814282D27CE7017870B409B30139C9
:101DE000C9B2114E56F82140A45C9C4211D015D8BE
:101DF0000131C9B2082911D00B4E03E0E9B20DD868
:101E000008290BD056F82140A45C9C4201F1010541
:101E1000F4D10131017070BC01207047002070BC0A
:101E20007047024CE0E700BF3451010054510100FB
:101E30002C290BD090F83A20012A05D9023A0B46FA
:101E4000D2B20549FFF7C8BF012070470378002BC5
:101E50000CBF0020022070470C51010090F83A306E
:101E6000082B14D8DFE803F005504048212931370A
:101E7000150000232C2980F82C3008D0303901EBD4
:101E800081014900012380F8271080F83D300120AE
:101E900070472C291BD090F82C30303B194401237B
:101EA00080F82C1080F83030F1E7303901EB8101F7
:101EB000490080F825100120704790F82530303B0C
:101EC000194480F82510012070472C29DFD1012307
:101ED00080F83030DBE72C29F9D0303901EB810173
:101EE000490080F82C10D2E7303901EB810149001C
:101EF00080F826100120704790F82630303B1944B6
:101F000080F826100120704790F82730303B1944A4
:101F100080F827100120704790F83A30052B0CD834
:101F2000DFE803F003182028300D2C2905D03039C4
:101F300001EB8101490080F829100120704790F8D9
:101F40002B30303B1944012380F82B1080F82F30C0
:101F50000120704790F82930303B194480F829104F
:101F600001207047303901EB8101490080F82A10C7
:101F70000120704790F82A30303B194480F82A102D
:101F800001207047303901EB8101490080F82B10A6
:101F90000120704770B490F83A40E4B92D2A0CBF84
:101FA000012600264FF001050C804C8080F83B4054
:101FB00080F83C6080F83D500AD02C2A47D02E2A69
:101FC0003FD00B8803EB830302EB4302303A0A80D5
:101FD000002070BC70472C2A14D02E2A31D090F8E3
:101FE0003B40002CEDD0651CA34280F83B50EFD362
:101FF0004B8803EB830302EB4302303A00204A8014
:1020000070BC704790F83B2090F83C40FAB1B1F9B1
:10201000022072B92CB14A880B8852425B424A8036
:102020000B80012070BC70474A8802EB820252008C
:102030004A8090F83B20551C934280F83B50F3D2E5
:10204000E8E7012380F83B3070BC00207047012294
:1020500080F83B20DBE700BFF0B490F83A302BB9B2
:1020600001240B6080F83B3080F83D402E2A1AD0C6
:102070002C2A15D090F83B3053B10133DBB2062B3C
:1020800080F83B3064D9072B40D00020F0BC70476B
:102090000868303A42EA00120A601846F0BC7047FD
:1020A00090F83B3003BB012380F83B304C788E78AE
:1020B0002509EB0004F00F0403EB45032344DBB2D6
:1020C0000EBB0C7827097E0004F00F0506EBC70451
:1020D0002C44E4B23C2515FB03432E2A0B60D4D0DC
:1020E0002C2AC7D190F83B30042B1FD0052B39D0B8
:1020F000062B06D041D8032B39D0022B3FD0012B21
:1021000043D00B6816E06433DBB2DAE70B68214C8E
:1021100058000130A4FB0040382A03EB500314D8C8
:10212000332A13D901330B600020B7E70A68642310
:1021300003FB02F35A0017480132A0FB020203EB33
:10214000520301200B60F0BC704702330B609CE728
:102150000B68303A03EB830302EB430300200B6070
:10216000F0BC70470B6803EB83035B00E2E70A688F
:102170004FF47A7303FB02F3DCE701208EE70A6871
:1021800042F2107303FB02F3D4E70A68024B03FB2D
:1021900002F3CFE7ABAAAAAAA08601002C2908B5B2
:1021A0000BD090F83E300BB9012008BD0A4600F173
:1021B0001401FFF751FF012008BD90F83A30002BC1
:1021C000EFD180F83E30012008BD00BF38B590F84F
:1021D0003930013B0446082B0DD8DFE803F0131714
:1021E0001F052E3243540F0090F83E501DB190F859
:1021F0003A30002B61D00125284638BDBDE8384073
:10220000FFF78ABEBDE83840FFF728BE90F83A30A5
:10221000002BF0D1FFF7A0FC0125EDE790F83A3054
:10222000002B41D090F83E50002DE4D00A462046C5
:1022300004F11001FFF710FFDEE7BDE83840FFF7BB
:10224000ADBF90F83E50002DD5D090F83A30002B1D
:10225000D1D10123572980F83130CCD143695B4279
:102260004361C9E70A46032300F11C01FFF792FE10
:1022700005460028BFD094F83A30003318BF012338
:1022800084F83330B8E70A46022300F12001FFF753
:1022900081FE05460028AED094F83A30003318BFCE
:1022A000012384F83430A7E7B1F12C0518BF0125CC
:1022B00080F83E50002D9ED0B8E753299BD103698A
:1022C0005B42036198E700BF38B590F83930013BB5
:1022D0000446082B0BD8DFE803F01D21303E4205F1
:1022E0000D0A530090F83A300BB9FFF735FC012581
:1022F000284638BD90F83A30002280F83C20002B68
:102300004FD12C29F3D0303980F82410012584F8DE
:102310003550EDE7BDE83840FFF7A0BD90F83A3002
:10232000002B4AD090F83E50002DE0D00A462046BF
:1023300004F11001FFF790FEDAE790F83E50002D0F
:10234000D5D090F83A30002BD1D15329CFD10369A1
:102350005B420361CCE7BDE83840FFF71FBF90F850
:102360003E50002DC3D090F83A30002BBFD101234E
:10237000572980F83130BAD143695B424361B7E7EE
:102380000A46022300F11801FFF704FE0546002863
:10239000ADD094F83A30003318BF012384F83230BE
:1023A000A6E72C29B2D090F82430303903EB830310
:1023B00001EB430180F82410A8E7B1F12C0518BF08
:1023C000012580F83E50002D91D0AFE70378012B16
:1023D00005D0062B01D1FFF7F9BE01207047FFF7AA
:1023E00073BF00BF90F83D3010B5044653B190F86C
:1023F0003A300022013380F83A3080F83D202C2119
:10240000FFF7E4FF23786268A3F10603B3FA83F3CE
:1024100001325B090021626084F8403084F8411089
:1024200010BD00BF38B5C468242904F10104034677
:10243000C4600DD090F84130022B0D46044619D0EF
:10244000012B2ED0032B3ED04BBB0370184638BD5A
:1024500090F8402012B1002280F840200022012094
:1024600083F8382083F83A201A7083F83D2083F8E7
:10247000410038BD2A295CD0A1F120035E2B75D91B
:1024800000F12E0300F13601002203F8012B8B42EC
:102490004FF00000F9D1207084F8410038BD0120D0
:1024A00038BD90F8383081EA030280F83820FFF711
:1024B000BFFC012874D0022843D00023237084F885
:1024C0004130012038BD41F02002A2F16103052B0B
:1024D00090F83A3094BF573A303AD2B2F3B990F804
:1024E00038100123B2EB111F80F83A3014BF1D469B
:1024F00000251846002DD3D0A3680133A36004F152
:10250000360504F12E03002103F8011BAB424FF006
:102510000002F9D1227084F8412038BD90F838309B
:1025200003F00F03934214BF012500253ED0012084
:10253000E0E70023032280F83A3080F841200120B0
:1025400038BD04F12E0304F13600002103F8011B0D
:1025500083424FF00002F9D10123022184F83A208E
:1025600084F83930184684F8411038BD90F8383076
:102570004B4080F83830FFF729FF40B904F12E03B3
:1025800004F1360203F8010B9342FBD195E72C2DA1
:1025900010D094F83A30013384F83A30012038BD35
:1025A00094F83A30013384F83A3038BDFFF71AFF17
:1025B00002209FE794F839300022013384F8393043
:1025C00084F83A2084F83D20012038BD38B505460E
:1025D000FFF728FF0228044601D0204638BD2846D0
:1025E000FFF758FB204638BD2DE9F04700240F4681
:1025F000054644600460048144818481C48104826E
:1026000044820475153000F055F897F86C302C773B
:102610006C77AC77EC7785F8204085F8214085F819
:10262000224085F8234085F8244085F8254013B9D9
:102630002846BDE8F08797F86D6006EB8606F60041
:1026400006F14009B944013B09F1040807EB060A09
:1026500087F86C3026224146284608F021FC504677
:10266000C9F80840C9F80440A9F80C40A9F80E4080
:10267000A9F81040A9F81240A9F81440A9F816408A
:1026800059308AF8584000F015F806F158023A44DB
:1026900002F10A038AF860408AF86140123203F8B6
:1026A000014B9A424FF00001F9D187F86D1028468E
:1026B000BDE8F087002301220721C17043708370B9
:1026C0000370837102714271704700BF0022026083
:1026D000704700BF00B587B00122022300688DF863
:1026E0000F100093019205AB0DF10F0100F07AFA83
:1026F0009DF814009DF8153043EA002007B05DF8FE
:1027000004FB00BF70B503290446006828BF0321FD
:1027100084B02171164610B110210AF083FF1020F9
:102720000AF07EFF32460546772100F093F92560D6
:102730002846012100F0B4F9054618B900252846BD
:1027400004B070BD0122206801920DF10F030092C8
:10275000D0260DF10E018DF80E6000F043FA9DF8C1
:102760000F30552BEAD1AA212046FFF7B3FFAC2149
:10277000E0802046FFF7AEFFAE2120812046FFF724
:10278000A9FFB02160812046FFF7A4FFB221E082BB
:102790002046FFF79FFFB42120832046FFF79AFFD2
:1027A000B62160832046FFF795FFB821A08120461F
:1027B000FFF790FFBA21E0812046FFF78BFFBC2195
:1027C00020822046FFF786FFBE2160822046FFF769
:1027D00081FFA082B3E700BF30B585B004A92E23E6
:1027E00001F8013D0DF10E0501231A46044600686B
:1027F00001930095F4258DF80E5000F061F9052045
:1028000008F070FD2046F621FFF764FF05B030BDEB
:1028100038B50446FFF7E0FF658B238BB4F914103D
:10282000B4F91220401B03FB00F0C0130144D20294
:1028300092FBF1F210440830001107EE900AB8EE56
:10284000E70AF2EE047A80EE270A38BD70B5037904
:1028500084B004A99B01343301F8033D04460123ED
:1028600003AD006801931A460095F4258DF80C50CD
:1028700000F026F923791BB3012B25D0022B0CBFC6
:102880000E201A2008F02EFDF6212046FFF722FF29
:102890002368012205020192184600920DF10F03F0
:1028A000F8260DF10E018DF80E6000F09BF92379EA
:1028B0009DF80F00C3F108032843D84004B070BD51
:1028C000052008F00FFDDFE7082008F00BFDDBE72F
:1028D000F8B50446FFF780FF07462046FFF7B6FF2E
:1028E000628B218BB4F91430B4F91260B4F90C5036
:1028F000B4F90EE0BA1A01FB02F2D2139918F302EE
:1029000093FBF1F31344A3F57A63B4F90820B4F907
:102910000A7003FB03F6361306FB05F103FB02F214
:102920000D1406FB0EF603FB07F1D212B4F9067084
:1029300002EBE62305EB6131E58A247903EB87039B
:102940000231A340891001F50042991C48BF591D6E
:102950004CF25033E340A0EBA10003FB00F005FB79
:1029600002F2D20B0028B9BFB0FBF2F252004000D5
:10297000B0FBF2F2101240F6DE31074C00FB00F023
:1029800001FB00F0031404FB02F003EB204000F60F
:10299000CF6002EB2010F8BD43E3FFFFFFFFFFFF16
:1029A00008B52DED028BB0EE408AFFF791FF07EEE0
:1029B000900AF8EEE77A87EE887A17EE100A0DF0A3
:1029C000BDF89FED0D1B41EC100B0BF015FE002028
:1029D00053EC102B0C490CF051FF09A3D3E9002351
:1029E0000DF000F90DF0D6FBBDEC028B00EE100AE5
:1029F00008BD00BFAFF3008000000020C05BC83FEF
:102A00000000000040A5E5400000F03F90F8A03035
:102A100090F8A1209A4205D95A1C034480F8A020BE
:102A2000187E70474FF0FF30704700BF70B5044606
:102A300040681E4603685B6815469847854201D08A
:102A4000002070BD3146606800F096FAB0FA80F060
:102A5000400970BD30B4002520240572C4600170A7
:102A6000426030BC704700BF037A10B5044683B1A2
:102A7000227863680121520083F8A32083F82E1185
:102A800083F82D11606800F077FAB0FA80F0400901
:102A900010BD012100F004F80028E9D110BD00BFED
:102AA00038B5044640680D4600F00AF9012020724E
:102AB00005B938BD2046BDE83840FFF7D5BF00BF97
:102AC0002DE9F041079EC468DDF818E09519A5428C
:102AD00019D815460278984643680F4652000121DE
:102AE000044683F8A32083F82E1183F82D116EB1CC
:102AF000BEF1000F0AD04068036871465B68324639
:102B00009847864202D00020BDE8F08143462A461D
:102B100039462046BDE8F041FFF788BF2DE9F8436C
:102B2000164607468846D2B20178406800F0AEFAF1
:102B3000864202D00020BDE8F88336B30023DFF8D8
:102B400054901C4612E090F8A03090F8A1209A42D0
:102B500003F1010E00EB03011AD980F8A0E0087E12
:102B600028700134A4B2A64223460ED978680268C0
:102B700052694A4508EB0305E5D090470134A4B2F9
:102B8000C0B2A64228702346F0D80120BDE8F883E1
:102B9000FF20E5E70D2A00000AB32DE9F8431646A9
:102BA000994688460746002401E0A64214D9FD68EC
:102BB000331B9D4228BF1D46731BA34294BF4B4647
:102BC000002308EB04012A463846FFF7A7FF2C44F0
:102BD0000028EAD1BDE8F8830120BDE8F883012090
:102BE000704700BF2DE9F041C568069F9DF81C6045
:102BF000AA4202D90020BDE8F08190F800C0D0F8C8
:102C000004E04FF001084FEA4C0C1D468EF8A3C0BB
:102C100033468EF82E818EF82D810446FFF706FF8D
:102C20000028E7D043463A4629462046BDE8F04111
:102C3000FFF7B2BF90F8A12090F8A000101A7047DB
:102C400090F8A03090F8A1209A4286BF1B18187EF9
:102C50004FF0FF30704700BF704700BF38B50546E2
:102C6000B0F82E0190B195F82D311446C3F18902C8
:102C700094420CD805F1A3001844224608F010F93C
:102C800095F82D31234485F82D31204638BD01209B
:102C900014462871EEE700BFB0F82E316BB190F802
:102CA0002D31882B07D8C218013380F82D3101202F
:102CB00082F8A3107047012303710020704700BF02
:102CC0000023426980F8A03080F8A13080F82C31D0
:102CD00080F82D3180F82E3180F82F3106CA30B4BB
:102CE0000D680469C0F834312A43C0F838310A60ED
:102CF000A370426990F831311649146813441D7A63
:102D00005B7B01EBC5051B026D6803F4E06343F0D8
:102D100064032B6090F8323113449D7CDB7D01EB22
:102D2000C5011B02496803F4E06343F064030B60D0
:102D300021685368194205D003692C225A7003692F
:102D400004229A71036920225A71036980229A70C1
:102D500030BC7047A857010038B50269D478E4B296
:102D6000E106054625D51023D370630620D504F06F
:102D7000040404F0FF03002C5BD04349D5F8342150
:102D800000230B7085F82D31002A66D0904795F806
:102D90002D31002B61D02B69D0229A702B6995F8C8
:102DA000A3201A712B69012285F82C210222DA70E6
:102DB00038BD04F0400303F0FF00002BD7D1937916
:102DC000DBB203F0600160294ED0937803F010036A
:102DD00003F0FF01B3B114F0010437D195F82C31A1
:102DE00095F82D1199424CD9591C2B4485F82C117A
:102DF00093F8A33013712B69D0229A702B690222A9
:102E0000DA70D5E785F83011937943F02003937198
:102E10002B6995F8A1101A798729D2B2C6D81A4819
:102E200000780028C2D06818013185F8A110027618
:102E3000BCE72A6985F8A130C02393702B69124A38
:102E40001979012111700222DA70B1E7C023937061
:102E50002B691A790222DA70AAE70122002385F889
:102E60002D2185F8A33096E703F0DF039371D5F8A1
:102E7000383123B185F8A00095F8A10098472A6958
:102E8000A3E71471B7E700BF6D19FF1F2DE9F047E5
:102E9000374FDFF8E0903B68026982B00646009346
:102EA000DDF8008000214FF49675D3789B065BD542
:102EB0003B680193019BC8EB03030F2BF5D949B184
:102EC000102BF2D000209070336980229A7002B0EB
:102ED000BDE8F087726996F8313113440521187AFC
:102EE00008F0D6F9726996F831311344012193F84C
:102EF00012A0504608F0CCF909240021504608F0F1
:102F0000C1F92B46013BFDD10121504608F0BAF929
:102F10002B46013BFDD1013CEFD1706996F8311190
:102F200001444FF416720C7A4B7B09EBC4011B026F
:102F3000496803F4E06343F064030B6096F83231B0
:102F40000344997CDB7D09EBC1011B02496803F452
:102F5000E06343F064030B60013AFDD13269D3783A
:102F60009B064FF00101A3D4012002B0BDE8F08719
:102F70009C1EFF1FA8570100F0B503691222DA70EA
:102F80000269937803F0200385B004460D46002BB8
:102F90005ED0B42393703C4922690B680093009E75
:102FA00005E00B680193019B9B1B042B42D8D3784F
:102FB00003F0200303F0FF00002BF2D094F82D3132
:102FC000002B31D04FF0000E4FF0020C04EB0E033B
:102FD00093F8A33013710B680393039F206907E0F4
:102FE0009B060DD50B680293029BDB1B052B28D893
:102FF000C378DBB203F0020202F0FF06002AEFD032
:1030000080F803C02669F378DBB2DF0632462DD4A0
:103010009F062BD5DB0731D40EF1010E94F82D312C
:103020005FFA8EFE7345D1D800201DBB002384F8C3
:103030002E3104E09070236980229A70042005B03C
:10304000F0BD86702369802204209A7005B0F0BD1F
:1030500003F0FF06FFF71AFF10B9042005B0F0BD1A
:10306000236984F82F61B0229A7094E78023B370AB
:103070000420DAE726698023B370D7E7BEF1000F9A
:103080000CBF02200320F6E79C1EFF1F2DE9F04134
:1030900006690025122780F8A05080F8A150F7702B
:1030A000D0F810C09CF802E00EF0200E88B0044664
:1030B000884615461E46BEF1000F49D0B4238CF851
:1030C00002307A4B21691A680092DDF800E006E0D0
:1030D0001A6801920198CEEB0000042830D8C87815
:1030E00000F0200000F0FF070028F1D04FEA48026E
:1030F00042F00102D2B20A711A680292DDF808E0C9
:10310000206906E01A6803920399CEEB01010529B4
:103110002AD8C17801F0020101F0FF070029F1D09F
:103120004FF0020C80F803C02269D17811F011072A
:1031300022D12DBB002E0CBFA0238023937003E06F
:103140008F70236980229A70384608B0BDE8F081FC
:103150000EF0FF07FFF79AFE0028F5D0236984F8E8
:103160002F71B0229A70ACE78770236980223846AD
:103170009A7008B0BDE8F081802393700027E3E7E0
:10318000012D78D0A021917021690A79BE46674649
:103190004FF0A80C1A680492049805E01A6805928A
:1031A000059A121A052A4DD8CA7802F0020202F0D6
:1031B000FF08002AF2D0CF702169CA78D2B212F08B
:1031C000100F08465DD192065BD5013DEDB2012D91
:1031D0004CD0BEF1870F3ED90A79012DDAD11A6899
:1031E0000692069D05E01A680792079A521B052A67
:1031F00056D8C27802F0020202F0FF01002AF2D093
:103200000223C3702269D378DBB2D9063BD49B0674
:1032100037D5B023BEF1870F937043D8226904EBF2
:103220000E0312791A760EF1010E5FFA8EFE00BFC0
:1032300000BF00BF16B1236980229A7084F8A1E014
:10324000774681E781F80280236980229A70774669
:1032500084F8A1E078E704EB0E0291F8048082F88C
:1032600018800EF1010E5FFA8EFEB6E781F802C0FB
:1032700021690846ADE7A82191702069BE46027910
:10328000ADE7774660E710214FF49673D170013BAC
:10329000FDD12269937803F0F7037746937053E7E3
:1032A0008170D1E723691B79C1E700BF9C1EFF1F16
:1032B0000148FFF751BD00BF7808FF1F0148FFF725
:1032C0004BBD00BFB409FF1F0148FFF745BD00BF5C
:1032D0003C07FF1F38B528220C460546084600214A
:1032E0000DF064FD0B22094920460EF087FA0022FA
:1032F000E272E86806492061002301250320E560A9
:10330000626260612162A361E36138BDE051010046
:103310000AD7233CF8B504460848E1600021206044
:10332000A160102016461F460AF07AF93A46054673
:103330003146FFF78FFBA5602046F8BDF051010034
:1033400030B5034685B08068197400230C4601939C
:1033500000930222012303A93D258DF80D408DF82D
:103360000C50FFF7ADFB1E2007F0BCFF05B030BDD1
:103370002DE9F047054684B0894680680121FFF7B2
:103380008FFB20B90027384604B0BDE8F08704ACB5
:10339000002604F8046D4FF0010823460746214635
:1033A000A8680196CDF800804246FFF71BFC9DF807
:1033B0000C30A02B12D04FF47A7007F093FFA8685E
:1033C00001962346CDF80080424621468DF80C60D8
:1033D000FFF708FC9DF80C30A02BD3D10021284624
:1033E000FFF7AEFF00263F21A8688DF80C104FF0C4
:1033F000200E012302222146019600968DF80DE051
:10340000FFF75EFB1E2007F06DFF4FF0010801E0A3
:1034100007F068FFA86801962346CDF800800122D6
:1034200021468DF80C60FFF7DDFB9DF80C30A02BDA
:103430004FF0000A4FF00A00EAD1322007F052FFA5
:103440003E26A868CDF804A0214601230222CDF82B
:1034500000A08DF80C608DF80DA0FFF731FB0A205D
:1034600007F040FF0726A868CDF804A02146CDF854
:1034700000A0012302228DF80DA08DF80C60FFF74B
:103480001FFB01230222A868CDF804A02146CDF835
:1034900000A03F248DF80DA08DF80C40FFF710FB25
:1034A0000A2007F01FFF49462846FFF749FF14206E
:1034B00007F018FF384604B0BDE8F087F0B50D46B8
:1034C00087B014460021182206460DF06FFC06A9AD
:1034D000A86801F80C4D002506228DE8240004ABF5
:1034E0000122ADF814500495FFF77CFB9DF8137092
:1034F0009DF815509DF811009DF810109DF81220B0
:103500009DF8143041EA002042EA072243EA0523ED
:10351000083C00B217B21DB2262C2FD8DFE804F009
:10352000142E2E2E2E2E312E2E2E2E2E312E2E2ECF
:103530002E2E312E2E2E2E2E2E2E2E2E2E2E2E2EA8
:10354000142E2E2E2E2E14000CF0E6FA00221B4B09
:103550000CF072FCC6E9000138460CF0DDFA0022DE
:10356000164B0CF069FCC6E9020128460CF0D4FAAF
:103570000022124B0CF060FCC6E90401304607B093
:10358000F0BD0CF0C9FA00220D4B0CF02BFBC6E984
:10359000000138460CF0C0FA0022094B0CF022FB67
:1035A000C6E9020128460CF0B7FA0022044B0CF0E1
:1035B00019FBC6E90401304607B0F0BD00005940D0
:1035C0000000B03F70B5242688B00C460546324650
:1035D000084600210DF0EAFB104BE9681B680193D7
:1035E000019B236103226160A26029461A2202A87E
:1035F0002660FFF763FFDDE902010CF0CBFD60619F
:10360000DDE904010CF0C6FDA061DDE906010CF066
:10361000C1FDE061012008B070BD00BF9C1EFF1F0E
:103620002DE9F843DDF82080099FB3B116460C461A
:10363000054603EB010904E020460134C0474C4530
:103640000BD02B6832462146DB68284698473A461D
:1036500031460028F0D1BDE8F8830120BDE8F883A9
:103660002DE9F843DDF82080AAB11F460C46054637
:1036700002EB010901E04C450DD02B684146204684
:103680001E6AB847214602462846B0470134002842
:10369000F1D1BDE8F8830120BDE8F8834FF0FF3099
:1036A000704700BF704700BF30B583B005460C4679
:1036B00007F0CEFD1C4B984204D800232B802380BA
:1036C00003B030BD694609F04DFD9DF806309DF808
:1036D00005109DF80420503B9BB27F2B05D801318B
:1036E000C9B20C2901D81F2A11D900219DF8020066
:1036F000298017289DF801209DF8003003D83B2A27
:1037000001D83B2B09D90023238003B030BD42EA06
:10371000411242EA432399B2E8E7520142EAC02249
:1037200042EA53039BB2EFE7FFA5CE12F0B5012B9F
:1037300095B005463AD0022B01F1040140F2022374
:10374000684618BF002304F0B3FC129B002B36D050
:103750005C2009F065FF04469DF804601E481F497F
:10376000029A9DF80C30206004AF2673A1600026F9
:10377000394604F1180022612375666004F080FB6D
:1037800063681748174AA66501334FF47A712E71A2
:103790002E732C61A0606360A9602A60124B0093B5
:1037A000384604F09BFB284615B0F0BD44F20223D6
:1037B0000431684604F07CFC129B002BC8D1139B9B
:1037C000002BC5D14FF47A71064A2B712B732B61F4
:1037D000A9602A6004AFE1E7404D0100A84C010058
:1037E000F04C0100144D0100CC4C010010B5D0F894
:1037F00084448EB0A4B10A466846214601230024C1
:103800008DF800408DF801408DF8024002F0E8FC90
:1038100008B90EB010BD684603F038FD0EB010BDFB
:10382000D0F888040028F4D00A46012301466846EF
:103830008DF831408DF832408DF8334000F0DEFED7
:103840000028E6D0684600F041FF0EB010BD00BF72
:1038500010B5D0F884448EB07CB10A46012304F53B
:103860008961684600248DF800408DF801408DF88C
:10387000024002F0EFFB0EB010BDD0F88804002823
:10388000F9D00A46012300F5896168468DF8314078
:103890008DF832408DF8334001F006F90EB010BDBE
:1038A00030B5D0F884448FB074B100250A462B4659
:1038B000214668468DF800508DF801508DF8025071
:1038C00002F08EFC0FB030BDD0F888040028F9D08B
:1038D0000A462346014668468DF831408DF832404D
:1038E0008DF8334000F08AFE0FB030BD38B5054684
:1038F000D0F88404C0B1C469013C04F0FFF9D5F8E4
:103900008434241A43B198794FF4007303FA00F019
:1039100080B2A0FB040138BDD5F8883463B1D3F878
:103920003C04A0FB040138BDD5F8880420B1D0F8D0
:10393000304402F025F9E2E70020002138BD00BF45
:1039400030B5D0F884448FB0A4B100250A462B4688
:10395000214668468DF800508DF801508DF80250D0
:1039600002F03EFC08B90FB030BD684602F026FEFA
:103970000FB030BDD0F888040028F4D00A462346A2
:10398000014668468DF831408DF832408DF833405D
:1039900000F034FE0028E6D0684600F0F5FE0FB0D7
:1039A00030BD00BF70B5D0F884448EB01646C4B1A7
:1039B000002504F589640A462B46214668468DF8A1
:1039C00000508DF801508DF8025002F0A7FB08B9A5
:1039D0000EB070BD32462146684602F031FD0EB091
:1039E00070BDD0F888040028F2D000F589650A4639
:1039F0002346294668468DF831408DF832408DF8CF
:103A0000334000F08BFD0028E2D03246294668465C
:103A100001F0A2F80EB070BDD0F884244AB19179BB
:103A2000D0694FF400738B409BB20138A3FB0001B7
:103A30007047D0F8882432B1D2F83034D2F83C0440
:103A4000A3FB000170470020002170472DE9F041E1
:103A5000D0F8904492B04CB11F46236805469B694C
:103A600020469847B0F5405F064603D8002012B0C4
:103A7000BDE8F0814FF400700CF0D0FD80460028C6
:103A8000F4D0B6F1806F07AE3B4621463046424641
:103A90003DD803F0D5FE044640460CF0C7FD002C8F
:103AA000E4D095F8B844FF2C35D095F8B9C4D5F8D2
:103AB000BCE4D5F8C0748DF804408DF805C0CDF88D
:103AC00008E0039701AB93E8070004AB83E8070025
:103AD0008DF810408DF811C0CDF814E0069793E8EA
:103AE000070086E8070005F5946496E80E00204676
:103AF00004F07AFC95F8B334C5F890441BB921461C
:103B0000281D04F071FA012012B0BDE8F08101F027
:103B100067FB0446C0E785F8B84405F2944495F87D
:103B2000C414204605F00EFDC5F89044204605F06B
:103B3000B1F80028E7D1D5F89014281D04F054FA04
:103B4000E1E700BFF0B5D0F890648BB00446002EDA
:103B50003CD090F8C85465B190F8C934FE2B3FD0E2
:103B6000336830469B6B06A9984784F8C8040BB0AD
:103B7000F0BD90F8B864FF2E43D090F8B9C4D0F8E7
:103B8000BCE4D0F8C0748DF800608DF801C0CDF8A9
:103B900004E002979DE8070003AB83E807008DF877
:103BA0000C608DF80DC0CDF810E0059793E8070084
:103BB00006AB83E8070004F594660ECB304604F0AC
:103BC00013FC94F8B334C4F8906423B1002084F853
:103BD000C8040BB0F0BD3146201D04F005FAC4E75F
:103BE00033683046DB699847336830465B6C9847EA
:103BF000431CB5D0003018BF012084F8C8040BB0B6
:103C0000F0BD00F2944590F8C41480F8B8642846DA
:103C100005F098FCC4F89054284605F03BF80028BD
:103C2000D4D1D4F89014201D04F0DEF99DE700BF34
:103C30002DE9F0410E4604468AB02E4806F042F9BE
:103C4000FE2E84F8C9643CD03F2E03D900200AB070
:103C5000BDE8F0810025284F8DF804608DF80550EF
:103C60000395029701AB93E8070004AB83E80700D4
:103C70008DF81150059706958DF8106093E80700B0
:103C800007AB83E8070004F594680ECB84F8B864AA
:103C900084F8B954C4F8C054C4F8BC74404604F065
:103CA000A3FB94F8B334C4F890842BB1284684F86D
:103CB000C8040AB0BDE8F0814146201D04F094F923
:103CC000F5E704F29446FF23002584F8B83484F81D
:103CD000C4542946304605F035FCC4F8906430469B
:103CE00004F0D8FF0028E1D1D4F89014201D04F08E
:103CF0007BF9DCE7A936000040787D01F0B4154B74
:103D0000154E164D164C1E60C3F894542926FF25F7
:103D1000C3F8A8440024134883F8B364012783F848
:103D2000C95483F89C4483F89D4483F8B64483F8CF
:103D3000C444C3F8A00483F8B174C3F88444C3F83E
:103D4000884483F8C844084A08491846F0BC0BF078
:103D50008BBD00BF7019FF1F0C52010060530100A2
:103D600003200038005301003007FF1FA536000074
:103D7000F0B500F1240305460E46174693E8070008
:103D800085B001AC84E8070072012146286A01F081
:103D900085FE012806D13A462146286A01F046FEF2
:103DA00005B0F0BD002005B0F0BD00BF10B5044661
:103DB00000F0B0FD002384F8313084F8333010BDBA
:103DC00038B50D46144600F124010022006A01F0C6
:103DD0002DFE20B143892B8003892380012038BD2B
:103DE00038B50D46144600F124010022006A01F0A6
:103DF0001DFE20B1C3892B8083892380012038BD1B
:103E000090F831200AB10020704738B504460D46BD
:103E1000114638220CF0CAFF4023012084F83130CB
:103E200084F83300256238BD70B40D460978202926
:103E300003D115F8014F202CFBD0184915600EE076
:103E4000A4F12206F6B21D2E20D904F0BF063C2EA6
:103E50000ED05C2C0CD02E2C02D0202C00D09560E3
:103E60002C782E46013564B12F2C06D01F2CE7D8B4
:103E7000002070BC704716F8014F202CFBD02F2C6F
:103E8000F9D01E60114670BC01F0D8BC21FA06F6CC
:103E9000F607DAD5002070BC704700BF0101003181
:103EA0002DE9F04F90F83330DE0783B004465AD541
:103EB0005D060E46934640F1B780D4E90001D4E98F
:103EC000042310EB0B0841F100094B4508BF4245A4
:103ED000C0F0B080BBF1000F6ED0A146F9E806013A
:103EE0005D46276AD7F838340340C3F3080A002B2D
:103EF00068D150EA010275D194F8312051064CBFC7
:103F0000D7F83424E269A261D7F82C0497F845E485
:103F10005B0A023A191802FA0EF21144BAF1000FC4
:103F20002CD1B5F5007F29D3D7F81C22914225D09A
:103F3000B5F5806F5DD34FF0010808FA0EF8C3EBBA
:103F400008034FEA5528984528BF984691423BD828
:103F500008EB01039A4237D207F50470019105F08E
:103F60009FFF019980BB94F832304FF0FF3043F04F
:103F7000020384F8323003B0BDE8F08F07F5047017
:103F8000002205F05DFF0028EDD0CAF50078A845B5
:103F900028BFA84600EB0A014246304606F080FFE3
:103FA00042460023D4E9000180185941B5EB0805C9
:103FB0004644C4E9000194D10025C5EB0B0003B0D1
:103FC000BDE8F08FA2699FE7D7F814020368324674
:103FD0001F694346B8470028C5D04FEA48284246E3
:103FE0000023DFE794F83320520610D5A26901328E
:103FF00089E7D7F8140203683246DB68984700283F
:10400000B1D04FF4007200234FF40078CAE738466D
:104010004A46A169019301F023FD0028A3DB0CD0DF
:10402000276AA269019B6FE790F8313018073FF5C6
:1040300044AF4FE7C0EB020B4CE794F8313013F07C
:10404000500FBAD18FE700BFF0B583B001220DF158
:1040500007010446D0E900678569FFF721FF0128C1
:1040600008BF9DF80700A56118BF4FF0FF30C4E9F5
:10407000006703B0F0BD00BF2DE9F04F90F831E0CC
:10408000856983B00446BEF1000F1BD0D0E9000162
:10409000994208BF904216461F463BD056EA070396
:1040A00007D10023A3610120C4E9006703B0BDE884
:1040B000F08F1EF0080F0AD0D4E90423BB4208BFDA
:1040C000B24204D2A561002003B0BDE8F08F236A9C
:1040D000019393F845C494F833A00CF1090C5FFAEE
:1040E0008CFC16F1FF3247F1FF33CCF1200803FAC4
:1040F00008FB22FA0CF242EA0B02ACF1200B23FA85
:104100000BF31AF0400F42EA030205D0E3691A44A8
:10411000A261C8E70120D7E710F1FF3941F1FF3A6A
:1041200029FA0CFC0AFA08F84CEA080C2AFA0BFBEC
:104130004CEA0B0C6245534617D21EF0400F16BFD7
:10414000019BE369D3F83434A361904604F1180964
:104150004A46B8F1000FA6D0A169206A01F080FCA0
:10416000002808F1FF38F3DCACE750EA0103E4D0A3
:10417000CCEB0202E9E700BF2DE9F04F0C468FB00F
:1041800090F831100193814621B994F8313013F041
:10419000500F07D1002089F8310089F833000FB0A3
:1041A000BDE8F08F019B03F00303012B154606D0F9
:1041B000022B00F0FE80002BECD1012200E0022255
:1041C000019B03F0080313430293002D40F0DD80B0
:1041D0000327029B002643F04003B34603932022AB
:1041E00006A92046FFF75CFEF0B12028D2D19DF849
:1041F0001830180645D4BBF1000F04D12268D4F85A
:1042000018A0A2F12008BB453CBF0BF1010B5FFADF
:104210008BFB002B00F0CF80202206A92046002631
:10422000FFF73EFE0028E0D1019B9905B2D5029B25
:104230009A07AFD5002DADD0BB4580F0C5802B4689
:104240005E4655469A460AE02028A3D11EB9226848
:10425000A569A2F12008DEB2B74240F2B280202266
:1042600006A92046FFF71CFE731C0028ECD120464F
:10427000D4F818B000F07EFB00288BD0C4F818B03A
:10428000EAE756BBBB4538BF4FF0000B852BA6D1E4
:104290003146382248460CF089FD9DF81C309DF8C7
:1042A000192089F83020D90603F0370258BF42F0B0
:1042B000080289F831202368216AA269C9F82420FC
:1042C000203BC9F82010C9F8283094F83330C3F3E4
:1042D000801389F82C30012681E7C02B29D0C12B0F
:1042E0009AD12A4606A9484601F01EFA002866D04F
:1042F000AB89002B7FF473AFAA686B689A427FF496
:104300006EAF019B1F053FF545AF019B13F4884F2E
:1043100040F0AC8099F833309E0700F1A780019BF4
:104320005B053FF537AF019B580400F1BD800120CC
:1043300035E79DF819309DF8082089F833209B0750
:1043400044BF9DF80C3089F83330DDE90823DDE9FE
:104350000C01C9E904230B9BC9F81C30C9E902010F
:10436000002DCED09DF81B302A69296869604FF076
:1043700000009A42A8817FF44FAFBDF81C60AB8A61
:10438000F61AB6FA86F6760929E72B69614F0E33DD
:10439000A7FB0337D4E90023FF0802371343FFB21A
:1043A0003FF417AF00230022C4E900230023A361D8
:1043B0000FE7032204E7002D7FF436AFEAE6064656
:1043C0000DE75346AA461D4694F833603822002173
:1043D00048460CF0EBFCC6F380160823226A89F8E5
:1043E0002C60C9F824A0C9F8288089F831302B68DE
:1043F000C9F8202000266B60AE819FB307F1FF381B
:10440000DFF814A1B3465FFA88F8012259464846FE
:10441000FFF7AEFC044600283FF4BCAE90F9003034
:10442000002BFFF6B7AE202200210CF0BFFC002EBF
:1044300043D0BBF1010F59D0C123A34623701E34D2
:10444000AB8928461BB96A68AB689A4205D005F06B
:1044500015FE2BF8020F5C45F2D101365FFA86FBA0
:10446000BB45D2D3484600F055FA98E699F831306A
:1044700013F0110F7FF48EAE019B5D057FF553AFF6
:1044800099F833309C077FF585AE0022002348461B
:10449000FFF7F2FD00283FF47DAE484600F054FCE3
:1044A00000283FF477AE42E7D9E904234846FFF7F6
:1044B000E3FD00287FF43BAF6CE68523237089F889
:1044C000308084F80180DAF80030EBB10DF113028E
:1044D0000DF1160105A89847BDF81410BDF8162077
:1044E0009DF81330618122812375B6E7029B84F821
:1044F00001B063F07F03C022227089F833302B694A
:10450000E370AB8AA380A8E745F221436381E3818E
:104510006382A2E789888888981EFF1F2DE9F041F1
:10452000044696B094F83150019200208DF8510065
:104530008DF852008DF85300ADF8140035B9984647
:1045400091F8313013F0500F0E4603D1002016B011
:10455000BDE8F08113782F2B154624D0002716E0F4
:10456000019D2D782046002D32D0FFF705FE342224
:1045700021460028EAD008A806F092FC204600F068
:10458000C9F9019D84F8317008AE84F8337029466A
:1045900001AB02AA2046FFF747FC002302AA3146DE
:1045A0000028DDD1D2E70135019529782F29FAD0ED
:1045B000B9B1382208A80021376A0CF0F7FB402275
:1045C000012308AE10978DF851208DF85330C5E7C0
:1045D000434602AA31462046FFF7CEFD16B0BDE89D
:1045E000F08138222046356A0CF0E0FB40230120A0
:1045F000256284F8313084F83300A8E719B101F559
:104600008961FFF78BBF0846704700BFF0B490F890
:10461000314024B991F8313013F0500F02D100200D
:10462000F0BC7047D1E90067002706F01F0656EA84
:104630000703F4D113462246F0BCFFF79DBD00BF2F
:104640008169F8B50446006A01B10131012201F027
:104650003FF9012806462FD9012301461A46206A50
:1046600001F090F9074638B3A06994F8333030B3BD
:104670005A0613D5421C964225D023F0400284F8F6
:104680003320E36905E0206A01F02CFAA0B1A069AB
:104690002B465D1C834219462A46F4D34FF0FF3265
:1046A0003146206A01F01EFA30B1A16959B1324693
:1046B000206A01F017FA30B900273846F8BD43F0F8
:1046C000400384F83330A6613846F8BD90F83330A3
:1046D0009A0739D5C1692DE9F0410546A9B90024E9
:1046E00007E0037803F07F03037095F83030A342AE
:1046F0002CD3214601222846FFF73AFB0134E4B2CD
:104700000028EED10020BDE8F0815B06006A35D5B7
:10471000D5E9026790F845340933DBB216F1FF366C
:1047200047F1FF37C3F1200426FA03F207FA04F435
:10473000203B27FA03F322431A430132002301F0FE
:1047400021F90028CBD1DDE7002070472C6A002337
:10475000204685F8313085F8333005F0A1FB00287C
:10476000D0D004F5047005F09BFB0028CAD0D4F823
:1047700040040368BDE8F041DB69184701F0C4F963
:104780000028ACD1BEE700BF90F83130D90601D483
:104790000020704710B5002288B000230446FFF7C0
:1047A0006BFC06E0202819D19DF800301A0615D4BC
:1047B00033B1202269462046FFF772FB0028F1D171
:1047C00094F83330082243F0020384F8333084F83D
:1047D00031202046FFF77AFF08B010BD002008B056
:1047E00010BD00BF2DE9F0430026494F83B080463D
:1047F0003446002231464046FFF7BAFA054630B14A
:104800000378C02B6DD0C12B69D0852B09D098F8C7
:10481000323043F0010388F83230002003B0BDE8A5
:10482000F08398F83130D7F8009003F03703838095
:10483000B9F1000F10D00DF103020DF1060101A82E
:10484000C847BDF80620BDF804309DF8031069750F
:10485000AA812A82EB816B82D8F8202092F810324C
:1048600043F0010382F8103295F800E00021E203E2
:10487000685C42EA540310FA83F301299CB201F107
:10488000010126D01F29F2D9013698F83030F6B24E
:10489000B342AED2012208F12401D8F8200001F081
:1048A000C5F80028B3D0D8F820504480284605F039
:1048B000F7FA0028ABD005F5047005F0F1FA0028EE
:1048C000A5D0D5F840040368DB69984700289ED03E
:1048D000A4E7BEF1850F0CBF04210221C7E79E4665
:1048E000C4E798F8333013F0400F437814BF43F017
:1048F000020323F002034370D8E90423C0E9022332
:10490000D8E90223D8F81C104161C0E90623A3E7C7
:10491000981EFF1F90F8312092B138B590F83320DF
:1049200011060FD4056A0446284605F0B9FA88B97D
:1049300094F8323043F0010384F83230002038BD5F
:104940000120704702F07F0280F83320BDE8384034
:10495000FFF748BF05F5047005F0A2FA0028E7D07C
:10496000D5F840040368DB6998470028E0D00120AF
:1049700038BD00BF2DE9F04190F8313059060446AA
:1049800060D48068236AD3F83C341844B0F1806F57
:1049900002D30020BDE8F0812046FFF751FE002839
:1049A000F7D0266A96F81032DA074FD44FF0FF336B
:1049B000002506F50878C6F81C3286F810522946FC
:1049C0004FF4007240460CF0F1F9226AA36992F8A4
:1049D0004504D2F82C14023B834001265F1816FAD6
:1049E00000F310D0D2F84004036879191B6A4246DC
:1049F000984701350028CCD0226A92F8453406FA4F
:104A000003F3AB42EED894F831305B0615D494F83A
:104A1000333063F07F0384F83330D2F83C64D4E958
:104A20000223D4E9040192194FF000077B41801959
:104A30007941C4E90223C4E904012046BDE8F041FC
:104A4000FFF768BF006A01F039F99BE706F50470CB
:104A500005F026FA0028A9D19BE700BF10B591F810
:104A6000314014F0500F01D1002010BD40F6022358
:104A70000446FFF781FB0028F6D0102384F831307C
:104A80002046FFF777FF0028EED0A369E3612046B8
:104A900000230022FFF7F0FAC12384F833302046C8
:104AA000BDE81040FFF736BFF0B5044697B094F864
:104AB000316001920020ADF814008DF851008DF89E
:104AC00052008DF8530036B91F4691F8313013F07B
:104AD000500F0D4602D1002017B0F0BD13782F2BD8
:104AE000114624D001AB02AA2046FFF79DF900230E
:104AF00002AA29460028EED0019E3678204626B329
:104B0000FFF73AFB40B9002FE5D0294602AA20461C
:104B1000FFF7A4FF0028DED02146342208A806F0C3
:104B2000BFF92046FFF742F908AD0199DAE70131F4
:104B300001910B782F2BFAD0296A08A8FFF760F9AA
:104B40000028C8D0019908ADCCE702AA2946204622
:104B5000FFF784FF17B0F0BD30B590F831309DB04D
:104B6000002413F0180F8DF831408DF832408DF885
:104B700033408DF869408DF86A408DF86B4003D062
:104B80000B6A056A9D4202D000201DB030BD05466B
:104B900040F601236846FFF7C1FC0028F4D0342218
:104BA00029460EA806F07CF909AB93E8070005F149
:104BB000240383E8070095F833309DF8302085F80A
:104BC000302063F07F0385F833302846FFF7A2FEDC
:104BD0000028D9D0022208230EA815948DF86B2046
:104BE0008DF86930FFF772FDCFE700BF2DE9F84F70
:104BF00090F831509DF828909DF82C709DF830A0C9
:104C00009DF834802C0776D5A2F2BC7295B27F2D28
:104C100071D85A1E0B2A6ED809F1FF321E2A6AD8A3
:104C2000172F68D8BAF13B0F65D8B8F13B0F62D89F
:104C300004469B460E46FFF76DFE00285BD04FEA08
:104C4000680249EA4B1942EA4A1A49EA452518F02E
:104C5000010F4AEAC7274FF0000AADB2BFB20CBF3E
:104C6000D1464FF06409D34606F0010800225146B0
:104C70002046FFF77DF800283DD090F800E0BEF117
:104C8000850F41D037D3AEF1C003012B33D80021BB
:104C90004FEACB3210F801C042EA5B031CFA83F3FF
:104CA00001291FFA83FB01F1010127D01F29EFD948
:104CB0000AF1010A94F830305FFA8AFA5345D5D2E6
:104CC000012204F12401206A00F0B0FE98B1246AA8
:104CD000A0F802B0204605F0E3F860B104F50470D6
:104CE00005F0DEF838B1D4F840040368DB69984772
:104CF00008B1BDE8F88F0020BDE8F88FBEF1850F40
:104D00000CBF04210221C3E794F83130226A03F07A
:104D10003703838092F8103243F0010382F8103297
:104D2000B8F1000F01D007824582B20703D580F8A1
:104D3000149007814581730703D580F8159087810A
:104D4000C58190F800E0A2E790F833309A0718D5B3
:104D5000F0B5C56983B08DB103F04003044603F09C
:104D6000FF0083B9A169002941D10195E16129467C
:104D7000206A00F0C9FE30BB002000E0012003B033
:104D8000F0BD00207047206AA16990F84534D4E94D
:104D900002670933DBB216F1FF36C3F1200E47F18B
:104DA000FF3726FA03F207FA0EFE203B42EA0E0214
:104DB00027FA03F31A430132B1B1013D6D1A0131F3
:104DC0002A44019102BBD4E9000194F8333063F026
:104DD0007F03C4E90201C4E9040184F833302046AA
:104DE000FFF798FD03B0F0BD0195E161EAE702AA83
:104DF00042F8040D206A00F033FE0028BCDB0AD123
:104E0000019D002DDFD0B2E70023019900F0BAFD2B
:104E10000028D8D1B0E74FF0FF32A169206A00F036
:104E200061FE0028ECD1A7E72DE9F04F90F8333070
:104E300083B09D070446009240F1AA801A07894674
:104E400000F19F80009B002B00F01C812146F1E8BF
:104E50000623DDF8008001914FF0010BCA46206A5D
:104E6000D0F838541540C5F3080945BBA16900299D
:104E700000F0C28094F833305B0640F1D680D4E96C
:104E8000026790F84524E3690932D2B216F1FF3681
:104E900047F1FF37C2F1200ED64007FA0EFE203A46
:104EA00046EA0E0627FA02F2164333449942C0F04E
:104EB000B9802046FFF7C4FB002869D0206AA669A4
:104EC000D0F82C7490F845E46D0A023EE91906FA10
:104ED0000EF63144B9F1000F40F08780B8F5007F3D
:104EE00060D2D4E90423D4E90067B8F5007F4546D1
:104EF00028BF4FF400759F4208BF964234BF01227D
:104F0000052200F5047004F09BFF002840D04844BF
:104F10002A465146A94405F0C3FFB9F5007F00F0C9
:104F20009C8028460021D4E90023D4E904671218A4
:104F30004B419F4208BF9642AA44C5EB0808C4E90A
:104F4000002307D294F83310C4E9042361F07F01F1
:104F500084F83310B8F1000F81D1D4E902019942ED
:104F600008BF9042C0F08280484B1B68002B00F0C5
:104F7000878094F83330009863F07F0384F83330EF
:104F80000DE0D0E90423FFF777F800287FF45AAF4B
:104F900094F8323043F0010384F83230002003B03B
:104FA000BDE8F08FB8F5806F2AD30BFA0EF35D1BC6
:104FB000D0F81C224FEA5823AB4228BF2B4691421F
:104FC0004FEA432508D8CE18B24205D24FF0FF323F
:104FD00080F81092C0F81C22D0F8140206685246DD
:104FE000766AB04700289CD1D2E7C9F500754545DF
:104FF00028BF4546012284E7E669F6B1A6615FE76E
:10500000D0F81C32994221D0D0F8140203685246DD
:105010001B6A98470028BBD04FF4007000214FF462
:10502000007580E74E1CA6614AE7019A00F018FD62
:105030000028ADDB7FF442AF3BE72046FFF700FBE3
:105040000028A5D0A669E661206A39E74FF0FF3352
:1050500080F81092C0F81C32D6E7206A00F5047080
:1050600004F01EFF00287FF45CAF91E794F8331042
:10507000009861F07F01C4E9022384F833108EE7C1
:1050800000988CE7D4E9002367E700BF981EFF1F54
:1050900070B5044608460D460CF0F2FA2368024645
:1050A000294620465B68BDE8704018478368C3F313
:1050B00008038BB100210269D1540133B3F5007F9D
:1050C000F9D1C3680269016810B41C68246A1846E3
:1050D00023465DF8044B1847012070478268034659
:1050E000C2F30802006930B481545D68986840F2E8
:1050F000FF1401EB75010130A2425960986002D0A3
:10510000012030BC7047D868196804681A69246A9D
:105110004D1C1D60234630BC184700BF38B50C46F7
:10512000C9B20546FFF7DAFF00B938BD210A2846A3
:10513000BDE83840FFF7D2BF2DE9F843002680468E
:10514000016086604660B0B205F0A8F8B0428146C2
:1051500005460DD001464046FFF7E0FFA0B30136FB
:10516000B6F5803FEFD34046BDE8F843FFF79EBF5A
:10517000741CB4F5803F14D1C6F58037B7F5007FB5
:105180004FF480341AD2A9B24046FFF7C7FF013569
:10519000D0B1A542F7D32E46E2E70134B4F5803F03
:1051A000EAD0A0B205F07AF8A042F6D0A71BB7F576
:1051B000007F03D2A642E6D34E46C4E74FF6FF7106
:1051C0004046FFF7ABFF10B90020BDE8F883B9B245
:1051D0004046FFF7A3FF0028F6D02646C0E700BFF1
:1051E0002DE9F04F14460A68C160046189B0814618
:1051F000926908460E461F469047B0F5801F11D2AF
:105200005FB13B68AA495B681522384698473B68FE
:10521000A8495B6838460F2298470025284609B000
:10522000BDE8F08F05460123022201E095424FD9E7
:105230000133DBB2202B4FEA4202F7D1A3F10B027C
:1052400052100121D0B291400690049101334FF0E9
:1052500001085B1008FA03F303FA08F105939B00B9
:1052600001910293029BEB1AD34003FA02F80393D5
:10527000019B4FF400720021204698444FF0010B2F
:105280000BF094FD4FF0000AFF230721FE2284F863
:10529000C21184F8C32184F8BFB184F8C0B184F886
:1052A000C1A184F8C43184F8C53133680199C4F8C8
:1052B000C6114AF655221B6AC4F8CA81A4F8FE2119
:1052C0005146224630469847B0B9002F9FD1A4E7F7
:1052D0001C2BB3D808221A2B069200F29D814FF4A2
:1052E000004302934FF4804301934FF4807304937F
:1052F0004FF400530593B5E74FF400725146204632
:105300000BF054FD019B23649021A365039B059A38
:10531000C4F848804FF0EB0E76204FF05808E36554
:10532000A1709DF8183022654FF0450162656566F1
:10533000412284F86D305425202384F800E0607009
:105340004FF0040E4FF480704FF0090CE17084F8B8
:10535000048080214FF04608A27123726372A37209
:1053600084F86F10C4F844A0C4F84CA0A4F86AA054
:1053700084F86EB084F870A084F80580E571C4F8F4
:1053800060E0A4F8680084F86CC004F1770304F2CC
:10539000FD11F42203F8012F9942FBD14AF6552260
:1053A0000023A4F8FE211D464FF0010802E001335E
:1053B00008F10108A3F16A02012A04D9702BF6D082
:1053C000E25C02EB7505B8F5007FF0D13368019916
:1053D0001B6A22463046984700283FF476AF336870
:1053E00001991B6A22460C313046984700283FF449
:1053F0006CAF4246002120460BF0D8FC4AF65523FC
:10540000019AA4F8FE31631ECDF81C9002F1010A46
:1054100002F1090B069304F2FF1899464B4613F864
:10542000012F984502EB7505F9D1336822461B6AB6
:1054300051463046984700283FF447AF336822462C
:105440001B6A0AF10C013046984700283FF43DAF33
:105450000AF1010AD345E1D14FF400720021204640
:10546000DDF81C900BF0A2FC019B03F10B0A069BDC
:1054700013F8012F984502EB7505F9D133682246E0
:105480001B6A59463046984700283FF41EAF3368E0
:1054900022461B6A0BF10C013046984700283FF466
:1054A00014AF0BF10103534506D09B46DFE700BF65
:1054B0003452010094520100231F04F5FE7243F898
:1054C000045F9342FBD1336851461B6A2246304643
:1054D000984700283FF4F9AE33680BF10D011B6AC1
:1054E00022463046984700283FF4EFAE2FB13B6884
:1054F00087495B680C2238469847039B4FF400723B
:10550000002120469D000BF051FC0199059AF823DB
:105510000A4405F20725904623704FEA552B23468F
:1055200004F11301FF2203F8012F9942FBD14FF040
:10553000000A2346AD0B54469A4604E0002C64D082
:105540000134A34518D0B4FBF5F305FB134333B97D
:1055500001227049384617B13B685B689847336849
:1055600052461B6A04EB0801304698470028E5D1F3
:10557000002F7FF44CAE50E654468FB33B6866492B
:105580005B68022238469847039D049B0735ED0867
:1055900005F2FF184FEA582898453FF638AE4FF409
:1055A0000072002150460BF001FC07238AF80030FE
:1055B0004FF0000A07E0BAF1000F00F083800AF113
:1055C000010AD0452CD0336802991B6A2246514407
:1055D000304698470028EED1002F7FF418AE1CE625
:1055E000039D049B0735ED0805F2FF184FEA582884
:1055F00098453FF612AE4FF40072394650460BF014
:10560000D5FB07238AF80030D2E74FF40072214619
:1056100050460BF0CBFB93E74FF48071049115E6F5
:10562000002F61D0019B3D4938464FEA4308FFF700
:105630002FFD049B484608EB0301FFF77DFD002882
:105640003FF4E5ADD9F80830049AB3EB422F3FF6AA
:10565000DEAD33493846FFF71BFD4FF400720021E1
:1056600020460BF0A3FB032302218222812023701A
:10567000616384F8200084F84020D9F80420626433
:1056800063650499D9F80820A265002308EB410955
:10569000A563E365984607E0B8F1000F1DD0049BB1
:1056A00008F10108984510D0336822461B6A09EBBF
:1056B00008013046984705460028EDD1002F7FF4B9
:1056C000A6ADAAE584F800A079E7002F3FF4A6ADC7
:1056D00038461449FFF7DCFCA0E54FF40072414660
:1056E00020460BF063FBDAE7019B4FEA4308049B7B
:1056F000484608EB0301FFF71FFD00283FF48DAD7E
:10570000D9F80830049AB3EB422F3FF686ADA4E7F0
:105710004C520100504F0100705201005C520100D8
:1057200074520100845201002DE9F0410C461546E7
:1057300001F11E08AB8934F8026F28461BB96A686C
:10574000AB689A420ED004F099FC04F0A7FD07461E
:10575000304604F0A3FD874209D14445EAD1012037
:10576000BDE8F081B6FA86F04009BDE8F08100207E
:10577000BDE8F0812DE9F84F90F831308946002BD3
:1057800044D090F83030012B804651D9013A8E1820
:105790000C4602274FF0000B002239464046FEF728
:1057A000E7FA98B30378C12B30D1824600F11E0589
:1057B00019E000F510539BB2B3F5806F26D21E4B53
:1057C0004FEA8B2BC0F309000BEA0303184300F5E3
:1057D00080303246214604F0C7FC88B1AA45044611
:1057E0004FF0000B1DD03AF8020FBBF1000FE0D1D3
:1057F00000F520539BB2B3F5006F0CD30028E8D11D
:10580000C9EB040000232370BDE8F88F002089F85D
:105810000000BDE8F88FB3F5806FF7D2AA45834644
:10582000E1D1013798F83030FFB2BB42B4D2E7E79C
:105830000C460020E6E700BF00FC0F00F8B50A6840
:105840004A6000230E461F468B810B611C464FF6B3
:10585000FF7516E004F012FCA84221D004F01EFDF2
:10586000E30343EA540454FA80F33169B789C3F37C
:105870004E02041242EAC33314FA83F40131A4B293
:1058800031613046002FE5D17268B3689A42E1D1A8
:105890003069B4820138FE288CBF00200120F8BD99
:1058A0000020F8BD38B50C46D0F82414154601EB9D
:1058B000D41100F50470012204F0C2FA034628B1A5
:1058C000A400C4F3080401201D5138BD38BD00BF39
:1058D0002DE9F84F804691468B46002944D08F1E13
:1058E000D8F830349F423BD207F00705012303FA72
:1058F00005F5EDB2C7F3C80A3E463C46D8F82C146D
:10590000002201EB1431404604F09AFAC0B110F8BD
:105910000A100AE04A452AD0A74210D0D8F830240D
:10592000944217D213F0FF050CD001340D424FEA18
:105930004503A4EB0602EDD0A7422646EED1012096
:10594000BDE8F88F0AF1010ABAF5007F4FF00105B2
:10595000DDD101E0002634464FF0000A0125CDE7F5
:105960000027BA460125C7E7D0F82074B8E7BBF195
:10597000000F04D1B9F1010F08BFC8F82064B01CB2
:10598000BDE8F88F2DE9F04702398046D0F83004A1
:1059900015468A18824238D89A46D8F82034BAF187
:1059A000000F35D1994238BFC8F8201401F0070420
:1059B0000122D8F82C3402FA04F4E4B203EB1139D2
:1059C000C1F3C806012249464046914404F038FA22
:1059D000D8B1871900F5007017F8012B224214BFC7
:1059E00001260026564582EA04024FEA44040CD000
:1059F000013D07F8012C15D014F0FF04EED1B84298
:105A000026464FF00104E7D1DCE70020BDE8F0872F
:105A10009942CBD89A42C9D9824228BF0022C8F8FD
:105A20002024C3E70120BDE8F08700BFF8B50E468B
:105A300096E82800D0F83814D0F82C4490F8457433
:105A40002940023B04EB5121BB40194400F504708E
:105A500004F0F6F918B17368C3F308031844F8BDED
:105A600038B5D0F8303401338B4214D30C46D0F81B
:105A70002414154600F5047001EBD411002204F043
:105A8000DFF940B1A100C1F308014058286001309E
:105A900018BF012038BD4FF0FF3038BD70B50D463E
:105AA0004968D0F8383406468818686096F8454446
:105AB0000B4009341A44E4B222FA04F43CB12B7AC4
:105AC0003BB12B6801332B60013C002CF7D1012046
:105AD00070BD2A4629683046FFF7C2FF0128F3D07F
