:1000000000000320D1010000592600001126000045
:100010001126000011260000112600001126000004
:1000200011260000112600001126000059260000AC
:100030005926000011260000E94B0000ED4B00009E
:1000400059260000592600005926000059260000B4
:1000500059260000592600005926000059260000A4
:100060005926000059260000592600005926000094
:100070005926000059260000592600005926000084
:100080005926000059260000592600005926000074
:100090005926000059260000592600005926000064
:1000A0004524000051240000592600005926000074
:1000B0005926000059260000592600007132000020
:1000C00059260000C93B00005926000059260000AF
:1000D0005926000059260000592600005926000024
:1000E0005926000059260000592600005926000014
:1000F0005926000059260000592600005926000004
:1001000059260000592600005926000059260000F3
:10011000592600000D3F0000592600005926000016
:1001200059260000592600005926000059260000D3
:1001300059260000592600005926000059260000C3
:1001400059260000592600005926000059260000B3
:1001500059260000592600005926000059260000A3
:1001600059260000592600005D2400005926000091
:100170005926000059260000592600005926000083
:100180005926000059260000592600005926000073
:100190005926000059260000592600005926000063
:1001A0005926000059260000592600005926000053
:1001B0005926000059260000592600005926000043
:1001C0005926000059260000592600005926000033
:1001D0005C4B4CF2205210B51A804DF628121A8052
:1001E00000BF00BF02F03CFA574B4FF030621A607C
:1001F000564A9A60564ADA60564B4FF470021A60BB
:10020000554B564A1A60564B1A78110703D51A787F
:1002100042F008021A70534B5349AA221A70534AEB
:10022000534B8B4204D252F8040F43F8040BF8E707
:10023000504B514900228B4202D243F8042BFAE77B
:100240004E494F4A002352F8230041F8230001335E
:10025000742BF8D14B4B4C4A802103F8011B93427D
:10026000FBD14A4B454A1A60494B8A221A70A3F5C2
:10027000805324225A70A0221A709A799207FCD5D2
:100280009A79D406FCD4434A937903F00C03082BE3
:10029000FAD1414B60221A7002331A78802AFCD1BD
:1002A0003C4B01221A715D225A719A799006FCD555
:1002B0009979384A4906FBD5384B394919600021EC
:1002C000596020231370937903F00C030C2BFAD19F
:1002D000344B354A1A60354A354C136813F4807331
:1002E00003D123604FF4A8531360324B324A1A6093
:1002F00000225A60072243F8042C304AC3F80C2D20
:1003000062B602F0F1FA2368DA0705D52C4802F04C
:1003100079FA2C4B2C4A1A602C4B1B785B0609D5BA
:10032000284C294B22689A4204D1254802F06AFAE7
:100330000023236002F09AF907F080F804F02CFF04
:10034000FEE700BF0E20054030800440823F0400DD
:100350000100002B88ED00E0002008E0030000858C
:1003600002D0074000E00740B815FF1F24BF00007F
:100370003007FF1FB815FF1F181AFF1F0002FF1FCD
:100380000000000000E400E064E400E008ED00E0AC
:10039000005006400040064001E007404480044011
:1003A0000000060204800440C010070010D0034083
:1003B00014D0034014E000E01FBF02000000202022
:1003C00049FAAE621CE00340A5C3945A00F007400E
:1003D000FFFFFFFFFFFFFFFFFFFFFFFFFFFFFFFF2D
:1003E000FFFFFFFFFFFFFFFFFFFFFFFFFFFFFFFF1D
:1003F000FFFFFFFFFFFFFFFFFFFFFFFFFFFFFFFF0D
:10040000FFFFFFFFFFFFFFFFFFFFFFFFDEF9FFFF23
:1004100010B5054C237833B9044B13B10448AFF33E
:1004200000800123237010BDB815FF1F00000000DD
:1004300020BF0000084B10B51BB108490848AFF3B6
:1004400000800848036803B910BD074B002BFBD0A0
:10045000BDE81040184700BF00000000BC15FF1F9A
:1004600020BF0000B815FF1F0000000000B58DB0D0
:1004700000232C2201A904F075FE074B0DF10302A5
:1004800003F12B0012F8011F03F8011F8342F9D179
:100490000DB05DF804FB00BF4317FF1F2DE9F047C7
:1004A000DFF8B880254F264D264E84B08946264970
:1004B000044604F09DFD404601F0D2FA234B93ED33
:1004C000000A8246B8EEC00A404601F031FBBDEE9C
:1004D000C00A3946204685ED000A04F01FFE524648
:1004E00002A81B4907F070FD02A9204604F016FE81
:1004F0003146204604F012FE3946204604F00EFE36
:100500002A681449144D01A807F05EFD01A9204690
:1005100004F004FE3146204604F000FE4946204621
:1005200004F0F8FD2146284604F0A8FC284604F013
:10053000CBFC204604B0BDE8F08700BF04B7000044
:100540007017FF1F10B70000C0BC00003C07FF1F62
:1005500008B7000014B70000540BFF1FF015FF1F71
:1005600010B52D492D4801F03DF940F6B8312B4822
:1005700001F0DAF870B11321294804F00FFA294884
:1005800004F0A2FC254801F031F800F0F5FF8B28BB
:1005900024D010BD0446214801F028F800F0EEFFF9
:1005A00040B92D21204804F0F9F91E48BDE810405B
:1005B00004F08ABC21211D4804F0F0F9174801F02D
:1005C00015F800F0E1FF234601460A22154804F021
:1005D0008FFC1448BDE8104004F076BC0F4801F0D1
:1005E00005F8134900F0EAFF114800F0CFFF50B9B9
:1005F0001A21104804F0D2F90A4804F065FCBDE85D
:10060000104003F0BBBA3E210B4804F0C7F905487F
:10061000BDE8104004F058BCA416FF1FC016FF1F11
:100620001CB70000540BFF1FB0B700008CB70000D0
:10063000D415FF1F30B700004CB70000F0B52DED0A
:10064000028B9BB0002104A804F0D2FC08A8002172
:1006500004F0CEFC6B4F9FED6C8ADFED6C8A05E0F9
:1006600002F07AFDC1B2674800F0CEFE02F060FDF4
:100670000028F5D197F86C30654E014603F0FF0471
:100680000CA8002B7AD004F0B3FC10AD5D4910A883
:1006900000F0C8FE0FCD34460FC40FCD0FC495E84F
:1006A000030044F8040B96F821302180002B5DD024
:1006B00058490CA804F032FDD6ED007AF8EEE77A3E
:1006C00067EE887A17EE900A06F0A4F902460B4608
:1006D00001A8514907F078FC01A90CA804F01EFDFF
:1006E0004E490CA804F01AFD4C490CA804F016FD64
:1006F00048490CA804F012FDD6ED017AF8EEE77A2D
:1007000067EE887A17EE900A06F084F902460B46E7
:1007100010A8414907F058FC10A90CA804F0FEFCF1
:100720003F490CA804F0FAFC3A490CA804F0F6FC86
:10073000B6F90A303B4907EE103AB6F9083007EE31
:10074000903AB8EEC77AF8EEE77A6846E7EE287A8C
:10075000FDEEE77A17EE902A07F036FC69460CA802
:1007600004F0DCFC2E490CA804F0D8FC0CA908A865
:1007700004F086FC0CA804F0FBFB77E7214608A8F0
:1007800004F0DAFC70B1214610A804F031FC2649CF
:1007900010A804F0C3FC10A908A804F071FC10A86C
:1007A00004F0E6FB08A90CA804F036FC0CA910A87C
:1007B000FFF774FE10A904A804F062FC10A804F06E
:1007C000D7FB0CA804F0D4FB04A910A804F024FC67
:1007D00010A8FFF74BFE10A804F0CAFBFFF7C0FEFD
:1007E000124908A804F054FC4FF47A7002F02AF879
:1007F00008A804F0BDFB04A804F0BAFB1BB0BDECD4
:10080000028BF0BD0C16FF1F95BFD6330AD7233CD1
:100810007C16FF1F04B70000E0B7000010B700000F
:10082000E8B70000ECB70000F4B70000C0BC00005F
:1008300070B51E4D1E481F4E002400F0E3F805F170
:1008400015006C602C602C816C81AC81EC812C8259
:100850006C822C7500F04CFE17482C776C77AC77C7
:10086000EC7785F8204085F8214085F8224085F80E
:10087000234085F8244085F8254000F0A1FE0F4A6A
:100880000F4910482C2300F06FFF0F4800F082FE44
:100890000E4801F001F82146304604F0A9FB30462D
:1008A0000B4A0C49BDE8704005F04ABF7C16FF1F9B
:1008B0000C16FF1FE015FF1FC016FF1F4417FF1F78
:1008C0003407FF1FA416FF1FD415FF1FF015FF1FCD
:1008D0003007FF1F714F00002248234AF8B5046813
:1008E000224D234F40F2EE2613783BB12B78DB07E5
:1008F00004D5036839685B1A0E2B06D80368117893
:100900001B1BE9B1B3F5FA6FEED91A4A1A48032155
:1009100000F0DEFFB8B1184801F0A2F8174B4FF411
:10092000E1311860164804F0F1F91549154800F056
:1009300059FE4FF416511448BDE8F84004F06EB962
:10094000B342D1D9E1E71D21104804F027F810483F
:1009500004F0BAFA074A0848032100F0B9FF00285A
:10096000F8D0D8E77817FF1F8019FF1F9819FF1FCD
:10097000101AFF1F7C08FF1FF015FF1F3C07FF1F09
:100980003C0BFF1FC016FF1F280BFF1F14B80000F1
:10099000540BFF1F312921D041291FD0302915D0F8
:1009A0004E2913D0562911D032291BD0442919D0F1
:1009B00033291FD0342921D0352917D0362901D029
:1009C000452909D1012380F82D3002E0002380F869
:1009D0002D30012380F82E3000207047032380F84B
:1009E0002D30F6E7042380F82D30F2E7052380F858
:1009F0002D30EEE7072380F82D30EAE7062380F854
:100A00002D30E6E72DE9F0410446002500F12507E9
:100A100038466561256125836583A583E583258443
:100A2000658484F8245004F12E0600F061FD04F181
:100A3000360884F82C5084F82D502A46334603F8A3
:100A4000012B43454FF00005F9D1A5646564A4F876
:100A50004C50A4F84E50A4F85050A4F85250A4F8AA
:100A60005450A4F8565084F8585004F1590000F03E
:100A70003FFD84F8605084F861502B4604F1620217
:100A800004F16A0102F8013B91424FF00005F9D1EF
:100A90006560A560E5606561256125836583A58343
:100AA000E5832584658484F82450384600F020FDD1
:100AB00084F82C5084F82D5006F8015B46454FF021
:100AC0000003F9D184F841302046BDE8F08100BF31
:100AD00030B490F86C20034652B1002280F86D20AB
:100AE00090F86C200121013A80F83F1080F86C20CA
:100AF00093F86E2093F82E10940069B1A11803EBBF
:100B0000C10191F8620000287DD193F82D00A11851
:100B100003EBC10181F8610093F82F1071B1A118A6
:100B200003EBC10193F8290081F85D0093F82A00D6
:100B300081F85E0093F82B0081F85F0093F8301085
:100B400091B1A11803EBC10193F8270081F85B0074
:100B500093F8260081F85A0093F8250081F859008F
:100B600093F82C0081F8600093F8311041B103F143
:100B70001001A51803C903EBC505443585E803003A
:100B800093F8321021B1A11803EBC1019869C86430
:100B900093F8341021B1A11803EBC101186A48651C
:100BA00093F8331021B1A11803EBC101D86908658E
:100BB00093F83510F9B9224403EBC202623203F113
:100BC0002E0003F1360510F8014B12F8011B854287
:100BD00041EA040102F8011CF5D193F8402042B12A
:100BE000002283F86E2093F86C2012B9012283F85A
:100BF0006C2030BC7047A11803EBC10193F82400AE
:100C000081F85800D7E791F8611093F82D008142E0
:100C100082D27CE7017870B409B30139C9B2114EB0
:100C200056F82140A45C9C4211D015D80131C9B2BC
:100C3000082911D00B4E03E0E9B20DD808290BD0DA
:100C400056F82140A45C9C4201F10105F4D1013128
:100C5000017070BC01207047002070BC7047024CCE
:100C6000E0E700BF5CB800007CB800002C290BD086
:100C700090F83A20012A05D9023A0B46D2B205492A
:100C8000FFF7C8BF012070470378002B0CBF00207E
:100C90000220704734B8000090F83A30082B14D87E
:100CA000DFE803F0055040482129313715000023C3
:100CB0002C2980F82C3008D0303901EB8101490013
:100CC000012380F8271080F83D30012070472C293F
:100CD0001BD090F82C30303B1944012380F82C10A5
:100CE00080F83030F1E7303901EB8101490080F8BC
:100CF00025100120704790F82530303B194480F8CA
:100D00002510012070472C29DFD1012380F83030D5
:100D1000DBE72C29F9D0303901EB8101490080F85B
:100D20002C10D2E7303901EB8101490080F8261000
:100D30000120704790F82630303B194480F8261087
:100D40000120704790F82730303B194480F8271075
:100D50000120704790F83A30052B0CD8DFE803F0FB
:100D600003182028300D2C2905D0303901EB8101E2
:100D7000490080F829100120704790F82B30303B53
:100D80001944012380F82B1080F82F300120704780
:100D900090F82930303B194480F829100120704721
:100DA000303901EB8101490080F82A100120704799
:100DB00090F82A30303B194480F82A1001207047FF
:100DC000303901EB8101490080F82B100120704778
:100DD00070B490F83A40E4B92D2A0CBF01260026E1
:100DE0004FF001050C804C8080F83B4080F83C605F
:100DF00080F83D500AD02C2A47D02E2A3FD00B88AD
:100E000003EB830302EB4302303A0A80002070BCFC
:100E100070472C2A14D02E2A31D090F83B40002C59
:100E2000EDD0651CA34280F83B50EFD34B8803EB19
:100E3000830302EB4302303A00204A8070BC7047C3
:100E400090F83B2090F83C40FAB1B1F9022072B919
:100E50002CB14A880B8852425B424A800B800120A9
:100E600070BC70474A8802EB820252004A8090F8B8
:100E70003B20551C934280F83B50F3D2E8E7012316
:100E800080F83B3070BC00207047012280F83B2086
:100E9000DBE700BFF0B490F83A302BB901240B60C7
:100EA00080F83B3080F83D402E2A1AD02C2A15D0ED
:100EB00090F83B3053B10133DBB2062B80F83B3066
:100EC00064D9072B40D00020F0BC70470868303A46
:100ED00042EA00120A601846F0BC704790F83B30B6
:100EE00003BB012380F83B304C788E782509EB005A
:100EF00004F00F0403EB45032344DBB20EBB0C7874
:100F000027097E0004F00F0506EBC7042C44E4B269
:100F10003C2515FB03432E2A0B60D4D02C2AC7D1C5
:100F200090F83B30042B1FD0052B39D0062B06D070
:100F300041D8032B39D0022B3FD0012B43D00B6873
:100F400016E06433DBB2DAE70B68214C580001305D
:100F5000A4FB0040382A03EB500314D8332A13D9DA
:100F600001330B600020B7E70A68642303FB02F338
:100F70005A0017480132A0FB020203EB5203012082
:100F80000B60F0BC704702330B609CE70B68303A93
:100F900003EB830302EB430300200B60F0BC7047BC
:100FA0000B6803EB83035B00E2E70A684FF47A7394
:100FB00003FB02F3DCE701208EE70A6842F21073BC
:100FC00003FB02F3D4E70A68024B03FB02F3CFE70B
:100FD000ABAAAAAAA08601002C2908B50BD090F8CC
:100FE0003E300BB9012008BD0A4600F11401FFF79D
:100FF00051FF012008BD90F83A30002BEFD180F866
:101000003E30012008BD00BF38B590F83930013BB3
:101010000446082B0DD8DFE803F013171F052E3206
:1010200043540F0090F83E501DB190F83A30002B19
:1010300061D00125284638BDBDE83840FFF78ABE9B
:10104000BDE83840FFF728BE90F83A30002BF0D1C9
:10105000FFF7A0FC0125EDE790F83A30002B41D0D6
:1010600090F83E50002DE4D00A46204604F11001CD
:10107000FFF710FFDEE7BDE83840FFF7ADBF90F89F
:101080003E50002DD5D090F83A30002BD1D101231D
:10109000572980F83130CCD143695B424361C9E7BD
:1010A0000A46032300F11C01FFF792FE05460028C3
:1010B000BFD094F83A30003318BF012384F833309E
:1010C000B8E70A46022300F12001FFF781FE05463A
:1010D0000028AED094F83A30003318BF012384F8CA
:1010E0003430A7E7B1F12C0518BF012580F83E5038
:1010F000002D9ED0B8E753299BD103695B42036161
:1011000098E700BF38B590F83930013B0446082B0A
:101110000BD8DFE803F01D21303E42050D0A5300D5
:1011200090F83A300BB9FFF735FC0125284638BD59
:1011300090F83A30002280F83C20002B4FD12C2927
:10114000F3D0303980F82410012584F83550EDE7CC
:10115000BDE83840FFF7A0BD90F83A30002B4AD0E8
:1011600090F83E50002DE0D00A46204604F11001D0
:10117000FFF790FEDAE790F83E50002DD5D090F8BA
:101180003A30002BD1D15329CFD103695B4203619F
:10119000CCE7BDE83840FFF71FBF90F83E50002D68
:1011A000C3D090F83A30002BBFD10123572980F8E3
:1011B0003130BAD143695B424361B7E70A46022343
:1011C00000F11801FFF704FE05460028ADD094F8A1
:1011D0003A30003318BF012384F83230A6E72C29B7
:1011E000B2D090F82430303903EB830301EB430194
:1011F00080F82410A8E7B1F12C0518BF012580F86C
:101200003E50002D91D0AFE70378012B05D0062B7F
:1012100001D1FFF7F9BE01207047FFF773BF00BF90
:1012200090F83D3010B5044653B190F83A300022A2
:10123000013380F83A3080F83D202C21FFF7E4FF9D
:1012400023786268A3F10603B3FA83F301325B09E2
:101250000021626084F8403084F8411010BD00BF66
:1012600038B5C468242904F101040346C4600DD0D4
:1012700090F84130022B0D46044619D0012B2ED098
:10128000032B3ED04BBB0370184638BD90F840206E
:1012900012B1002280F840200022012083F838207B
:1012A00083F83A201A7083F83D2083F8410038BD56
:1012B0002A295CD0A1F120035E2B75D900F12E0301
:1012C00000F13601002203F8012B8B424FF00000A1
:1012D000F9D1207084F8410038BD012038BD90F864
:1012E000383081EA030280F83820FFF7BFFC01287C
:1012F00074D0022843D00023237084F841300120A9
:1013000038BD41F02002A2F16103052B90F83A307C
:1013100094BF573A303AD2B2F3B990F8381001235B
:10132000B2EB111F80F83A3014BF1D460025184655
:10133000002DD3D0A3680133A36004F1360504F176
:101340002E03002103F8011BAB424FF00002F9D13C
:10135000227084F8412038BD90F8383003F00F0334
:10136000934214BF012500253ED00120E0E7002371
:10137000032280F83A3080F84120012038BD04F182
:101380002E0304F13600002103F8011B83424FF0C5
:101390000002F9D10123022184F83A2084F839307F
:1013A000184684F8411038BD90F838304B4080F82A
:1013B0003830FFF729FF40B904F12E0304F136025B
:1013C00003F8010B9342FBD195E72C2D10D094F834
:1013D0003A30013384F83A30012038BD94F83A307D
:1013E000013384F83A3038BDFFF71AFF02209FE737
:1013F00094F839300022013384F8393084F83A20E7
:1014000084F83D20012038BD38B50546FFF728FF98
:101410000228044601D0204638BD2846FFF758FB75
:10142000204638BD2DE9F04700240F4605464460AC
:101430000460048144818481C481048244820475EF
:10144000153000F055F897F86C302C776C77AC7746
:10145000EC7785F8204085F8214085F8224085F812
:10146000234085F8244085F8254013B92846BDE877
:10147000F08797F86D6006EB8606F60006F14009E6
:10148000B944013B09F1040807EB060A87F86C3000
:1014900026224146284600F0E7FF5046C9F808409A
:1014A000C9F80440A9F80C40A9F80E40A9F810406A
:1014B000A9F81240A9F81440A9F8164059308AF842
:1014C000584000F015F806F158023A4402F10A03B8
:1014D0008AF860408AF86140123203F8014B9A4260
:1014E0004FF00001F9D187F86D102846BDE8F0876C
:1014F000002301220721C170437083700370837140
:1015000002714271704700BF007B0C30C0B270475F
:10151000D9B101291BD002291BD003291BD00429D2
:101520001BD005291BD006291BD007291BD0082951
:101530001BD009291CD00A291CD00B2917BF83688E
:10154000C07EC91811F80C0C7047C07C7047807CB5
:101550007047407C7047007C7047C07D7047807D3D
:101560007047407D7047007D7047008B000A7047D0
:10157000007E7047807E704700797047807A003027
:1015800018BF0120704700BF807A70470368187940
:10159000704700BF704700BF03680B6003790B7191
:1015A000437A4B72C379CB71837A8B72037A0B7255
:1015B00043794B7183798B71704700BFFFF7ECBFA4
:1015C00000F11102064902600022C0F88010427347
:1015D0000273C273027442728272C271704700BF9A
:1015E000540BFF1FC0F88010704700BF704700BF4A
:1015F000F8B5437A0446002B3AD1837A002B37D1D1
:10160000012704260325D4F8800003681B69984746
:10161000002866D0D4F8800003685B699847637B34
:10162000C0B2A07383B37E2866D07D2851D0227BC0
:101630002AB1A07B80F020000022A0732273022B2D
:101640002AD9E17BA27B1144E173032B32D8DFE876
:1016500003F01F0B0703A27B22716673D3E7A27B03
:10166000A2716573CFE7A27B627102236373CAE73D
:10167000002363732373E3736372A372E3712371B3
:101680006371A3712372BBE7227B002AD2D1A27BB4
:101690007E2AB8D16773B6E7032B0DD801A252F8A2
:1016A00023F000BF8F160000671600005F160000D1
:1016B000571600006E2B22D8A2790332934221D014
:1016C0002268A17B134403F8041C637B013363731A
:1016D00099E7D4F8800003681B69984710B927730D
:1016E00091E7F8BDD4F8800003685B69984780F003
:1016F0002000A073637B9AE70323A372F8BD022343
:10170000A372F8BDE27BFF2A06D00122A272043B3D
:10171000002223726273F8BDA27BE27101210022D4
:101720006172A272F3E700BF002918DBF0B50D4E1D
:1017300083B0336800930D460446009F05E0FFF731
:1017400057FF607A48B9A37A33B933680193019B94
:10175000DB1B9D422046F2DC002003B0F0BD0020E0
:10176000704700BF7817FF1F70B40446002510268D
:1017700001202373267160712561656103C9074EDD
:10178000A26004F1100326604FF6FE7283E80300A6
:10179000A576E5762046228370BC70478CB80000A1
:1017A00070B53AB1A1F17D03012B0AD901F0FD0317
:1017B000112B06D0D0F880000368BDE870401B688C
:1017C00018470546D0F8800003680C461B687D2149
:1017D0009847D5F88000036884F020011B68BDE8B5
:1017E000704018472DE9F0410746D0F880000368A3
:1017F0000C461B687E219847236820465B68984703
:10180000236806465B6820469847B11C0546C1F32D
:10181000072138460122FFF7C3FFA91CC9B2384689
:101820000122FFF7BDFF217938460122FFF7B8FFFB
:10183000617938460122FFF7B3FF257963791D44AA
:10184000EDB24FF0000810E023681B6898470122B2
:1018500001463846FFF7A4FF236831461B6820463F
:101860009847284408F10108C5B2236820465B6800
:1018700098475FFA88F6804531462046E4DBE94325
:101880003846C9B20122FFF78BFFD7F88000036802
:10189000BDE8F041DB68184700220260704700BFD6
:1018A00000B587B00122022300688DF80F10009365
:1018B000019205AB0DF10F0100F05CFA9DF81400E8
:1018C0009DF8153043EA002007B05DF804FB00BF27
:1018D00070B503290446006828BF032184B0217134
:1018E000164610B1102103F061FC102003F05CFCDF
:1018F00032460546772100F075F92560284601211A
:1019000000F096F9054618B90025284604B070BDC8
:101910000122206801920DF10F030092D0260DF1F3
:101920000E018DF80E6000F025FA9DF80F30552B52
:10193000EAD1AA212046FFF7B3FFAC21E080204680
:10194000FFF7AEFFAE2120812046FFF7A9FFB021AF
:1019500060812046FFF7A4FFB221E0822046FFF716
:101960009FFFB42120832046FFF79AFFB6216083B2
:101970002046FFF795FFB821A0812046FFF790FF92
:10198000BA21E0812046FFF78BFFBC212082204650
:10199000FFF786FFBE2160822046FFF781FFA0820D
:1019A000B3E700BF30B585B004A92E2301F8013D8F
:1019B0000DF10E0501231A460446006801930095B7
:1019C000F4258DF80E5000F043F9052000F03AFFA1
:1019D0002046F621FFF764FF05B030BD70B50379EE
:1019E00084B004A99B01343301F8033D044601236C
:1019F00003AD006801931A460095F4258DF80C504C
:101A000000F026F923791BB3012B25D0022B0CBF44
:101A10000E201A2000F016FFF6212046FFF740FFA7
:101A20002368012205020192184600920DF10F036E
:101A3000F8260DF10E018DF80E6000F09BF9237968
:101A40009DF80F00C3F108032843D84004B070BDCF
:101A5000052000F0F7FEDFE7082000F0F3FEDBE7EB
:101A6000F8B50446FFF79EFF07462046FFF7B6FF8E
:101A7000628B218BB4F91430B4F91260B4F90C50B4
:101A8000B4F90EE0BA1A01FB02F2D2139918F3026C
:101A900093FBF1F31344A3F57A63B4F90820B4F986
:101AA0000A7003FB03F6361306FB05F103FB02F293
:101AB0000D1406FB0EF603FB07F1D212B4F9067003
:101AC00002EBE62305EB6131E58A247903EB87031A
:101AD0000231A340891001F50042991C48BF591DED
:101AE0004CF25033E340A0EBA10003FB00F005FBF8
:101AF00002F2D20B0028B9BFB0FBF2F25200400054
:101B0000B0FBF2F2101240F6DE31074C00FB00F0A1
:101B100001FB00F0031404FB02F003EB204000F68D
:101B2000CF6002EB2010F8BD43E3FFFFFFFFFFFF94
:101B300008B52DED028BB0EE408AFFF791FF07EE5E
:101B4000900AF8EEE77A87EE887A17EE100A04F02A
:101B500061FF9FED0D1B41EC100B03F0B9FC002061
:101B600053EC102B0C4904F0F5FD09A3D3E9002335
:101B700004F0A4FF05F07AFABDEC028B00EE100A27
:101B800008BD00BFAFF3008000000020C05BC83F6D
:101B90000000000040A5E5400000F03F90F8A030B4
:101BA00090F8A1209A4205D95A1C034480F8A0203D
:101BB000187E70474FF0FF30704700BF70B5044685
:101BC00040681E4603685B6815469847854201D009
:101BD000002070BD3146606800F098FAB0FA80F0DD
:101BE000400970BD30B4002520240572C460017026
:101BF000426030BC704700BF037A10B5044683B121
:101C0000227863680121520083F8A32083F82E1103
:101C100083F82D11606800F079FAB0FA80F040097D
:101C200010BD012100F004F80028E9D110BD00BF6B
:101C300038B5044640680D4600F00CF901202072CA
:101C400005B938BD2046BDE83840FFF7D5BF00BF15
:101C50002DE9F041079EC468DDF818E09519A5420A
:101C600019D815460278984643680F46520001215C
:101C7000044683F8A32083F82E1183F82D116EB14A
:101C8000BEF1000F0AD04068036871465B683246B7
:101C90009847864202D00020BDE8F08143462A469C
:101CA00039462046BDE8F041FFF788BF2DE9F843EB
:101CB000164607468846D2B20178406800F0B0FA6E
:101CC000864202D00020BDE8F88336B30023DFF857
:101CD00054901C4612E090F8A03090F8A1209A424F
:101CE00003F1010E00EB03011AD980F8A0E0087E91
:101CF00028700134A4B2A64223460ED9786802683F
:101D000052694A4508EB0305E5D090470134A4B277
:101D1000C0B2A64228702346F0D80120BDE8F8835F
:101D2000FF20E5E79D1B00000AB32DE9F8431646A6
:101D3000994688460746002401E0A64214D9FD686A
:101D4000331B9D4228BF1D46731BA34294BF4B46C5
:101D5000002308EB04012A463846FFF7A7FF2C446E
:101D60000028EAD1BDE8F8830120BDE8F88301200E
:101D7000704700BF2DE9F041C568069F9DF81C60C3
:101D8000AA4202D90020BDE8F08190F800C0D0F846
:101D900004E04FF001084FEA4C0C1D468EF8A3C03A
:101DA00033468EF82E818EF82D810446FFF706FF0C
:101DB0000028E7D043463A4629462046BDE8F04190
:101DC000FFF7B2BF0020704790F8A12090F8A00064
:101DD000101A704790F8A03090F8A1209A4286BF60
:101DE0001B18187E4FF0FF30704700BF704700BFD0
:101DF00038B50546B0F82E0190B195F82D3114464E
:101E0000C3F1890294420CD805F1A300184422467C
:101E100000F02AFB95F82D31234485F82D3120461A
:101E200038BD012014462871EEE700BFB0F82E310E
:101E30006BB190F82D31882B07D8C218013380F888
:101E40002D31012082F8A310704701230371002077
:101E5000704700BF0023426980F8A03080F8A130AD
:101E600080F82C3180F82D3180F82E3180F82F3118
:101E700006CA30B40D680469C0F834312A43C0F88A
:101E800038310A60A370426990F8313116491468FC
:101E900013441D7A5B7B01EBC5051B026D6803F4DF
:101EA000E06343F064032B6090F8323113449D7C6F
:101EB000DB7D01EBC5011B02496803F4E06343F0DD
:101EC00064030B6021685368194205D003692C2212
:101ED0005A70036904229A71036920225A710369B6
:101EE00080229A7030BC704718B9000038B502697A
:101EF000D478E4B2E106054625D51023D3706306F5
:101F000020D504F0040404F0FF03002C5BD0434907
:101F1000D5F8342100230B7085F82D31002A66D0C6
:101F2000904795F82D31002B61D02B69D0229A7003
:101F30002B6995F8A3201A712B69012285F82C21B1
:101F40000222DA7038BD04F0400303F0FF00002BDA
:101F5000D7D19379DBB203F0600160294ED093783A
:101F600003F0100303F0FF01B3B114F0010437D103
:101F700095F82C3195F82D1199424CD9591C2B44C8
:101F800085F82C1193F8A33013712B69D0229A7025
:101F90002B690222DA70D5E785F83011937943F086
:101FA000200393712B6995F8A1101A798729D2B271
:101FB000C6D81A4800780028C2D06818013185F8C0
:101FC000A1100276BCE72A6985F8A130C02393707E
:101FD0002B69124A1979012111700222DA70B1E7D6
:101FE000C02393702B691A790222DA70AAE70122C2
:101FF000002385F82D2185F8A33096E703F0DF0351
:102000009371D5F8383123B185F8A00095F8A10077
:1020100098472A69A3E71471B7E700BF7417FF1F39
:102020002DE9F047374FDFF8E0903B68026982B056
:1020300006460093DDF8008000214FF49675D378B2
:102040009B065BD53B680193019BC8EB03030F2BF9
:10205000F5D949B1102BF2D000209070336980225D
:102060009A7002B0BDE8F087726996F83131134476
:102070000521187A00F0E0FB726996F831311344BB
:10208000012193F812A0504600F0D6FB092400214C
:10209000504600F0CBFB2B46013BFDD101215046C1
:1020A00000F0C4FB2B46013BFDD1013CEFD1706930
:1020B00096F8311101444FF416720C7A4B7B09EB00
:1020C000C4011B02496803F4E06343F064030B603E
:1020D00096F832310344997CDB7D09EBC1011B0288
:1020E000496803F4E06343F064030B60013AFDD1F7
:1020F0003269D3789B064FF00101A3D4012002B0CE
:10210000BDE8F0877817FF1F18B90000F0B5036924
:102110001222DA700269937803F0200385B0044636
:102120000D46002B5ED0B42393703C4922690B68A6
:102130000093009E05E00B680193019B9B1B042B01
:1021400042D8D37803F0200303F0FF00002BF2D035
:1021500094F82D31002B31D04FF0000E4FF0020CCF
:1021600004EB0E0393F8A33013710B680393039FE2
:10217000206907E09B060DD50B680293029BDB1BD1
:10218000052B28D8C378DBB203F0020202F0FF0669
:10219000002AEFD080F803C02669F378DBB2DF06AF
:1021A00032462DD49F062BD5DB0731D40EF1010E1C
:1021B00094F82D315FFA8EFE7345D1D800201DBBF7
:1021C000002384F82E3104E09070236980229A70F5
:1021D000042005B0F0BD86702369802204209A7027
:1021E00005B0F0BD03F0FF06FFF71AFF10B9042099
:1021F00005B0F0BD236984F82F61B0229A7094E78E
:102200008023B3700420DAE726698023B370D7E710
:10221000BEF1000F0CBF02200320F6E77817FF1F66
:102220002DE9F04106690025122780F8A05080F8BA
:10223000A150F770D0F810C09CF802E00EF0200E0C
:1022400088B00446884615461E46BEF1000F49D0A8
:10225000B4238CF802307A4B21691A680092DDF8B9
:1022600000E006E01A6801920198CEEB0000042815
:1022700030D8C87800F0200000F0FF070028F1D027
:102280004FEA480242F00102D2B20A711A68029281
:10229000DDF808E0206906E01A6803920399CEEBA6
:1022A000010105292AD8C17801F0020101F0FF07D8
:1022B0000029F1D04FF0020C80F803C02269D178D8
:1022C00011F0110722D12DBB002E0CBFA0238023BB
:1022D000937003E08F70236980229A70384608B0AB
:1022E000BDE8F0810EF0FF07FFF79AFE0028F5D059
:1022F000236984F82F71B0229A70ACE78770236944
:10230000802238469A7008B0BDE8F081802393702F
:102310000027E3E7012D78D0A021917021690A7987
:10232000BE4667464FF0A80C1A680492049805E070
:102330001A680592059A121A052A4DD8CA7802F031
:10234000020202F0FF08002AF2D0CF702169CA7899
:10235000D2B212F0100F08465DD192065BD5013D56
:10236000EDB2012D4CD0BEF1870F3ED90A79012D77
:10237000DAD11A680692069D05E01A680792079A54
:10238000521B052A56D8C27802F0020202F0FF0161
:10239000002AF2D00223C3702269D378DBB2D906B7
:1023A0003BD49B0637D5B023BEF1870F937043D83B
:1023B000226904EB0E0312791A760EF1010E5FFA10
:1023C0008EFE00BF00BF00BF16B1236980229A7045
:1023D00084F8A1E0774681E781F8028023698022B2
:1023E0009A70774684F8A1E078E704EB0E0291F842
:1023F000048082F818800EF1010E5FFA8EFEB6E7B7
:1024000081F802C021690846ADE7A82191702069D2
:10241000BE460279ADE7774660E710214FF4967328
:10242000D170013BFDD12269937803F0F703774621
:10243000937053E78170D1E723691B79C1E700BF2F
:102440007817FF1F0148FFF751BD00BF7C08FF1F31
:102450000148FFF74BBD00BFB809FF1F0148FFF758
:1024600045BD00BF4007FF1F01B441EA000313F060
:1024700003036FD1403A41D351F8043B40F8043B89
:1024800051F8043B40F8043B51F8043B40F8043B4E
:1024900051F8043B40F8043B51F8043B40F8043B3E
:1024A00051F8043B40F8043B51F8043B40F8043B2E
:1024B00051F8043B40F8043B51F8043B40F8043B1E
:1024C00051F8043B40F8043B51F8043B40F8043B0E
:1024D00051F8043B40F8043B51F8043B40F8043BFE
:1024E00051F8043B40F8043B51F8043B40F8043BEE
:1024F00051F8043B40F8043B403ABDD2303211D38E
:1025000051F8043B40F8043B51F8043B40F8043BCD
:1025100051F8043B40F8043B51F8043B40F8043BBD
:10252000103AEDD20C3205D351F8043B40F8043B8D
:10253000043AF9D204320AD0D2071CBF11F8013B89
:1025400000F8013B03D30B7803704B78437001BC58
:10255000704700BF0C2A4AD310F0030311D0C3F117
:102560000403D21ADB071CBF11F8013B00F8013B42
:1025700007D311F8013B00F8013B11F8013B00F8CB
:10258000013B11F003033FF475AF30B4043AC91AAC
:10259000C3F1040C51F8044B022B19D0032B0BD0C0
:1025A000240A51F8043B1D0644EA050440F8044B94
:1025B0001C46043AF4D216E0240E51F8043B1D02E6
:1025C00044EA050440F8044B1C46043AF4D20AE0FD
:1025D000240C51F8043B1D0444EA050440F8044B64
:1025E0001C46043AF4D20432B1EB0C0130BC043A7C
:1025F000A0D3013A11F8013B00F8013BF9D20B7866
:1026000003704B7843708B78837001BC704700BFB8
:1026100008B5104C08E0236859050DD423681A0545
:102620000FD42368DB0411D423685803F3D501F0D9
:102630006DFC23685905F1D500F01AFE23681A05D0
:10264000EFD501F0C1FA2368DB04EDD500F004F802
:10265000EAE700BF3480044008B5FFF7D9FF00BFA8
:10266000014B10221A80704700200540704700BFC0
:10267000094908B50B6830B16A461844A2F5005202
:10268000904202D20860184608BD04F0D1FE0C2327
:1026900003604FF0FF3008BDF40AFF1FEFF3138013
:1026A00070B9EFF310836BB9EFF305825AB94FF4A9
:1026B0008070EFF311832BB1984228BF1846704702
:1026C0004FF0FF3070470F2A01D81846F1E7014B51
:1026D000D05CEEE7F0E300E0084A1378802B01D0ED
:1026E000002070470649074B074808600021197011
:1026F0001378802BFCD00120704700BF03E0074017
:102700004480044001E0074000002822094A137871
:10271000012B01D00020704703F1804303F5FC2317
:10272000602119701378802BFCD1034B034A1A6087
:102730000120704703E00740448004400000060287
:1027400010B4114B53F8302092F8804234B1012379
:1027500079B182F880305DF8044B704703EBC00319
:102760005B681A6851B922F002021A605DF8044BE6
:10277000704782F800315DF8044B704742F0030265
:102780001A605DF8044B704718B900001C4A02EB50
:10279000C00301295B6811D004291BD052F8300016
:1027A000002280F8802229B1022920D0032922D0DA
:1027B0001A6070474FF480721A60704752F8300008
:1027C0004FF4A27280F880121A601A6822F0200278
:1027D0001A60704752F830104FF4A272012081F84D
:1027E00080021A601A6842F020021A60704740F2B4
:1027F00003121A6070474FF481721A60704700BF6D
:1028000018B9000030B4054B054D064C00221021CC
:102810001A602A602060196030BC704714D00340F1
:1028200004D0034000D00340704700BF3F2801D8C8
:10283000FFF786BF704700BF3F2801D8FFF7A6BF4C
:10284000704700BF2DE9F843054672B6224F234B6F
:10285000234A1B683C68126862B6520102D5322BCB
:1028600088BF0134B5B3C3F52F3303F21F331D4EB8
:10287000DFF86890DFF868809B084FF47A72A6FB57
:10288000031302FB04F404EB930472B6D9F80010AE
:102890003A68D8F800E062B6C1F52F3303F21F336F
:1028A0009B08A6FB03031EF0806FC4EB93034FF459
:1028B0007A7002D0322988BF013200FB0233B3F5AF
:1028C0007A7F04D3013D05D004F57A74DDE702F088
:1028D00087FCDAE7BDE8F8837817FF1F18E000E00F
:1028E00004ED00E0176CC116F8B54F4B4F48DFF808
:1028F00060C14F4C4F49DFF85CE14F4E4F4D504F98
:102900004FF000621A604FF080521A604FF0005290
:102910001A604FF080421A604FF000421A600022A5
:10292000282302604EF6FF70CCF80000CEF800308D
:1029300023600EF5012E0B6033602B6006F5002638
:102940003B6005F50025A36207F500278B6204F5BF
:10295000012401F5012106F6E87605F6E87507F58C
:102960007F6710310EF1100E203433602B60CEF8EB
:1029700000303B600B602360324CBB618B610921EE
:102980002160A7F5002704F58054203F08343A6001
:102990002060BB60E36047F8041C04F5FD2407F5E4
:1029A000FE27043704F2FC7422603860A360FB60E9
:1029B00044F8041C083404F6FC74C7F8FC2F2060AB
:1029C000A4F5E124A4F2DC7433602B60C7F8F81F8F
:1029D00021681D4841F40071216001681B4C0EF50F
:1029E0007F4E0EF1E80E07F5883706F5803605F5BF
:1029F000803541F000710160CEF8002047F6FF718C
:102A00000822396033602B60226002F05FFCFFF720
:102A10000BFF1420FFF716FF01F0B2FE4FF48C708D
:102A2000BDE8F840FFF70EBF04E100E0048003407A
:102A3000148003401C800340248003402C8003400A
:102A400034800340008003400480044000900C4028
:102A5000088003400C8003402DE9F84F2C4B1B6885
:102A600007460BB101221A70DFF8BC90DFF8BC807A
:102A700099F80040D8F80030264D274E01349C428A
:102A80002ABF4FF0000A5FFA84FA5446AB462B780F
:102A9000A3421CD1FFF702FE40282BDC33791B0632
:102AA000F5D59BF80030D8F80010DBB25A1C8A42EA
:102AB00025D23F2A29D919493F3B0968CB5CD1B2BD
:102AC000DBB2DBB2F37129702B78A342E2D03F2C4A
:102AD0008ABF124B124B1B68124988BF403CFFB2A1
:102AE0001F550D4B0120BC22087089F800A0DA7038
:102AF000BDE8F88FFF28CADD02F072FBC7E70021AE
:102B00000A46074B9B5CDBB2DBE7D1B2F9E700BFBB
:102B10001418FF1F0D18FF1F00A00640C817FF1F45
:102B20008417FF1F0C18FF1F1818FF1F040BFF1F2F
:102B3000324A33491368F0B543F4806313600A786E
:102B4000304F314E314D324C32490023152A3B7003
:102B500033702B7023700B7045D01B2A3ED082B38C
:102B60002D4B1B78052B34D01A2B41D0012B1BD0B9
:102B70001F281FD8002002460125284B284C1A7018
:102B800028495D7004224FF0020E88273C2640251C
:102B900098729A704FF0004083F813E05A751F74D2
:102BA000DE7025700860F0BD1F4B4FF451721F2876
:102BB0001A60DFD9C0F34432C0F3471500F01F009C
:102BC000DBE71A4B40F213321A60134B1B78052BCC
:102BD000CAD1174B4FF451721A60C9E7154B40F236
:102BE00013321A60BCE7144B40F213321A60B7E795
:102BF000124B4FF451721A60BAE700BF34800440A0
:102C0000C417FF1F8017FF1F8117FF1F1818FF1F12
:102C10000D18FF1F0C18FF1F080BFF1F00A0064018
:102C20001FE400E000E100E044A0044040A00440B4
:102C30001CC004403C90044018C00440389004403C
:102C4000284B28499B7803F0EC0200F00303134360
:102C5000420700F00F0248BF43F01003042A8B70B4
:102C600038D0204B1F4A5B79C10603F0EF0348BF01
:102C700043F0100353719379820603F0EF03194A6E
:102C800048BF43F010039371C30506D553781178FC
:102C9000DBB241F020011170537010F4007005D1C7
:102CA000114B124A1968914219D0704730B40D493E
:102CB0000F4D8A780F4B0C480C4C42F0A0028A70E2
:102CC0002A78046003EBC20340F247325B6830BCF1
:102CD0001A6070478B7943F040038B71C1E718602D
:102CE000704700BF00A006401418FF1FD400D44254
:102CF000080BFF1F18B900002A4B1B685B0536D56F
:102D000010B5294C237823B102F06AFA2378002BFE
:102D1000FAD12648264A274B4FF000440021046090
:102D2000D1701B78152B23D01B2B35D01BB9224B10
:102D300040F203121A60214B1B7803F07F03052B2E
:102D400020D01A2B23D0012B03D11D4B40F20312AC
:102D50001A601C4A164B1C481C4912681C79DB7906
:102D6000002303700B700AB10123137010BD70476C
:102D7000174B40F203121A60104B1B7803F07F03CD
:102D8000052BDED1134B40F203121A60E1E7124B20
:102D900040F203121A60DCE7104B40F203121A6093
:102DA000C9E700BF348004400C18FF1F80E100E039
:102DB00000A00640C417FF1F40A00440080BFF1FDF
:102DC00044A004407C17FF1F8017FF1F8117FF1FBF
:102DD00018C004401CC00440389004403C9004409B
:102DE0000A4A38B50546137803F0FF04002BFAD1E0
:102DF00001212846FFF720FD21462846FFF716FD52
:102E0000034A044B52F835201A6038BD0C18FF1FD6
:102E100018B900001418FF1F09B140F080001E4AC5
:102E2000137898421BD010B41C4C2468640513D549
:102E300003F07F03052B2AD01A2B24D0012B14D0AA
:102E4000002900F07F0114BF60234423052915D019
:102E50001A290ED0012903D010705DF8044B704779
:102E60000F4943F440730B60F6E70D4B00241C60E0
:102E7000E6E70C4943F440730B60EDE70A4943F47D
:102E800040730B60E8E7074B00241C60D8E7064B53
:102E900000241C60D4E700BF080BFF1F34800440EF
:102EA00044A00440389004401CC00440174A1378E2
:102EB00083420ED016490968490509D5152B20D043
:102EC0001B2B1AD05BB115280DD01B2810D008B1D0
:102ED000107070470F4B40F213311960F8E70D493D
:102EE00015280B60F1D10C4B40F213311960EFE75C
:102EF0000A4B40F213311960EAE7084B00211960D0
:102F0000E1E7054B00211960DDE700BFC417FF1F93
:102F10003480044040A0044018C004403C90044069
:102F20000D4B1B6813F4806305D03F2805D90B4B6C
:102F300000201860704718467047094B10B5074CC1
:102F400053F8303023600121FFF776FC236800221C
:102F50001A70012010BD00BF348004407C17FF1F91
:102F600018B900000F4B1B6813F4806308D01228B7
:102F700008D0142811D00C4A537B03F0FE0353737E
:102F800000207047094B40F202321A60064A537B18
:102F900043F00103537301207047054B40F20232A6
:102FA0001A60F3E73480044000A006400CA00440FF
:102FB00014C00440034B1B685B0501D5FFF74CBDF3
:102FC000704700BF348004403E4B1B685A0575D5DE
:102FD0002DE9F04F3C4B1B6883B00BB101221A70F6
:102FE00043189842019363D2DFF8F080DFF8F09045
:102FF000364CDFF8F0B0364F451C18E02278924589
:103000005FFA8AF629D0BAF13F0F1ED9DBF800200B
:1030100015F8011CAAF14003D1542A462D49012379
:103020000B701D44019B88F800609A4240D298F8CA
:103030000030D9F8002003F1010A9245DED323784D
:1030400003F0FF0643B10026B246234B15F8012CCE
:1030500003F80A202A46E1E7B246BC22FA7005E0EE
:103060003A7913060BD422785245CCD1FFF716FBE0
:103070004028F5DDFF28F6DD02F0B2F8F3E722780C
:10308000D9F80010D2B2501C88420BD23F2816D972
:10309000DBF800103F3A8A5CC1B2D2B2D2B2FA7108
:1030A0002170E0E7002108460B4B1A5CD2B2F5E72D
:1030B000074BBC22DA7003B0BDE8F08F7047C1B295
:1030C000F2E700BF348004401418FF1F0D18FF1FE3
:1030D00000A006400C18FF1F8417FF1F1818FF1FC1
:1030E000040BFF1FC817FF1F10B5044C237823B132
:1030F00002F076F82378002BFAD110BD0C18FF1FD0
:10310000084B094A1B781078DBB2C0B2834202D266
:103110000138C01A7047054A1268013A1044C01AB3
:10312000704700BF1818FF1F0D18FF1F040BFF1F6B
:10313000064A074B10781B78C0B2DBB2984202D225
:10314000044A12681044C01A704700BF8017FF1F5E
:103150008117FF1FF80AFF1F70B4184B184D1B781A
:103160002A78D9B2D2B2914222D0164B1C68531C95
:10317000A34214D3002213461348C05CC0B2134EBE
:103180002A7032684AB1994238BF0919CB1A1049DE
:1031900009688B4201D80023137070BC70473F2B25
:1031A00009D90C483F3A0068805CDAB2C0B2E6E761
:1031B0004FF0FF30F1E7DAB2DEE700BF8017FF1F04
:1031C0008117FF1FF80AFF1FCC17FF1F7C17FF1F77
:1031D000FC0AFF1F1018FF1F0D4A0E4B12781B78B8
:1031E000DBB29A4211D00C4A11685A1C8A4204D3AD
:1031F00000220A4B985CC0B270473F2AF9D9084AAE
:103200003F3B1268D05CC0B270474FF0FF30704750
:103210008017FF1F8117FF1FF80AFF1FCC17FF1F22
:103220001018FF1F0D4B1B685B0516D530B40C4BF7
:103230000C4CDA780C480D4902F0CB024025DA70CC
:103240005D74DA7842F03402DA7023780268DBB217
:103250000B700AB10023137030BC704734800440F7
:1032600000A006408117FF1F7C17FF1F8017FF1F5C
:103270002DE9F041504A137913F0300F44D072B663
:10328000937D03F0FF01002B57D062B6DFF8588121
:103290004A4B4B4D98F800004A4C1B782F68D4F8E5
:1032A00000C0DFF848E11546C0B2DEB20CE096423D
:1032B000A0F13F0404D03F2A7CD90CF8043010461A
:1032C0004A1E12F0FF010DD0EB79421CBA42DBB26C
:1032D000EDD3002EF4D000204A1E12F0FF010EF8AC
:1032E0000030F1D1384B1A68C3B288F800305AB1B7
:1032F0003649B04238BFBB1B09682CBF831B1B1863
:103300008B4224BF012313702B48C178C9B20D062C
:1033100018D44A060FD5284B1B795B060BD52C4BCE
:103320002C491B6800220A7003B11A70224B3C2200
:10333000DA70BDE8F081BDE8F0814023D1795374A3
:1033400062B6E1E703791C06E3D5234BDFF8A0E082
:103350001D789EF80030EDB2DBB29D421ED01F4CAE
:103360001F4A2668D2F800C01E4F0DE03F2C02799C
:103370001ED91CF803202346D2B2D2B2C271027DFC
:10338000072A0BD89D4209D05C1CA642A3F13F033B
:10339000ECD803790023FA5CD2B2EEE7DBB2064A3E
:1033A0008EF800301379180644BF7C23D370B0E741
:1033B0002346F0E710468FE700A006408117FF1F65
:1033C000F80AFF1F1018FF1F7C17FF1F000BFF1FBD
:1033D0001418FF1F0C18FF1F1818FF1F040BFF1FE6
:1033E000C817FF1F8417FF1F8017FF1FCC17FF1F71
:1033F0000D18FF1F084B1860084B50B101F1400237
:103400001A60074A074B01F11A0028311060196051
:10341000704740221A60F4E71018FF1FF80AFF1FD8
:10342000FC0AFF1F000BFF1F044B1860044B10B178
:1034300040311960704740221A607047C817FF1F5B
:10344000040BFF1F2A4A2B491368F0B443F40063AE
:1034500013600A78284F294E294D2A4C2A49002307
:10346000092A3B7033702B7023700B703AD03B2AC3
:103470001ED0264B1B780A2B22D03A2B2DD01F288A
:1034800024D8002002460126214B224D1A70224CDE
:103490005E7004219872022288273C264020997091
:1034A000DA7459751F74DE7028702260F0BC7047A2
:1034B0001A4B40F213321A60144B1B780A2BDCD1E2
:1034C000174B4FF451721F281A60DAD9C0F34432F7
:1034D000C0F3471600F01F00D6E7124B4FF45172AD
:1034E0001A60CCE7104B40F213321A60C1E700BFFC
:1034F00034800440100BFF1F9018FF1F2118FF1F7E
:103500009C18FF1F9118FF1F2018FF1F1C0BFF1F87
:1035100000B0064021E400E004E100E004D00440F3
:1035200010B0044000D004400CB00440284B28499F
:103530009B7803F0EC0200F003031343420700F012
:103540000F0248BF43F01003042A8B7038D0204B81
:103550001F4A5B79C10603F0EF0348BF43F0100335
:1035600053719379820603F0EF03194A48BF43F081
:1035700010039371C30506D553781178DBB241F07F
:1035800020011170537010F4007005D1114B124AD4
:103590001968914219D0704730B40D490F4D8A789F
:1035A0000F4B0C480C4C42F0A0028A702A78046041
:1035B00003EBC20340F247325B6830BC1A607047CD
:1035C0008B7943F040038B71C1E71860704700BFEF
:1035D00000B006409818FF1FD400D6421C0BFF1FF6
:1035E00018B90000214B1B681B053ED510B5204CB7
:1035F000237823B101F0F4FD2378002BFAD11D4884
:103600001D491E4B022400220460CA701B78092B3E
:103610001CD03B2B01D11A4B1A601A4B1B7803F0BC
:103620007F030A2B1CD03A2B02D1174B00221A60C1
:10363000164A114B1648174912681C79DB7900238A
:1036400003700B700AB10123137010BD124B40F2CE
:1036500003121A600B4B1B7803F07F030A2BE2D195
:103660000E4B40F203121A60E2E7704734800440C8
:103670002018FF1F84E100E000B00640100BFF1F80
:1036800004D004401C0BFF1F00D004401C18FF1F77
:103690009018FF1F2118FF1F0CB0044010B0044009
:1036A0000A4A38B50546137803F0FF04002BFAD117
:1036B00001212846FFF7C0F821462846FFF7B6F853
:1036C000034A044B52F835201A6038BD2018FF1FFA
:1036D00018B900009818FF1F09B140F08000174A80
:1036E0001378984217D010B4154C246824050FD5D0
:1036F00003F07F030A2B1DD03A2B12D0002900F0D3
:103700007F0114BF602344230A290ED03A2903D035
:1037100010705DF8044B70470A4943F440730B6026
:10372000F6E7084B00241C60E8E7074943F44073C0
:103730000B60EDE7044B00241C60DFE71C0BFF1F50
:103740003480044000D0044010B00440124B1A787A
:1037500082420CD011490968090507D5092A16D0FB
:103760003B2A0AD009280DD03B2801D01870704799
:103770000B4A40F213311160F8E7094A0021092889
:103780001160F1D1074A40F213311160EEE7054AAA
:1037900000211160E6E700BF100BFF1F34800440DA
:1037A00004D004400CB004400D4B1B6813F40063BC
:1037B00005D03F2805D90B4B0020186070471846EC
:1037C0007047094B10B5074C53F830302360012186
:1037D000FFF732F8236800221A70012010BD00BFE5
:1037E000348004401C18FF1F18B900000F4B1B68E1
:1037F00013F4006308D0172808D03C2811D00C4AD5
:10380000537B03F0FE03537300207047094B40F2D3
:1038100002321A60064A537B43F0010353730120BE
:103820007047054B40F202321A60F3E734800440DF
:1038300000B0064008B0044008D004402DE9F84F1D
:103840002E4B1B681A0546D52D4B1B680BB1012268
:103850001A70DFF8C490DFF8C48099F80040D8F8F7
:103860000030284D284E01349C422ABF4FF0000AF8
:103870005FFA84FA54460746AB462B789C4219D12E
:10388000FEF70CFF402828DC33791B06F5D59BF8A2
:103890000030D8F80010DBB25A1C8A4222D3002133
:1038A0000A461A4B9B5CDBB2DBB2F37129702B78B2
:1038B0009C42E5D0272C8ABF154B144B1B68154939
:1038C00088BF283CFFB21F550F4B0120BC22087057
:1038D00089F800A0DA70BDE8F88FFF28CDDD01F08F
:1038E0007FFCCAE7272A06D90949273B0968CB5C30
:1038F000D1B2DBB2D8E7D1B2D3E700BF3480044005
:103900009818FF1F9118FF1F00B006402418FF1FD2
:103910004C18FF1F2018FF1F9C18FF1F180BFF1FBC
:103920003E4B1B681A0575D52DE9F04F3C4B1B68C3
:1039300083B00BB101221A7043189842019363D2ED
:10394000DFF8F080DFF8F090364CDFF8F0B0364F5B
:10395000451C18E0227892455FFA8AF629D0BAF120
:10396000270F1ED9DBF8002015F8011CAAF1280347
:10397000D1542A462D4901230B701D44019B88F820
:1039800000609A4240D298F80030D9F8002003F144
:10399000010A9245DED3237803F0FF0643B10026E7
:1039A000B246234B15F8012C03F80A202A46E1E71A
:1039B000B246BC22FA7005E03A7913060BD422789D
:1039C0005245CCD1FEF76AFE4028F5DDFF28F6DD32
:1039D00001F006FCF3E72278D9F80010D2B2501CAF
:1039E00088420BD2272816D9DBF80010273A8A5CC8
:1039F000C1B2D2B2D2B2FA712170E0E7002108461A
:103A00000B4B1A5CD2B2F5E7074BBC22DA7003B05D
:103A1000BDE8F08F7047C1B2F2E700BF34800440C8
:103A20009818FF1F9118FF1F00B006402018FF1FB5
:103A30002418FF1F9C18FF1F180BFF1F4C18FF1F97
:103A400010B5044C237823B101F0CAFB2378002B76
:103A5000FAD110BD2018FF1F084B094A1B781078B7
:103A6000DBB2C0B2834202D20138C01A7047054AA5
:103A70001268013A1044C01A704700BF9C18FF1F1B
:103A80009118FF1F180BFF1F064A074B10781B7871
:103A9000C0B2DBB2984202D2044A12681044C01A83
:103AA000704700BF9018FF1F2118FF1F0C0BFF1F4E
:103AB00070B4184B184D1B782A78D9B2D2B2914203
:103AC00022D0164B1C68531CA34214D30022134669
:103AD0001348C05CC0B2134E2A7032684AB1994292
:103AE00038BF0919CB1A104909688B4201D8002345
:103AF000137070BC70473F2B09D90C483F3A0068DF
:103B0000805CDAB2C0B2E6E74FF0FF30F1E7DAB23C
:103B1000DEE700BF9018FF1F2118FF1F0C0BFF1FCF
:103B20005018FF1F1C18FF1F200BFF1F9418FF1FAA
:103B30000D4A0E4B12781B78DBB29A4211D00C4A18
:103B400011685A1C8A4204D300220A4B985CC0B206
:103B500070473F2AF9D9084A3F3B1268D05CC0B28F
:103B600070474FF0FF3070479018FF1F2118FF1F5C
:103B70000C0BFF1F5018FF1F9418FF1F0D4B1B68E5
:103B80001B0516D530B40C4B0C4CDA780C480D499B
:103B900002F0CB024025DA705D74DA7842F034022C
:103BA000DA7023780268DBB20B700AB1002313705D
:103BB00030BC70473480044000B006402118FF1F1D
:103BC0001C18FF1F9018FF1F2DE9F041504A137970
:103BD00013F0300F44D072B6937D03F0FF01002B39
:103BE00057D062B6DFF858814A4B4B4D98F8000029
:103BF0004A4C1B782F68D4F800C0DFF848E115461E
:103C0000C0B2DEB20CE09642A0F13F0404D03F2ADD
:103C10007CD90CF8043010464A1E12F0FF010DD07A
:103C2000EB79421CBA42DBB2EDD3002EF4D0002077
:103C30004A1E12F0FF010EF80030F1D1384B1A681D
:103C4000C3B288F800305AB13649B04238BFBB1B06
:103C500009682CBF831B1B188B4224BF01231370E0
:103C60002B48C178C9B20D0618D44A060FD5284B87
:103C70001B795B060BD52C4B2C491B6800220A7064
:103C800003B11A70224B3C22DA70BDE8F081BDE826
:103C9000F0814023D179537462B6E1E703791C06C1
:103CA000E3D5234BDFF8A0E01D789EF80030EDB29D
:103CB000DBB29D421ED01F4C1F4A2668D2F800C0BE
:103CC0001E4F0DE0272C02791ED91CF80320234635
:103CD000D2B2D2B2C271027D072A0BD89D4209D05E
:103CE0005C1CA642A3F12703ECD803790023FA5CFD
:103CF000D2B2EEE7DBB2064A8EF80030137918062E
:103D000044BF7C23D370B0E72346F0E710468FE72B
:103D100000B006402118FF1F0C0BFF1F9418FF1F57
:103D20001C18FF1F140BFF1F9818FF1F2018FF1FE0
:103D30009C18FF1F180BFF1F4C18FF1F2418FF1F94
:103D40009018FF1F5018FF1F9118FF1F084B186095
:103D5000084B50B101F140021A60074A074B01F1CC
:103D60001A00283110601960704740221A60F4E789
:103D70009418FF1F0C0BFF1F200BFF1F140BFF1FBE
:103D8000044B1860044B10B1283119607047282289
:103D90001A6070474C18FF1F180BFF1F431E032BA0
:103DA00014D872B60A4951F8230068B170B4094CAE
:103DB000058834F81320466841F82360521B24F824
:103DC000132062B670BC704762B67047002070471F
:103DD000F818FF1F001AFF1F013803280BD872B60E
:103DE000074B53F8203043B100205B680130002BB3
:103DF000FBD162B67047002070471846F9E700BF54
:103E00004C19FF1FF0B472B61A491B4E012311F86A
:103E1000014B194F9A00240742F0010505D556F8C9
:103E2000324064B156F83520BAB10133052BEED1DA
:103E300062B6124B00221A70F0BC00F023BD0F4C8A
:103E40000F4D217807EB431308300139586021707A
:103E500047F8325062B6F0BC7047084A09491378F7
:103E600007EBC5040830013B6060137047F835105C
:103E700062B6F0E714BC00000000FF1F7519FF1FB9
:103E800088004000C8004000431E032B1DD81B4A79
:103E9000400140F0100030B4104472B6184CE25C9F
:103EA000032A1BD8DFE802F00212151703220D883F
:103EB000E25410F0080F14BFC823882343EA0543D7
:103EC00008314160036062B630BC7047083002229E
:103ED000EDE70522EBE708300422E8E7094A52F84B
:103EE000230038B1084A52F82300416042F82310F9
:103EF00062B6E9E742F82310034AF7E70000FF1F24
:103F00008419FF1F4C19FF1F5C19FF1F2DE9F04F8B
:103F1000DFF814B3DFF814A387B044E0AD4F4FEAE5
:103F2000930807EBC809013ED9F8042003F0080301
:103F3000F6B2A2F1080003F0FF04002B40F0038169
:103F400057F838301B0C99B222F8081C002B00F0EF
:103F5000F180A14B22F8064C42F8044C53F826207D
:103F6000002A00F06C819D4D55F8263058609C4C1D
:103F700045F8260034F81630194424F8161000F0DD
:103F800061FC002800F05481964A974B19F0080F05
:103F900000F1080018BF1346C9F8040047F838308C
:103FA00008238BF800309BF80040E4B260071BD573
:103FB0008E4B1B78ABB18E490A7802F0FF032AB111
:103FC000013BDBB20B70002B00F0B58389490A7806
:103FD00002F0FF032AB1013BDBB20B70002B00F0B3
:103FE000F68004238BF8003004F0080303F0FF028E
:103FF000002B00F0D5809AF80030DBB21E098DD17D
:104000009C08744F57F8342007EBC401C2F38302B5
:10401000013A49680C2A7ED8DFE802F081817D7D73
:104020007D7D7D7D427D7D7D07000868724B734DEF
:1040300001936C4B4A68724E47F8343081B240F2BB
:1040400081646D4B6A60286000220120A1423A61C0
:104050001A60BA61307000F2F680B1F5D06F80F06E
:10406000E882B1F5817F00F0D38200F2D881802907
:1040700000F04D81822940F09282A988614B01F0C5
:104080007F01042900F28C825F4C89000B4422706E
:1040900062701A78930740F13883207002203AE169
:1040A000554B01931A6862B3584B5949544E1888BE
:1040B0000C7896F800E04028054684F0010C28BFF3
:1040C000402544F00204BEF1000F81F800C0A0EBCF
:1040D000050007EBC40C0CBF8821C82180B28EF00C
:1040E000010E41EA0541CCF80420188086F800E072
:1040F0002A4447F8341010B9402D18BF0022019B04
:104100001A603E4B1A88B2F5A06F04D100219A784C
:104110005970404B1A70404A0123137040E7374AE8
:10412000158842F22100854200F052812D4A47F85D
:104130003420F0E72B4A2C4B19F0080F18BF134618
:1041400047F838302CE700F09DFB344A344952F8E8
:104150002630002B00F02D8158688C5D42F8260037
:1041600003F10802C9F80420032C05D8DFE804F0A5
:10417000120F150204228A551A8819F0080F0CBF75
:104180008823C82343EA024347F8383008E702226D
:104190008A55F1E703228A55EEE705228A55EBE7B7
:1041A000E00700F17881210600F1A281A20706D57F
:1041B0001C4A1D4913780220DBB213700870E30615
:1041C00002D5194B10221A7007B0BDE8F08F00F02D
:1041D000C5FC06E70000FF1FF818FF1FA418FF1F0B
:1041E000001AFF1FC8004000880040008019FF1F10
:1041F0000919FF1F8819FF1FA018FF1F6C19FF1F47
:104200000819FF1FC02007407819FF1FB418FF1FAF
:104210007419FF1F98200740942007404C19FF1F76
:104220008419FF1F88200740802007409020074006
:10423000B74A47F83800137801331370B0E643F8F3
:104240002600B44D93E642F22104A14200F0AD8075
:1042500000F20E81B1F5086F00F05481B1F5106FD6
:1042600040F09D81AC4AA9781170AC4D042402E065
:104270000134142C0CD057F834301906F8D505EB5E
:10428000C40301345868083800F0FCFA142CF2D149
:10429000A349A44BA44A0291A449A54C9D4D039463
:1042A00005964FF0000988461C461646049520687E
:1042B00028B1456800F0E6FA2846002DF9D1002320
:1042C0002360049B30681A46002342F8293028B145
:1042D000456800F0D7FA2846002DF9D10022326057
:1042E000029A98F800301146002241F8042B039AF4
:1042F0000291023B4FF0000122F81910032B00F24B
:10430000B481DFE813F0E201AE01E201AE01894CB5
:10431000022022706270EA88824280F00D82864913
:104320000D78402A45F0020E944607EBCE0028BFD8
:104330004FF0400C04EB0C0344600293CCEB020002
:104340004FEA0C484FF001090022C82444EA080350
:1043500085F0010447F83E3032700C70DFF8BCE1A4
:10436000764BDFF8D481002840F02081BCF1400F6B
:104370001BD144F0020407EBC403029FDFF89CE169
:104380005F60002A40F02781020442F0880286F82C
:1043900000900D7007444EF834203B46402804D16D
:1043A0000020674A019910800B60664A0123137050
:1043B000B1E68B5D032B00F2248101A252F823F0B9
:1043C000A13F0000A13F0000E5440000EB440000D5
:1043D000928862B95C4ACD1D11F8013B02F8013F99
:1043E0008D42F9D1594A1268862A00F0C980524993
:1043F000524E0878327840F0020580F001000870D3
:1044000007EBC501002A4FF00000486082F001026E
:104410000CBF8821C82147F83510327086E640F27B
:104420000232914240F0B080A98801F07F01042956
:1044300000F2B5806A88002A40F0B180444C8900BF
:104440000C448146217841F0020121700020029045
:1044500080468446044638490D7845F0020E07EB45
:10446000CE03B9F1000F5C600CBF8824C8246DE74F
:1044700042F22124A14240F08E80A988002940F018
:104480004281344B344A354C1B68AD781360814609
:104490000A462570DAE72B49204B3148264EDFF8D3
:1044A000B0C0304DDFF8D4E02F4F02240C702F4CF9
:1044B00018605C6098602E48D8601A619A610D237C
:1044C00032702C4C8CF800302B4EFF232B700120C7
:1044D0009F258EF800303A7033702570087007B051
:1044E000BDE8F08F00238B555AE501238B5557E526
:1044F0001749224B80220D2008701A70A2077FF501
:104500005EAE55E6044A0B4C1278227003E700BFFA
:104510007519FF1FA418FF1F8019FF1F0000FF1F40
:104520005C19FF1FF818FF1F4C19FF1F8419FF1F8C
:10453000001AFF1F7819FF1F7419FF1F0819FF1FAA
:10454000B418FF1F94200740071AFF1F081AFF1F07
:10455000C02007407817FF1F101AFF1F9819FF1F70
:10456000880040008820074098200740B818FF1FA7
:104570000C19FF1F842007408C2007408020074033
:10458000754A0F21117032E7B1F5A06F07D10022F3
:104590004FF001095AE742F221329142F7D06F4BB6
:1045A0000F221A706E4A01231370B4E540287FF67B
:1045B000E0AE44F002040EEBC401029E4E60AAB1CC
:1045C00083F80090674A88F80050334640384033FB
:1045D0004EF83420E5E6029B86F80090020442F093
:1045E000C8020D7003444EF83420D7E683F80090DB
:1045F000029B5D4A88F80050403840334EF8342022
:10460000CFE619F0080F0CBF022303238B55C7E434
:10461000A98801F07F010429C1D86A88002ABED187
:104620004E4C89000C448146217821F00201217012
:104630000CE74E4A5468002CB1D06888B5F804E005
:1046400003E00C325468002CA9D013888342F8D1BF
:1046500053887345F5D1000A03280CBF20781089D0
:1046600059E64FF0010388F8003009F10109B9F16A
:10467000040F04F1040406F1040608F101087FF4B4
:1046800016AE3B4B059E3B4DDFF8F08000201870C6
:104690004FF0010918F8013B05F8043B1A0719D43B
:1046A0004FEA890444F0020244F00304002347F86F
:1046B000323047F83430304B9D4209F10109E9D1DD
:1046C00096F8009089F00102C0E64FF0000388F8E8
:1046D0000030CAE700F0B6F818B307EB49134FEA09
:1046E000890408305860204B47F8343000F0AAF8AD
:1046F00068B144F0010307EBC30208305060194A67
:1047000047F83320CEE78146A0E6022003E6184BA7
:1047100044F001021B7847F83200154A0133137048
:10472000C0E7134B124A1B784FEA8904013347F85C
:1047300034001370DAE700BE4028844628BF4FF0EB
:10474000400C04EB0C03CCEB00004FEA0C48029346
:1047500000224FF001097EE60919FF1FC020074023
:1047600094200740C80040008800400018BC0000AA
:104770007519FF1FC4200740D420074014BC000057
:10478000F8B500F039FE002324491A4601EBC300B6
:1047900041F833200133142B42604FF000041F48CE
:1047A000F4D11F491F4A0B68DFF890C01E4E1F4FFF
:1047B0001F4DDFF88CE043F480230B60136843F057
:1047C0004073136003238CF8003001F52831A023D7
:1047D00033707C3102F5C922C0F307233B701032DD
:1047E000C0F307430B70000EFF2328708EF80030D3
:1047F000104D0CF8BC3C10481370012306F8AC3C7B
:1048000081F8504070264FF40014102107F8183C2E
:104810002E70046082F8F810F8BD00BF0000FF1F82
:104820003480044000D80040402107409C200740CD
:10483000B420074035E400E004E100E044210740F3
:104840008020074072B60D480268B2FA82F30B2B43
:1048500010DC4FF00041D94022EA0102026062B64A
:10486000074803EBC303DB00C2180021C150104608
:104870005160704762B60020704700BF240BFF1FD5
:10488000D003FF1F0D4B0E4AC31AA2FB03231B09C3
:104890000B2B0CD80B4A127852B972B60A484FF05B
:1048A0000041026821FA03F31A43026062B67047BE
:1048B000064A1278002AF0D0FFF7A4BAD003FF1FEF
:1048C000398EE3387519FF1F240BFF1F8019FF1F56
:1048D00038B50F4D286878B143880288C118013374
:1048E00093420C7A02D24380204638BDFFF7CAFFBC
:1048F000002320462B6038BD064B1B782BB10320CC
:10490000FFF74CFA28600028E6D14FF0FF3038BDA1
:104910009419FF1F8019FF1F10B5094C206818B1AA
:1049200043881844007A10BD064B1B782BB1032036
:10493000FFF734FA20600028F2D14FF0FF3010BDAD
:104940009419FF1F8019FF1F044B054A1B689088AC
:104950001BB11A885B88D31A184470479419FF1F3B
:10496000001AFF1F0B4B1B789BB110B50A4C206837
:1049700048B1FFF787FF002303202360FFF70EFAFB
:1049800030B1FFF77FFF0320FFF708FA0028F8D1C6
:1049900010BD70478019FF1F9419FF1F2DE9F04FBC
:1049A000DFF8F89083B0012289F80020019169B303
:1049B000DFF8EC80354F019E8346D8F80000B0B395
:1049C000334D4488C4F14001B14228BF314604EB65
:1049D000010E00221FFA8EFE2A70761AA0F802E05D
:1049E00000F1080251B1013C224459441BF8014B2B
:1049F00002F8014F8B45F9D1B0F802E0BEF13F0F4C
:104A00000BD8244A05211170002ED6D1019800231D
:104A100089F8003003B0BDE8F08F402202800146E3
:104A20000420FFF731FA0022C8F80020E9E73A78BD
:104A300022B3194C164D4FF0010A07E0013C16D085
:104A40002A78A2B900F0CCFB3A78BAB10420FFF77B
:104A5000C3F90728F2D889F800A0FFF7F3FEC8F8D9
:104A600000000028ADD10D4B013C1870E8D10123A6
:104A70004FF0FF302B7003B0BDE8F08F00234FF0F4
:104A8000FF3089F8003003B0BDE8F08F8019FF1FB8
:104A90009019FF1F8819FF1F214801008919FF1F66
:104AA0008C19FF1F00B583B002AB012103F8010D83
:104AB0001846FFF773FF03B05DF804FB38B50E4DE1
:104AC0000E4C28680123237028B1408800232370EE
:104AD000C0F1400038BD0A4B1B7813B9002020708C
:104AE00038BD0420FFF778F90728F7D8FFF7AAFEAA
:104AF00028600028E9D1F1E78C19FF1F8919FF1FF1
:104B00008019FF1FF8B5114B1B788BB1104E114D5A
:104B1000346801272F7064B10F4A6388002717702B
:104B2000214623800420FFF7AFF9376000232B7064
:104B3000F8BDFFF787FE084B28B1014604201C7022
:104B4000FFF7A2F9F2E71F70F0E700BF8019FF1F1F
:104B50008C19FF1F8919FF1F8819FF1F38B50E4BCD
:104B60001B7873B90D4C216861B103F0FF054B88C8
:104B70000B800420FFF788F9256038BD084B01221F
:104B80001A7038BDFFF75EFE0028F7D00146BDE879
:104B900038400420FFF778B98919FF1F8C19FF1FCF
:104BA0008819FF1F70B5EFF3108272B60C4C2068A5
:104BB00080B10C4E00254369236073B19D6102B939
:104BC00062B6457783689847EFF3108272B6206823
:104BD0000028F0D102B962B670BD3360EFE700BFC4
:104BE0009C19FF1FA019FF1FFFF7DCBF024A1368C3
:104BF00001331360704700BF7817FF1F0368C9B205
:104C00001B6818470368C9B21B6818470368C9B214
:104C10001B6818470368C9B21B681847084B4A0845
:104C2000134410B50446B3FBF1F0FDF781FF054BCB
:104C30001B7803B110BD2046BDE8104000F01EBC3B
:104C4000002A7515500BFF1F08B50846FEF7B2F98C
:104C5000012008BD08B50846FEF7ACF9012008BDE3
:104C600038B508460D4603F0ABFB0446014628461E
:104C7000FEF7AAF9204638BD10B50846144611467D
:104C8000FEF7A2F9204610BD08461146FEF7CCBB40
:104C900008461146FEF7AEBBFEF7C4BA08B5084693
:104CA000FEF760F9003018BF012008BD08B50846BE
:104CB000FEF736F9003018BF012008BD084611463E
:104CC000FEF7AAB80846FEF7F1B800BF0846FEF79F
:104CD00087B800BFFEF710B810B5064B144603EBBB
:104CE0005100B0FBF1F0FDF723FF2046BDE8104076
:104CF000FDF7A6BF002A7515FEF76EBAFEF72CBAAF
:104D0000FEF716BAFEF7F0B9FEF7FAB9084B4A08F3
:104D1000134410B50446B3FBF1F0FEF793FB054BCB
:104D20001B7803B110BD2046BDE8104000F0A6BBC3
:104D3000002A7515510BFF1F08B50846FEF77EFDCA
:104D4000012008BD08B50846FEF778FD012008BD22
:104D500038B508460D4603F033FB044601462846A5
:104D6000FEF7DEFD204638BD10B508461446114654
:104D7000FEF7D6FD204610BD08461146FFF700B8E5
:104D800008461146FEF7E2BFFEF7F8BE08B5084632
:104D9000FEF72CFD003018BF012008BD08B50846FD
:104DA000FEF702FD003018BF012008BD084611467D
:104DB000FEF792BC0846FEF7C9BC00BF0846FEF7E6
:104DC0006FBC00BFFEF70EBC10B5064B144603EBDC
:104DD0005100B0FBF1F0FEF735FB2046BDE8104076
:104DE000FEF7A4BB002A7515FEF7A2BEFEF760BE53
:104DF000FEF74ABEFEF724BEFEF72EBE0368064A43
:104E00001B68934205D110B5C8B2FEF717FD01200B
:104E100010BDC9B2184700BF454D00000368064ADF
:104E20001B68934205D110B5C8B2FEF707FD0120FB
:104E300010BDC9B2184700BF454D00000368064ABF
:104E40001B68934205D110B5C8B2FEF7F7FC0120EC
:104E500010BDC9B2184700BF454D00000368064A9F
:104E60001B68934205D110B5C8B2FEF7E7FC0120DC
:104E700010BDC9B2184700BF454D00002DE9F043F1
:104E80008C688BB0ECB10025064689462F462B4630
:104E9000212201A9484600F065F93268202C2346FA
:104EA00028BF2023D2F8048001A91A4630461D44A9
:104EB000E41AC0470744002CE9D138460BB0BDE8DE
:104EC000F0832746F9E700BF30B5044683B00225DA
:104ED0002A4601A80549FDF7C7FA23682A4601A911
:104EE0005B682046984703B030BD00BFE8BB0000B8
:104EF000F0B507468BB0002A33D0012A08BF0A223A
:104F000051B3212400E0F4B2B1FBF2F502FB15111C
:104F1000C8B2092900F1300198BFC8B20AA988BFF8
:104F20003730214488BFC0B201F8240C661E2946E0
:104F3000002DE8D133B1013CE4B20AAB23442D2269
:104F400003F8242C3B6801AA11195B683846C4F1A8
:104F5000220298470BB0F0BD30228DF82520212485
:104F6000E8E70368C9B21B6898470BB0F0BD00BF03
:104F700010B50446006802F091FA204610BD00BF4B
:104F800038B543688B4201D3012038BD0D46044635
:104F90000131006802F00EFE0028F6D0A36884E814
:104FA0002100002BF0D10370EEE700BFF8B50446F6
:104FB000154632B9036803B11A700023A360204676
:104FC000F8BD0E461146FFF7DBFF074648B92068DB
:104FD00010B102F063FA276000236360A3602046EB
:104FE000F8BDA5603146206803F088F9E7E700BF07
:104FF00038B500230446036043608360037341B106
:1050000008460D4603F0DCF9294602462046FFF724
:10501000CDFF204638BD00BF0023884210B50446AE
:10502000036043608360037303D08A680968FFF7F5
:10503000BDFF204610BD00BF38B5054608460C46EA
:1050400003F0BEF9214602462846BDE83840FFF786
:10505000ADBF00BF814211D038B5054600680C468F
:1050600008B102F01BFA23686168A2682B60002374
:105070006960AA6023606360A36038BD704700BFA9
:10508000884210B5044601D0FFF7E4FF204610BD6A
:1050900010B5044619B1FFF7CFFF204610BDA1603F
:1050A000204610BD2DE9F84303680F46BB42044675
:1050B000816815460AD85A18974207D2C3EB0709E8
:1050C0004FF0010835B92046BDE8F8834FF00008DD
:1050D000002DF8D04E1931462046FFF751FF002829
:1050E000F1D0B8F1000F0ED02368A0682A4603EB78
:1050F00009011844FDF7B8F9236800229A55A66003
:105100002046BDE8F8832068A3683946184403F0B8
:10511000F5F8F4E78A680968FFF7C4BF38B50546B3
:1051200041B108460C4603F04BF921460246284699
:10513000FFF7B8FF284638BD826808B50B462AB984
:1051400071B11878B0FA80F0400908BD31B100683B
:1051500002F06AFFB0FA80F0400908BD0368F0E78A
:10516000012008BDB2B1A9B138B584689C420ED9FE
:10517000E41A013A0D469442016828BF14461944C6
:105180002246284603F08AF900232B5538BD002318
:105190000B7038BD704700BF08B5FBF79DFBFBF7F0
:1051A0004DFA00F01DF8FAE702F070B902F076B996
:1051B000704700BF704700BFFFF7D4BBFFF7ACBB21
:1051C000FFF786BBFFF7C0BBFFF79CBCFFF776BCC1
:1051D00008461146FFF7E2BB0846FFF763BC00BF75
:1051E0002DE9F843314E337893B1314F3A787AB99B
:1051F0000122D9073A7036D49A0719D400225B07E6
:105200003A7005D52B4B1A6812B1EFF305820AB13B
:10521000BDE8F883EFF3108172B6186818B1264C18
:105220002278002A2ED00029F2D162B6BDE8F88398
:10523000DFF8908098F80020002ADFD0DFF888900F
:10524000002405E0013498F80030E4B2A34212D9FA
:1052500059F824502B6828461B6998470028F1D03C
:105260002B699847EEE7FFF76FFBC8B9134B1B7824
:105270001BB93378C0E73378C0E7337803F0FE0317
:105280003370B9E745691D60012323705DB1AA61E0
:1052900001B962B600254577836898472570B7E75E
:1052A00000F014F9E2E7064B1D60F1E7640BFF1F05
:1052B000AD19FF1FA819FF1FAC19FF1F0A0CFF1F14
:1052C000A419FF1FC819FF1FB019FF1F30B42948C8
:1052D000294A2A4B2A4D6024E121047011701B7861
:1052E000284C082B30D00A2B2748284937D00C2BC4
:1052F0000CBF35225D2212232A60236002600B60FE
:10530000234B24491B78244ABBB101230B60136053
:10531000224B23491B78234A012B26D9042B0FD972
:10532000082B1ED9102B94BF862387230B60136094
:105330001D4B01221A7030BC70470B601360E7E709
:1053400084230B601360F3E700F58E200F490830CB
:10535000212213232A60236002600B60D0E73922E8
:10536000F7E785230B601360E2E780230B6013608F
:10537000DEE700BF0040074001400740650BFF1F0C
:1053800008B003400CB0034008B00B400CB00B4019
:10539000AF19FF1F20B0034020B00B40660BFF1F6A
:1053A00024B0034024B00B40AE19FF1FF0B44D1ED3
:1053B0002E46002400E00134B0FBF2F302FB1300A0
:1053C000092800F130078ABF3730F8B2C0B206F8BA
:1053D000010F1846002BEED10A1953704CB110780A
:1053E00015F8016F28700133E01A834202F8016951
:1053F000F5DB0846F0BC704710B584B072B6FDF717
:105400006BF9184A184B19491160702280211A70E3
:105410001A46197013781B06FCD5154B1C68FDF74E
:1054200075F962B6134B9C429CBF04EB8404640084
:105430002046114C01A90A22FFF7B8FF01A9204616
:10544000002311F8012B01333AB10A2B20F8022F67
:10545000F7D11623237004B010BD5B00DBB22370BC
:1054600004B010BD040002400000024000000741EB
:105470000C0002407F969800F40BFF1F70B4104E92
:10548000104C3578D5B12368984215D0691EC9B241
:1054900004EB8101234603E053F8042F82420BD032
:1054A0008B42F9D16A1CD2B2074944F825000B7827
:1054B000327043F002030B7070BC70470122F3E7B7
:1054C000C819FF1FB019FF1F640BFF1F704700BFF3
:1054D0002DE9F04F2DED028BDFF824A38BB057ECB4
:1054E000106B55EC114B00F08FF99AF90080B0EE7B
:1054F000408AF0EE608AB8F1FF3F48D022462B4642
:105500002046294601F074FD834600283FD13246EB
:105510003B463046394601F06BFD8146002840F09D
:105520009080304639460022002301F02FFD0028EC
:1055300036D0002200232046294601F027FD83466D
:10554000B8B19FEDA57B0122A94BCDF82090009228
:10555000CDE90267CDE904458DED067B0193B8F1F5
:10556000000F5BD09FED9E0B0BB0BDEC028BBDE836
:10557000F08F45EC104B00F0A7FF40B10022002354
:105580002046294601F00CFD002840F0C580B0EE11
:10559000480AF0EE680A0BB0BDEC028BBDE8F08F54
:1055A000B0EE480AF0EE680A00F08EFF8046002850
:1055B00061D04FF000084FF0000951EC180B424643
:1055C0004B4601F0E3FC0028E1D047EC106B00F003
:1055D0007BFF0028DBD045EC104B00F075FF002866
:1055E000D5D09AF90030824A019204210022022B80
:1055F000CDE90267CDE90445CDE90689009108921D
:1056000003D0684600F068FF70B901F011FF222353
:10561000036009E09FED707B8DED067B684600F02E
:105620005BFF002800F08E80089B1BB101F000FF9B
:10563000089B03609DED060B0BB0BDEC028BBDE833
:10564000F08F002200232046294601F09FFC00280D
:105650009DD09FED630B664BCDF820B00122B8F1D1
:10566000020FCDE90267CDE904458DED060B8DE80B
:105670000C00D3D18FE747EC106B00F025FF00281A
:1056800097D045EC104B00F01FFF002891D053EC51
:10569000182B18EE100A194601F0AAFC00287CD13C
:1056A00003239AF900800093514B0890CDE90267DB
:1056B000CDE904450193B8F1000F48D1DFF84491DA
:1056C0004FF060480022002330463946CDE9068974
:1056D00001F066FC002894D00022464B2046294663
:1056E00001F0ECF904460D4645EC104B00F000FFCC
:1056F000204653EC102B294601F048FC002849D1E4
:105700003D4B9AF900804FF06042CDE90623B8F195
:10571000020F7FF476AF78E7354A9AF90030CDF87A
:1057200020B00121CDE90267CDE904458DE80600EE
:10573000002B3FF46FAF31490020022BCDE9060169
:105740007FF46CAF01F074FE212303606CE79FEDE2
:10575000267B00220023304639468DED067B01F082
:105760001FFC0028D3D00022224B2046294601F0FE
:10577000A5F904460D4645EC104B00F0B9FE204655
:1057800053EC102B294601F001FC18B91B4B0022E9
:10579000CDE906239AF90080B9E7154B9AF90090F4
:1057A000CDF820800122CDE90267CDE904458DE8DE
:1057B0000C00B9F1000F3FF42DAF0022002310467A
:1057C000194601F0A5FAB9F1020FCDE90601B9D0E9
:1057D00024E700BFAFF300800000000000000000DD
:1057E000000000000000F03F000000000000F07F1B
:1057F0006CBC00000000E03FFFFFEFC70000F0FFBF
:105800000B0CFF1FFFFFEF472DE9F04F51EC110B81
:1058100021F0004858EA000493B03CD053EC102B20
:105820006D4E23F00044B44210EE10AA1D462BDC4E
:10583000894611EE10EA26D0B04525DC664EB0450B
:1058400077D0002D16461F46CDE9000175DB4FF0DD
:10585000000BBEF1000F2DD15F4B984500F0898001
:105860005E4B98455ED0B9F1804F00F0DE835C4B13
:1058700099451FD1002D1DDB47EC106B13B0BDE81F
:10588000F04F00F049BD5AB104F1404404F58014D2
:1058900054EA0A0306D19FED4A0B13B0BDE8F08F1E
:1058A000A045CBDD4F4813B0BDE8F04F00F018BE67
:1058B0004FF0000B47EC106B00F0FEFD51EC100BAD
:1058C000BAF1000F1ED0ED0F05F1FF3A5BEA0A03B3
:1058D00063D0454B984540F38D8003F104739845A0
:1058E00040F33884414B9C4262DDB9F1000F62DD28
:1058F00035A3D3E900231046194601F0DFF841EC47
:10590000100BCAE724B1354B25F040429A42DAD158
:10591000B9F1000FC0F2CB83002DC0F2748341ECCB
:10592000100BBAE7B9F1000FC0F27A8447EC106BA4
:10593000B3E7BEF1000F84D0A6E72D4B984529DCD4
:10594000A3F15473984582DD4FEA2853A3F2FF3345
:10595000142B40F37F84C3F134032EFA03F202FACE
:1059600003F39E457FF473AF02F00102C2F1020B14
:105970006FE704F1404303F5801353EA0A038AD02A
:105980001A4B9C4240F38583B9F1000F13DB9DED68
:10599000000B82E74FF0020B5BE732463B461046B6
:1059A000194600F0D7FE02460B4601F0B1F9B6E702
:1059B000B9F1000F9CDB9FED060B6EE7AFF30080A3
:1059C000000000000000F03F9C7500883CE4377E3A
:1059D00000000000000000000000F07F0000F03F29
:1059E0000000E03FC0BC00000000E041FFFFEF3FCF
:1059F000FFFF3F43B4F5801F4FF0000205DAD64B9E
:105A000001F05CF86FF034020C462315D34EC4F35A
:105A10001304A3F2FF33134444F07F55B4421A46F3
:105A20000D9345F4401540F34983CD4B9C4240F320
:105A30002D849FEDB37B8DED087B8DED0E7B9FED6F
:105A4000B27B13468DED067B01330D93A5F58015D2
:105A50004FF00008DDE906232946CDE90A0100F0F0
:105A600079FEDDE9062306460F46DDE90A0100F06E
:105A700073FE02460B460020BA4901F049F903467D
:105A80000C46CDE9103402460B463046394601F04B
:105A900015F86B1043F0005303F5002303EB0805E2
:105AA0000A4600230146CDE902120293DDE902898C
:105AB0000024CDE904122B4622464046494600F018
:105AC000FDFF02460B463046394600F043FEDDE955
:105AD000062306460F462046294600F03BFE0246B6
