:1000000000000320D1010000A58D00005D8D0000DF
:100010005D8D00005D8D00005D8D00005D8D000038
:100020005D8D00005D8D00005D8D0000A58D0000E0
:10003000A58D00005D8D0000D9A00000DDA00000AE
:10004000A58D0000A58D0000A58D0000A58D0000E8
:10005000A58D0000A58D0000A58D0000A58D0000D8
:10006000A58D0000A58D0000A58D0000A58D0000C8
:10007000A58D0000A58D0000A58D0000A58D0000B8
:10008000A58D0000A58D0000A58D0000A58D0000A8
:10009000A58D0000A58D0000A58D0000A58D000098
:1000A000A58D0000A58D0000A58D0000A58D000088
:1000B000A58D0000A58D0000A58D0000A58D000078
:1000C000A58D0000B1AE0000A58D0000A58D00003B
:1000D000A58D0000A58D0000A58D0000A58D000058
:1000E000A58D0000A58D0000A58D0000A58D000048
:1000F000A58D0000A58D0000A58D0000A58D000038
:10010000A58D0000A58D0000A58D0000A58D000027
:10011000A58D00007D930000A58D0000A58D000039
:10012000A58D0000A58D0000A58D0000A58D000007
:10013000A58D0000A58D0000A58D0000A58D0000F7
:10014000A58D0000A58D0000A58D0000A58D0000E7
:10015000A58D0000A58D0000A58D0000A58D0000D7
:10016000A58D0000A58D0000A58D0000A58D0000C7
:10017000A58D0000A58D0000A58D0000A58D0000B7
:10018000A58D0000A58D0000A58D0000A58D0000A7
:10019000A58D0000A58D0000A58D0000A58D000097
:1001A000A58D0000A58D0000A58D0000A58D000087
:1001B000A58D0000A58D0000A58D0000A58D000077
:1001C000A58D0000A58D0000A58D0000A58D000067
:1001D0005C4B4CF2205210B51A804DF628121A8052
:1001E00000BF00BF08F0E2FD574B4FF030621A60CD
:1001F000564A9A60564ADA60564B4FF470021A60BB
:10020000554B564A1A60564B1A78110703D51A787F
:1002100042F008021A70534B5349AA221A70534AEB
:10022000534B8B4204D252F8040F43F8040BF8E707
:10023000504B514900228B4202D243F8042BFAE77B
:100240004E494F4A002352F8230041F8230001335E
:10025000742BF8D14B4B4C4A802103F8011B93427D
:10026000FBD14A4B454A1A60494B8A221A70A3F5C2
:10027000805324225A70A0221A709A799207FCD5D2
:100280009A79D406FCD4434A937903F00C03082BE3
:10029000FAD1414B60221A7002331A78802AFCD1BD
:1002A0003C4B01221A715D225A719A799006FCD555
:1002B0009979384A4906FBD5384B394919600021EC
:1002C000596020231370937903F00C030C2BFAD19F
:1002D000344B354A1A60354A354C136813F4807331
:1002E00003D123604FF4A8531360324B324A1A6093
:1002F00000225A60072243F8042C304AC3F80C2D20
:1003000062B608F0CBFE2368DA0705D52C4808F062
:100310002FFE2C4B2C4A1A602C4B1B785B0609D500
:10032000284C294B22689A4204D1254808F020FE27
:100330000023236008F040FD0AF022FF0AF0C8F80D
:10034000FEE700BF0E20054030800440823F0400DD
:100350000100002B88ED00E0002008E0030000858C
:1003600002D0074000E007400411FF1F98C80000BA
:100370003007FF1F0411FF1F241AFF1F0002FF1F79
:100380000000000000E400E064E400E008ED00E0AC
:10039000005006400040064001E007404480044011
:1003A0000000060204800440C010070010D0034083
:1003B00014D0034014E000E01FBF02000000202022
:1003C000F1FAAE621CE00340A5C3945A00F0074066
:1003D000FFFFFFFFFFFFFFFFFFFFFFFFFFFFFFFF2D
:1003E000FFFFFFFFFFFFFFFFFFFFFFFFFFFFFFFF1D
:1003F000FFFFFFFFFFFFFFFFFFFFFFFFFFFFFFFF0D
:10040000FFFFFFFFFFFFFFFFFFFFFFFFDEF9FFFF23
:1004100010B5054C237833B9044B13B10448AFF33E
:1004200000800123237010BD0411FF1F0000000095
:1004300094C80000084B10B51BB108490848AFF339
:1004400000800848036803B910BD074B002BFBD0A0
:10045000BDE81040184700BF000000000811FF1F52
:1004600094C800000411FF1F000000000020704726
:10047000704700BF036D0BB101207047406D003025
:1004800018BF0120704700BF10B50446806D18B139
:100490000AF0A6FE0023A365236D2BB104F118001A
:1004A000BDE8104005F0F8BB636D002BF6D110BD20
:1004B000F0B5002395B01A460546183104A84FF44C
:1004C0007A74224F8DF804308DF80C301293139308
:1004D0000294009705F034FC129B002B2BD05C207B
:1004E00009F0FEFF04461A4B9DF80400029A1949D0
:1004F000236000269DF80C302073A160226104A9BE
:10050000237504F11800666005F098FB6368124AD1
:10051000A76001334FF47A71A6652E712E732C619A
:100520006360A9602A600D4B009304A805F0B4FB3A
:10053000284615B0F0BD139B002BD0D1064A2B7175
:10054000AC602B732B612A60EDE700BFE4BD0000B7
:1005500034BE00009CBD000008BE0000C0BD00000D
:10056000036D13B1184603F013BE406D08B101F0DE
:1005700049BC4FF0FF30704700B5836C83B063B166
:10058000184601220DF1070103F032FD01280CD1BC
:100590009DF8070003B05DF804FBC06C28B1012290
:1005A0000DF1070101F05AFBF0E74FF0FF30F1E7E2
:1005B000F0B5036D83B00C462BB318460DF106025F
:1005C00001A903F079FBD8B1BDF80430BDF80620CD
:1005D00003B9AAB102F01F06C3F343155912C2F3BF
:1005E00045177600013D01F5EA6103F01F03D212C1
:1005F00026706571A17123716770A27003B0F0BDA0
:10060000002003B0F0BD406D0028F9D00DF10602C6
:1006100001A901F0B3FAD6E7036D9BB11A7812F085
:10062000700F00D1704710B504460021184603F042
:10063000D1FE606D28B100220023BDE8104001F01A
:10064000F9BB10BD406D0028ECD090F8313013F0AC
:10065000500FE7D00022002301F0ECBB38B5846DC9
:100660000CB1204638BD05464FF480700AF0B0FD4D
:100670000146A86580B1286D0C7028B14FF48072D6
:1006800005F014F9AC6DECE7686D40B14FF4807281
:1006900002F04EFFAC6DE4E7024CAC65E1E70C46BE
:1006A000DFE700BF2011FF1F8A79A2F150031B066C
:1006B00020D4F0B54B79046D0D798E784F78097898
:1006C000013385B002F26C72DBB244B103918DE864
:1006D000E0002046022103F095FF05B0F0BD406D1B
:1006E0000028FAD003918DE8E000022102F05CF9C5
:1006F00005B0F0BD00207047D0B5046D8CB1012B62
:1007000008BF002A01D30020D0BD1146204603F0C7
:1007100061FE0028F7D0204603F0DCFF0028F2D06D
:10072000D0BD446D002CEED0204601F083FB0028A4
:10073000E9D02046BDE8D04002F0E4B9F0B5036D41
:1007400083B00C462BB318460DF1060201A903F045
:10075000C3FAD8B1BDF80430BDF8062003B9AAB178
:1007600002F01F06C3F343155912C2F34517760072
:10077000013D01F5EA6103F01F03D2122670657195
:10078000A17123716770A27003B0F0BD002003B0A7
:10079000F0BD406D0028F9D00DF1060201A901F06D
:1007A000FDF9D6E7036D13B1D86900217047436D99
:1007B00013B118695969704718461946704700BF48
:1007C000036D13B1586900217047436D13B193E86D
:1007D0000300704718461946704700BF036D13B1F8
:1007E000184603F005BC406D08B101F037BA4FF070
:1007F000FF307047836C13B1184603F0C9BCC06C5E
:1008000008B101F0FFBA4FF0FF307047036D33B10C
:100810001B7813F0700F14BF012000207047406D4B
:1008200030B190F8313013F0500F14BF0120002088
:10083000704700BF8A79A2F150031B0620D4F0B59F
:100840004B79046D0D798E784F780978013385B036
:1008500002F26C72DBB244B103918DE8E0002046F5
:10086000042103F0CFFE05B0F0BD406D0028FAD0A2
:1008700003918DE8E000042102F096F805B0F0BD88
:1008800000207047006970B30368184A1B699342DF
:100890000ED1026D6AB1137803F0080303F0FF0074
:1008A0000BB3D3695069181A48BF6FF00040704706
:1008B0001847416DC1B191F8313003F0080303F0DE
:1008C000FF0083B1D1E90423D1E90001101A30B44B
:1008D00063EB010100256FF000448D4208BF8442A4
:1008E00000D2204630BC704708467047B90A000065
:1008F000036963B11A68074992698A4208D1186D81
:1009000008B103F079BE586D08B101F0E1BE70473F
:100910001846104719090000036D13B1184603F07B
:100920006BBE406D08B101F0D3BE7047836C13B14C
:10093000184603F061BEC06C08B101F0C9BE704733
:1009400003698BB110B41C680D48E468844211D16E
:10095000186D18B15DF8044B03F0F8BE586D28B15E
:100960005DF8044B02F03EB90020704700205DF8AE
:10097000044B7047184623465DF8044B184700BFE8
:10098000C5090000036973B11A68084952698A42AF
:1009900007D1186D08B103F0FBBB586D18B101F019
:1009A00031BA184610474FF0FF307047610500001C
:1009B000836C13B1184603F0C9BEC06C08B102F0D5
:1009C00011B97047036D13B1184603F0BFBE406DF7
:1009D00008B102F007B9704700B5836C83B08DF899
:1009E000071043B1184601220DF1070103F0AEFED6
:1009F00003B05DF804FBC06C0028F9D001220DF1B2
:100A0000070102F0EFF803B05DF804FB10B50369CD
:100A100082B08DF80710BBB11968104ACC689442B7
:100A200015D1186D30B101220DF1070103F08EFED2
:100A300002B010BD586D0028FAD001220DF1070157
:100A400002F0D0F802B010BD184602B010BD184632
:100A500001220DF10701A04702B010BDC509000039
:100A6000036923B310B51968124A8C68944282B0A6
:100A700014D1186D48B101220DF1070103F0B8FA45
:100A800090B19DF8070002B010BD586D0028F8D055
:100A900001220DF1070101F0E1F8F1E7184601220A
:100AA0000DF10701A047EBE74FF0FF30EBE74FF008
:100AB000FF307047DD070000026D62B1137803F06C
:100AC000080303F0FF0003B3D3695069181A48BF45
:100AD0006FF000407047416DC1B191F8313003F0C3
:100AE000080303F0FF0083B1D1E90423D1E9000139
:100AF000101A30B463EB010100256FF000448D4201
:100B000008BF844200D2204630BC70470846704778
:100B1000826C62B1137803F0080303F0FF0003B3A3
:100B2000D3695069181A48BF6FF000407047C16C14
:100B3000C1B191F8313003F0080303F0FF0083B135
:100B4000D1E90423D1E90001101A30B463EB0101AB
:100B500000256FF000448D4208BF844200D2204639
:100B600030BC704708467047D0B4039C16461F46F9
:100B700034B1012C1ED0022C0DD00020D0BC704707
:100B8000046DDCB1012B08BF002AF6D220461146C5
:100B9000D0BC03F01FBC036DB3B1DA69B61847F1DE
:100BA0000007012F08BF002EE7D231461846D0BCFF
:100BB00003F010BC036D8BB15A69EFE7406D00285C
:100BC000DBD0D0BC01F036B9406D0028D5D0D0E9DB
:100BD000042392197B41D0BC01F02CB9406D002850
:100BE000CBD0D0E9002392197B41EAE738B504461F
:100BF000806D0C4B236018B10AF0F2FA0023A36554
:100C0000236D04F118054BB1284605F045F8064B55
:100C1000A360284605F040F8204638BD636D002BE0
:100C2000F2D1F4E734BE0000C0BD000038B5044680
:100C3000806D0E4B236018B10AF0D2FA0023A36531
:100C4000236D04F118056BB1284605F025F8084B13
:100C5000A360284605F020F820465C2109F042FCFC
:100C6000204638BD636D002BEED1F0E734BE0000A6
:100C7000C0BD000070B50469244B036005461CB17B
:100C80006668013E66600EB1284670BD2368204A42
:100C9000DB6A93422CD1A06D10B10AF0A1FAA665CF
:100CA000236D5BB304F1180004F0F6FF2C69002CEF
:100CB000EAD02368174A5B6893421CD1A06D164B9B
:100CC000236018B10AF08CFA0023A365236D04F1A8
:100CD0001806BBB1304604F0DFFF104BA36030466E
:100CE00004F0DAFF20465C2109F0FCFB284670BDC9
:100CF00020469847DAE720469847C5E7636D002B02
:100D0000D0D1D3E7636D002BE4D1E6E708BE000045
:100D1000890400002D0C000034BE0000C0BD00009E
:100D200070B50569284B036004461DB16E68013E2D
:100D30006E602EB12046142109F0D4FB204670BD10
:100D40002B68224ADB6A934230D1A86D10B10AF0B9
:100D500047FAAE652B6D7BB305F1180004F09CFFDC
:100D60002569002DE6D02B68194A5B68934220D193
:100D7000A86D184B2B6018B10AF032FA0023AB654E
:100D80002B6D05F11806DBB1304604F085FF124BE0
:100D9000AB60304604F080FF28465C2109F0A2FBDE
:100DA0002046142109F09EFB204670BD2846984736
:100DB000D6E728469847BDE76B6D002BCCD1CFE72F
:100DC0006B6D002BE0D1E2E708BE00008904000053
:100DD0002D0C000034BE0000C0BD000010B52C4931
:100DE0002C4807F08DFE4FF4FA712A4807F02AFECE
:100DF00070B11321284809F009F8284809F044FA8D
:100E0000244807F081FD07F03DFD8B2824D010BD5C
:100E10000446204807F078FD07F036FD40B92D2143
:100E20001F4808F0F3FF1D48BDE8104009F02CBA38
:100E300028211C4808F0EAFF164807F065FD07F076
:100E400029FD234601460A22144809F031FA1348C5
:100E5000BDE8104009F018BA0E4807F055FD1249D8
:100E600007F03AFD104807F017FD40B91A210F4866
:100E700008F0CCFF0948BDE8104009F005BA3E2152
:100E80000B4808F0C3FF0548BDE8104009F0FCB965
:100E90005811FF1F7411FF1F88BE0000F407FF1FC9
:100EA00024BF0000F8BE00002411FF1F9CBE0000FC
:100EB000B8BE00002DE9F041624E336982B0002BCC
:100EC0003DD01A686049126B8A4240F09B801A6DCF
:100ED00092B35E4CDFF8948104F1F007D3B11A6845
:100EE0009568454522D1186DB8B101220DF1070171
:100EF00003F07EF870B19DF80730194604F8013F01
:100F00000A220023524809F0D3F9A7421ED03369C0
:100F1000002BE4D1FF231946F0E7586D0028EAD0F2
:100F200001220DF1070100F099FEE3E718460122C6
:100F30000DF10701A847DDE75A6D002AC9D1142138
:100F4000444808F063FF424809F09EF9404809F020
:100F50009BF9FFF743FF404B1C68F03C1C6014B149
:100F600002B0BDE8F0813569002DF9D02B683B4F08
:100F7000DB6ABB4251D1A86D10B10AF031F9AC6502
:100F80002B6D002B4CD005F1180004F085FE35695F
:100F90006C68013C6C6024B10023336102B0BDE891
:100FA000F0812B68DB6ABB4241D1A86D10B10AF019
:100FB00017F9AC652B6D002B40D005F1180004F03B
:100FC0006BFE3469002CE7D02368254A5B689342A6
:100FD0002AD1A06D234B236018B10AF001F9002338
:100FE000A365236D04F1180523B3284604F054FECD
:100FF0001D4BA360284604F04FFE20465C2109F0FB
:1010000071FAC9E718469047002898D00F4C336909
:10101000DFF8588004F1F00760E728469847B6E704
:101020006B6D002BAFD1B2E720469847B4E7284656
:101030009847C6E7636D002BD7D1D9E76B6D002BBE
:10104000BBD1BEE73407FF1F75040000F711FF1F77
:10105000F407FF1F54BF00004811FF1F8904000060
:101060002D0C000034BE0000C0BD0000DD070000F4
:1010700008B50E4A0E490F480AF070F80E4807F0FE
:101080002DFC0E4807F014FC0D4807F009FC0D4834
:1010900007F00EFCF0230C4A0C490D4807F0F2FC57
:1010A0000C48BDE8084007F003BC00BF3007FF1F35
:1010B000750C00003407FF1F7411FF1F4C11FF1F38
:1010C0003011FF1FE812FF1FF811FF1F4807FF1F15
:1010D0005811FF1F2411FF1F2DE9F041A148A24A1A
:1010E0000468A24DA24F96B040F2EE2613783BB1B1
:1010F0002B78DB0704D5036839685B1A0E2B07D8F9
:10110000036811781B1B002972D0B3F5FA6FEDD973
:101110004FF4E131974808F0E9FF9649964807F007
:10112000EFFB1D21954808F071FE954809F0ACF8D9
:10113000FE21944800F05AFC002800F0CD801821D0
:10114000914808F063FE8E4809F09EF800238F4A0C
:101150008F4902A804F08AFE149B002B00F0DC806B
:101160005C2009F0BDF904469DF80C10049A9DF826
:1011700014308848884E206000252173A66006A997
:1011800022612375656004F1180004F057FD63685F
:10119000824AA56501336360814F824EA26006A832
:1011A000029704F079FD6368356901336360002DAF
:1011B00000F0AA806B68013B6B60EBB13461002CDE
:1011C00054D063685D1E6560002D55D0306950B104
:1011D0000368754A9B6A934240F09880036D002B28
:1011E00000F08880D869714B186016B0BDE8F081B6
:1011F000B3427FF67BAF8BE72A686D49D26A0193D1
:101200008A4240F09E80A86D18B109F0E9FF019B69
:10121000AB652B6D002B00F0D18005F1180004F0B8
:101220003BFD3569002DC9D02B68624A5B6893424B
:1012300040F08D80A86D574B2B6018B109F0D0FF9E
:101240000023AB652B6D05F11808002B00F0BB8067
:10125000404604F021FDAF60404604F01DFD2846E5
:101260005C2109F03FF93461002CAAD14F4B204694
:10127000186016B0BDE8F08123684D4ADB6A9342DE
:1012800062D1A06D10B109F0ABFFA565236D002BF5
:1012900060D004F1180004F0FFFC2368454A5B6845
:1012A00093425BD1A06D3B4B236018B109F098FFCE
:1012B0000023A365236D04F11805002B00F088803E
:1012C000284604F0E9FCA760284604F0E5FC204627
:1012D0005C2109F007F979E71C21374808F096FDF1
:1012E000274808F0D1FFFE21264800F07FFB0028A8
:1012F000F9D024E7406D00283FF475AF00692B4B0F
:10130000186016B0BDE8F08134615BE79847274B61
:10131000186016B0BDE8F081159C002C7FF420AF5A
:10132000204E1F4F029706A804F0B6FC3569002D29
:101330007FF440AF1D4B35612846186016B0BDE8FC
:10134000F081284690476CE720469847A5E7284655
:10135000984733E7636D002B9BD19EE72046984763
:1013600034E700BF2018FF1F0419FF1F1C19FF1FBF
:101370001C1AFF1FDC07FF1F7411FF1F6CBF00004A
:10138000F407FF1FF412FF1F8CBF0000A8BF00006E
:10139000F812FF1F34BE00009CBD0000E4BD000039
:1013A000C0BD00003407FF1FA50700004811FF1F44
:1013B000890400002D0C0000B4BF00006B6D002BF1
:1013C0007FF42BAF2DE76B6D002B7FF441AF42E72D
:1013D000636D002B7FF474AF75E700BF2DE9F84310
:1013E000DDF82080099FB3B116460C46054603EB95
:1013F000010904E020460134C0474C450BD02B685E
:1014000032462146DB68284698473A46314600284E
:10141000F0D1BDE8F8830120BDE8F8832DE9F84359
:10142000DDF82080AAB11F460C46054602EB0109F3
:1014300001E04C450DD02B68414620461E6AB84756
:10144000214602462846B04701340028F1D1BDE8C4
:10145000F8830120BDE8F8834FF0FF30704700BFEC
:10146000704700BF30B583B005460C4607F07AFDE3
:101470001C4B984204D800232B80238003B030BD3E
:10148000694608F055FF9DF806309DF805109DF857
:101490000420503B9BB27F2B05D80131C9B20C29E7
:1014A00001D81F2A11D900219DF802002980172890
:1014B0009DF801209DF8003003D83B2A01D83B2B32
:1014C00009D90023238003B030BD42EA411242EA29
:1014D000432399B2E8E7520142EAC02242EA5303A9
:1014E0009BB2EFE7FFA5CE12F0B5012B95B00546F4
:1014F0003AD0022B01F1040140F20223684618BFE2
:10150000002304F0B3FC129B002B36D05C2008F0C3
:10151000E7FF04469DF804601E481F49029A9DF8A3
:101520000C30206004AF2673A1600026394604F118
:10153000180022612375666004F080FB6368174819
:10154000174AA66501334FF47A712E712E732C6100
:10155000A0606360A9602A60124B0093384604F0D3
:101560009BFB284615B0F0BD44F2022304316846C7
:1015700004F07CFC129B002BC8D1139B002BC5D11F
:101580004FF47A71064A2B712B732B61A9602A6084
:1015900004AFE1E734BE00009CBD0000E4BD0000E4
:1015A00008BE0000C0BD000010B5D0F884448EB065
:1015B000A4B10A4668462146012300248DF8004064
:1015C0008DF801408DF8024002F0E8FC08B90EB039
:1015D00010BD684603F038FD0EB010BDD0F8880489
:1015E0000028F4D00A460123014668468DF83140B0
:1015F0008DF832408DF8334000F0DEFE0028E6D052
:10160000684600F041FF0EB010BD00BF10B5D0F825
:1016100084448EB07CB10A46012304F58961684692
:1016200000248DF800408DF801408DF8024002F052
:10163000EFFB0EB010BDD0F888040028F9D00A46A0
:10164000012300F5896168468DF831408DF83240FC
:101650008DF8334001F006F90EB010BD30B5D0F86A
:1016600084448FB074B100250A462B462146684653
:101670008DF800508DF801508DF8025002F08EFC6C
:101680000FB030BDD0F888040028F9D00A462346B0
:10169000014668468DF831408DF832408DF8334070
:1016A00000F08AFE0FB030BD38B50546D0F884048E
:1016B000C0B1C469013C04F0FFF9D5F88434241AA0
:1016C00043B198794FF4007303FA00F080B2A0FBA5
:1016D000040138BDD5F8883463B1D3F83C04A0FBCD
:1016E000040138BDD5F8880420B1D0F8304402F0A8
:1016F00025F9E2E70020002138BD00BF30B5D0F861
:1017000084448FB0A4B100250A462B462146684682
:101710008DF800508DF801508DF8025002F03EFC1B
:1017200008B90FB030BD684602F026FE0FB030BDDC
:10173000D0F888040028F4D00A46234601466846BB
:101740008DF831408DF832408DF8334000F034FE92
:101750000028E6D0684600F0F5FE0FB030BD00BFAF
:1017600070B5D0F884448EB01646C4B1002504F597
:1017700089640A462B46214668468DF800508DF84C
:1017800001508DF8025002F0A7FB08B90EB070BDF1
:1017900032462146684602F031FD0EB070BDD0F8E9
:1017A00088040028F2D000F589650A4623462946B8
:1017B00068468DF831408DF832408DF8334000F0A6
:1017C0008BFD0028E2D032462946684601F0A2F897
:1017D0000EB070BDD0F884244AB19179D0694FF42D
:1017E00000738B409BB20138A3FB00017047D0F817
:1017F000882432B1D2F83034D2F83C04A3FB000183
:1018000070470020002170472DE9F041D0F8904446
:1018100092B04CB11F46236805469B692046984705
:10182000B0F5405F064603D8002012B0BDE8F08155
:101830004FF4007009F0CCFC80460028F4D0B6F1DB
:10184000806F07AE3B462146304642463DD803F006
:10185000D5FE0446404609F0C3FC002CE4D095F8C0
:10186000B844FF2C35D095F8B9C4D5F8BCE4D5F808
:10187000C0748DF804408DF805C0CDF808E00397DA
:1018800001AB93E8070004AB83E807008DF8104034
:101890008DF811C0CDF814E0069793E8070086E8AC
:1018A000070005F5946496E80E00204604F07AFCE3
:1018B00095F8B334C5F890441BB92146281D04F0AF
:1018C00071FA012012B0BDE8F08101F067FB044617
:1018D000C0E785F8B84405F2944495F8C41420464E
:1018E00005F00EFDC5F89044204605F0B1F800283B
:1018F000E7D1D5F89014281D04F054FAE1E700BFB1
:10190000F0B5D0F890648BB00446002E3CD090F82F
:10191000C85465B190F8C934FE2B3FD033683046C7
:101920009B6B06A9984784F8C8040BB0F0BD90F8EB
:10193000B864FF2E43D090F8B9C4D0F8BCE4D0F816
:10194000C0748DF800608DF801C0CDF804E00297F6
:101950009DE8070003AB83E807008DF80C608DF865
:101960000DC0CDF810E0059793E8070006AB83E8BB
:10197000070004F594660ECB304604F013FC94F88F
:10198000B334C4F8906423B1002084F8C8040BB0C9
:10199000F0BD3146201D04F005FAC4E73368304637
:1019A000DB699847336830465B6C9847431CB5D079
:1019B000003018BF012084F8C8040BB0F0BD00F25D
:1019C000944590F8C41480F8B864284605F098FC53
:1019D000C4F89054284605F03BF80028D4D1D4F838
:1019E0009014201D04F0DEF99DE700BF2DE9F041C1
:1019F0000E4604468AB02E4806F042F9FE2E84F8C0
:101A0000C9643CD03F2E03D900200AB0BDE8F08164
:101A10000025284F8DF804608DF805500395029736
:101A200001AB93E8070004AB83E807008DF8115081
:101A3000059706958DF8106093E8070007AB83E8DB
:101A4000070004F594680ECB84F8B86484F8B954A0
:101A5000C4F8C054C4F8BC74404604F0A3FB94F826
:101A6000B334C4F890842BB1284684F8C8040AB073
:101A7000BDE8F0814146201D04F094F9F5E704F239
:101A80009446FF23002584F8B83484F8C4542946CA
:101A9000304605F035FCC4F89064304604F0D8FFB9
:101AA0000028E1D1D4F89014201D04F07BF9DCE784
:101AB0006514000040787D01F0B4154B154E164DAD
:101AC000164C1E60C3F894542926FF25C3F8A84479
:101AD0000024134883F8B364012783F8C95483F8BA
:101AE0009C4483F89D4483F8B64483F8C444C3F807
:101AF000A00483F8B174C3F88444C3F8884483F81D
:101B0000C844084A08491846F0BC09F027BB00BF82
:101B1000F412FF1FDCBF000030C1000003200038BA
:101B2000D0C000003007FF1F61140000F0B500F1C5
:101B3000240305460E46174693E8070085B001AC1E
:101B400084E8070072012146286A01F085FE012819
:101B500006D13A462146286A01F046FE05B0F0BD9E
:101B6000002005B0F0BD00BF10B5044600F0B0FD88
:101B7000002384F8313084F8333010BD38B50D4679
:101B8000144600F124010022006A01F02DFE20B16C
:101B900043892B8003892380012038BD38B50D4649
:101BA000144600F124010022006A01F01DFE20B15C
:101BB000C3892B8083892380012038BD90F8312090
:101BC0000AB10020704738B504460D461146382248
:101BD00009F0F8FD4023012084F8313084F8330007
:101BE000256238BD70B40D460978202903D115F857
:101BF000014F202CFBD0184915600EE0A4F12206FD
:101C0000F6B21D2E20D904F0BF063C2E0ED05C2C5F
:101C10000CD02E2C02D0202C00D095602C782E4693
:101C2000013564B12F2C06D01F2CE7D8002070BCE2
:101C3000704716F8014F202CFBD02F2CF9D01E60D6
:101C4000114670BC01F0D8BC21FA06F6F607DAD5C9
:101C5000002070BC704700BF010100312DE9F04F3A
:101C600090F83330DE0783B004465AD55D060E4641
:101C7000934640F1B780D4E90001D4E9042310EB86
:101C80000B0841F100094B4508BF4245C0F0B08048
:101C9000BBF1000F6ED0A146F9E806015D46276A48
:101CA000D7F838340340C3F3080A002B68D150EA50
:101CB000010275D194F8312051064CBFD7F8342475
:101CC000E269A261D7F82C0497F845E45B0A023A6E
:101CD000191802FA0EF21144BAF1000F2CD1B5F521
:101CE000007F29D3D7F81C22914225D0B5F5806F0B
:101CF0005DD34FF0010808FA0EF8C3EB08034FEA72
:101D00005528984528BF984691423BD808EB0103D7
:101D10009A4237D207F50470019105F09FFF0199AF
:101D200080BB94F832304FF0FF3043F0020384F868
:101D3000323003B0BDE8F08F07F50470002205F0E3
:101D40005DFF0028EDD0CAF50078A84528BFA84659
:101D500000EB0A014246304606F02CFF42460023C3
:101D6000D4E9000180185941B5EB08054644C4E99F
:101D7000000194D10025C5EB0B0003B0BDE8F08F46
:101D8000A2699FE7D7F81402036832461F694346E9
:101D9000B8470028C5D04FEA482842460023DFE76D
:101DA00094F83320520610D5A269013289E7D7F89A
:101DB000140203683246DB6898470028B1D04FF41C
:101DC000007200234FF40078CAE738464A46A169FA
:101DD000019301F023FD0028A3DB0CD0276AA26940
:101DE000019B6FE790F8313018073FF544AF4FE79C
:101DF000C0EB020B4CE794F8313013F0500FBAD11E
:101E00008FE700BFF0B583B001220DF10701044652
:101E1000D0E900678569FFF721FF012808BF9DF819
:101E20000700A56118BF4FF0FF30C4E9006703B099
:101E3000F0BD00BF2DE9F04F90F831E0856983B027
:101E40000446BEF1000F1BD0D0E90001994208BF43
:101E5000904216461F463BD056EA070307D100239F
:101E6000A3610120C4E9006703B0BDE8F08F1EF054
:101E7000080F0AD0D4E90423BB4208BFB24204D2FF
:101E8000A561002003B0BDE8F08F236A019393F8A9
:101E900045C494F833A00CF1090C5FFA8CFC16F1E0
:101EA000FF3247F1FF33CCF1200803FA08FB22FA96
:101EB0000CF242EA0B02ACF1200B23FA0BF31AF0FE
:101EC000400F42EA030205D0E3691A44A261C8E761
:101ED0000120D7E710F1FF3941F1FF3A29FA0CFC54
:101EE0000AFA08F84CEA080C2AFA0BFB4CEA0B0C2D
:101EF0006245534617D21EF0400F16BF019BE3699F
:101F0000D3F83434A361904604F118094A46B8F175
:101F1000000FA6D0A169206A01F080FC002808F11A
:101F2000FF38F3DCACE750EA0103E4D0CCEB02026B
:101F3000E9E700BF2DE9F04F0C468FB090F8311063
:101F40000193814621B994F8313013F0500F07D135
:101F5000002089F8310089F833000FB0BDE8F08F18
:101F6000019B03F00303012B154606D0022B00F062
:101F7000FE80002BECD1012200E00222019B03F045
:101F8000080313430293002D40F0DD800327029BDA
:101F9000002643F04003B3460393202206A92046BF
:101FA000FFF75CFEF0B12028D2D19DF8183018065A
:101FB00045D4BBF1000F04D12268D4F818A0A2F1D7
:101FC0002008BB453CBF0BF1010B5FFA8BFB002BDC
:101FD00000F0CF80202206A920460026FFF73EFE13
:101FE0000028E0D1019B9905B2D5029B9A07AFD595
:101FF000002DADD0BB4580F0C5802B465E465546D2
:102000009A460AE02028A3D11EB92268A569A2F148
:102010002008DEB2B74240F2B280202206A9204654
:10202000FFF71CFE731C0028ECD12046D4F818B032
:1020300000F07EFB00288BD0C4F818B0EAE756BB4E
:10204000BB4538BF4FF0000B852BA6D13146382257
:10205000484609F0B7FB9DF81C309DF8192089F817
:102060003020D90603F0370258BF42F0080289F841
:1020700031202368216AA269C9F82420203BC9F8CD
:102080002010C9F8283094F83330C3F3801389F84E
:102090002C30012681E7C02B29D0C12B9AD12A46AA
:1020A00006A9484601F01EFA002866D0AB89002B2D
:1020B0007FF473AFAA686B689A427FF46EAF019B9E
:1020C0001F053FF545AF019B13F4884F40F0AC80EE
:1020D00099F833309E0700F1A780019B5B053FF51F
:1020E00037AF019B580400F1BD80012035E79DF812
:1020F00019309DF8082089F833209B0744BF9DF8CC
:102100000C3089F83330DDE90823DDE90C01C9E939
:1021100004230B9BC9F81C30C9E90201002DCED065
:102120009DF81B302A69296869604FF000009A42C7
:10213000A8817FF44FAFBDF81C60AB8AF61AB6FADF
:1021400086F6760929E72B69614F0E33A7FB033723
:10215000D4E90023FF0802371343FFB23FF417AF5F
:1021600000230022C4E900230023A3610FE7032218
:1021700004E7002D7FF436AFEAE606460DE7534646
:10218000AA461D4694F8336038220021484609F0DB
:1021900019FBC6F380160823226A89F82C60C9F857
:1021A00024A0C9F8288089F831302B68C9F820208C
:1021B00000266B60AE819FB307F1FF38DFF814A1F2
:1021C000B3465FFA88F8012259464846FFF7AEFC4D
:1021D000044600283FF4BCAE90F90030002BFFF617
:1021E000B7AE2022002109F0EDFA002E43D0BBF15A
:1021F000010F59D0C123A34623701E34AB89284652
:102200001BB96A68AB689A4205D005F015FE2BF839
:10221000020F5C45F2D101365FFA86FBBB45D2D393
:10222000484600F055FA98E699F8313013F0110F4E
:102230007FF48EAE019B5D057FF553AF99F8333087
:102240009C077FF585AE002200234846FFF7F2FD8C
:1022500000283FF47DAE484600F054FC00283FF4CF
:1022600077AE42E7D9E904234846FFF7E3FD0028AB
:102270007FF43BAF6CE68523237089F8308084F8C7
:102280000180DAF80030EBB10DF113020DF1160107
:1022900005A89847BDF81410BDF816209DF8133016
:1022A000618122812375B6E7029B84F801B063F057
:1022B0007F03C022227089F833302B69E370AB8A28
:1022C000A380A8E745F221436381E3816382A2E70B
:1022D000898888881C18FF1F2DE9F041044696B0B4
:1022E00094F83150019200208DF851008DF8520081
:1022F0008DF85300ADF8140035B9984691F8313097
:1023000013F0500F0E4603D1002016B0BDE8F08147
:1023100013782F2B154624D0002716E0019D2D7829
:102320002046002D32D0FFF705FE3422214600283A
:10233000EAD008A806F03EFC204600F0C9F9019D4D
:1023400084F8317008AE84F83370294601AB02AAD4
:102350002046FFF747FC002302AA31460028DDD1C2
:10236000D2E70135019529782F29FAD0B9B1382261
:1023700008A80021376A09F025FA4022012308AE97
:1023800010978DF851208DF85330C5E7434602AAC7
:1023900031462046FFF7CEFD16B0BDE8F081382269
:1023A0002046356A09F00EFA40230120256284F8A0
:1023B000313084F83300A8E719B101F58961FFF7DE
:1023C0008BBF0846704700BFF0B490F8314024B985
:1023D00091F8313013F0500F02D10020F0BC70475B
:1023E000D1E90067002706F01F0656EA0703F4D17B
:1023F00013462246F0BCFFF79DBD00BF8169F8B5CA
:102400000446006A01B10131012201F03FF90128BF
:1024100006462FD9012301461A46206A01F090F999
:10242000074638B3A06994F8333030B35A0613D551
:10243000421C964225D023F0400284F83320E36901
:1024400005E0206A01F02CFAA0B1A0692B465D1CC2
:10245000834219462A46F4D34FF0FF323146206AB0
:1024600001F01EFA30B1A16959B13246206A01F07B
:1024700017FA30B900273846F8BD43F0400384F816
:102480003330A6613846F8BD90F833309A0739D515
:10249000C1692DE9F0410546A9B9002407E0037898
:1024A00003F07F03037095F83030A3422CD321460C
:1024B00001222846FFF73AFB0134E4B20028EED1AE
:1024C0000020BDE8F0815B06006A35D5D5E90267DA
:1024D00090F845340933DBB216F1FF3647F1FF3788
:1024E000C3F1200426FA03F207FA04F4203B27FA8A
:1024F00003F322431A430132002301F021F900289B
:10250000CBD1DDE7002070472C6A0023204685F8F8
:10251000313085F8333005F0A1FB0028D0D004F528
:10252000047005F09BFB0028CAD0D4F8400403686F
:10253000BDE8F041DB69184701F0C4F90028ACD1CF
:10254000BEE700BF90F83130D90601D400207047B3
:1025500010B5002288B000230446FFF76BFC06E0AC
:10256000202819D19DF800301A0615D433B1202245
:1025700069462046FFF772FB0028F1D194F833300A
:10258000082243F0020384F8333084F831202046D7
:10259000FFF77AFF08B010BD002008B010BD00BFE3
:1025A0002DE9F0430026494F83B08046344600228F
:1025B00031464046FFF7BAFA054630B10378C02BE2
:1025C0006DD0C12B69D0852B09D098F8323043F0FB
:1025D000010388F83230002003B0BDE8F08398F89A
:1025E0003130D7F8009003F037038380B9F1000F42
:1025F00010D00DF103020DF1060101A8C847BDF886
:102600000620BDF804309DF803106975AA812A825E
:10261000EB816B82D8F8202092F8103243F001034E
:1026200082F8103295F800E00021E203685C42EA8B
:10263000540310FA83F301299CB201F1010126D061
:102640001F29F2D9013698F83030F6B2B342AED233
:10265000012208F12401D8F8200001F0C5F8002873
:10266000B3D0D8F820504480284605F0F7FA002867
:10267000ABD005F5047005F0F1FA0028A5D0D5F827
:1026800040040368DB69984700289ED0A4E7BEF1A8
:10269000850F0CBF04210221C7E79E46C4E798F8C6
:1026A000333013F0400F437814BF43F0020323F09C
:1026B00002034370D8E90423C0E90223D8E90223C6
:1026C000D8F81C104161C0E90623A3E71C18FF1FBE
:1026D00090F8312092B138B590F8332011060FD41C
:1026E000056A0446284605F0B9FA88B994F83230EC
:1026F00043F0010384F83230002038BD01207047D8
:1027000002F07F0280F83320BDE83840FFF748BF71
:1027100005F5047005F0A2FA0028E7D0D5F84004CA
:102720000368DB6998470028E0D0012038BD00BF6E
:102730002DE9F04190F831305906044660D48068A4
:10274000236AD3F83C341844B0F1806F02D30020E0
:10275000BDE8F0812046FFF751FE0028F7D0266A39
:1027600096F81032DA074FD44FF0FF33002506F504
:102770000878C6F81C3286F8105229464FF40072C9
:10278000404609F01FF8226AA36992F84504D2F87E
:102790002C14023B834001265F1816FA00F310D078
:1027A000D2F84004036879191B6A424698470135FC
:1027B0000028CCD0226A92F8453406FA03F3AB42E3
:1027C000EED894F831305B0615D494F8333063F0CA
:1027D0007F0384F83330D2F83C64D4E90223D4E98F
:1027E000040192194FF000077B4180197941C4E937
:1027F0000223C4E904012046BDE8F041FFF768BFA9
:10280000006A01F039F99BE706F5047005F026FA35
:102810000028A9D19BE700BF10B591F8314014F012
:10282000500F01D1002010BD40F602230446FFF7EF
:1028300081FB0028F6D0102384F831302046FFF7C2
:1028400077FF0028EED0A369E36120460023002231
:10285000FFF7F0FAC12384F833302046BDE810407A
:10286000FFF736BFF0B5044697B094F83160019297
:102870000020ADF814008DF851008DF852008DF84D
:10288000530036B91F4691F8313013F0500F0D4602
:1028900002D1002017B0F0BD13782F2B114624D0A1
:1028A00001AB02AA2046FFF79DF9002302AA2946A0
:1028B0000028EED0019E3678204626B3FFF73AFB7B
:1028C00040B9002FE5D0294602AA2046FFF7A4FF11
:1028D0000028DED02146342208A806F06BF92046F5
:1028E000FFF742F908AD0199DAE7013101910B7860
:1028F0002F2BFAD0296A08A8FFF760F90028C8D062
:10290000019908ADCCE702AA29462046FFF784FFCB
:1029100017B0F0BD30B590F831309DB0002413F001
:10292000180F8DF831408DF832408DF833408DF816
:1029300069408DF86A408DF86B4003D00B6A056AD8
:102940009D4202D000201DB030BD054640F6012357
:102950006846FFF7C1FC0028F4D0342229460EA8AF
:1029600006F028F909AB93E8070005F1240383E892
:10297000070095F833309DF8302085F8302063F05B
:102980007F0385F833302846FFF7A2FE0028D9D010
:10299000022208230EA815948DF86B208DF869305B
:1029A000FFF772FDCFE700BF2DE9F84F90F83150E7
:1029B0009DF828909DF82C709DF830A09DF83480EB
:1029C0002C0776D5A2F2BC7295B27F2D71D85A1E13
:1029D0000B2A6ED809F1FF321E2A6AD8172F68D841
:1029E000BAF13B0F65D8B8F13B0F62D804469B465D
:1029F0000E46FFF76DFE00285BD04FEA680249EAF9
:102A00004B1942EA4A1A49EA452518F0010F4AEAE9
:102A1000C7274FF0000AADB2BFB20CBFD1464FF08E
:102A20006409D34606F00108002251462046FFF70C
:102A30007DF800283DD090F800E0BEF1850F41D030
:102A400037D3AEF1C003012B33D800214FEACB328C
:102A500010F801C042EA5B031CFA83F301291FFA54
:102A600083FB01F1010127D01F29EFD90AF1010AE7
:102A700094F830305FFA8AFA5345D5D2012204F136
:102A80002401206A00F0B0FE98B1246AA0F802B0D8
:102A9000204605F0E3F860B104F5047005F0DEF8B7
:102AA00038B1D4F840040368DB69984708B1BDE841
:102AB000F88F0020BDE8F88FBEF1850F0CBF042110
:102AC0000221C3E794F83130226A03F03703838090
:102AD00092F8103243F0010382F81032B8F1000F7F
:102AE00001D007824582B20703D580F81490078190
:102AF0004581730703D580F815908781C58190F8CB
:102B000000E0A2E790F833309A0718D5F0B5C56910
:102B100083B08DB103F04003044603F0FF0083B996
:102B2000A169002941D10195E1612946206A00F09F
:102B3000C9FE30BB002000E0012003B0F0BD002042
:102B40007047206AA16990F84534D4E902670933D7
:102B5000DBB216F1FF36C3F1200E47F1FF3726FA3C
:102B600003F207FA0EFE203B42EA0E0227FA03F3B5
:102B70001A430132B1B1013D6D1A01312A4401916C
:102B800002BBD4E9000194F8333063F07F03C4E959
:102B90000201C4E9040184F833302046FFF798FDB0
:102BA00003B0F0BD0195E161EAE702AA42F8040D25
:102BB000206A00F033FE0028BCDB0AD1019D002D05
:102BC000DFD0B2E70023019900F0BAFD0028D8D188
:102BD000B0E74FF0FF32A169206A00F061FE0028E3
:102BE000ECD1A7E72DE9F04F90F8333083B09D0783
:102BF0000446009240F1AA801A07894600F19F809E
:102C0000009B002B00F01C812146F1E80623DDF833
:102C1000008001914FF0010BCA46206AD0F8385469
:102C20001540C5F3080945BBA169002900F0C28021
:102C300094F833305B0640F1D680D4E9026790F80F
:102C40004524E3690932D2B216F1FF3647F1FF3766
:102C5000C2F1200ED64007FA0EFE203A46EA0E06D2
:102C600027FA02F2164333449942C0F0B980204655
:102C7000FFF7C4FB002869D0206AA669D0F82C743D
:102C800090F845E46D0A023EE91906FA0EF6314461
:102C9000B9F1000F40F08780B8F5007F60D2D4E929
:102CA0000423D4E90067B8F5007F454628BF4FF4F8
:102CB00000759F4208BF964234BF0122052200F5ED
:102CC000047004F09BFF002840D048442A46514637
:102CD000A94405F06FFFB9F5007F00F09C802846FD
:102CE0000021D4E90023D4E9046712184B419F4224
:102CF00008BF9642AA44C5EB0808C4E9002307D2DE
:102D000094F83310C4E9042361F07F0184F8331090
:102D1000B8F1000F81D1D4E90201994208BF904275
:102D2000C0F08280484B1B68002B00F0878094F82D
:102D30003330009863F07F0384F833300DE0D0E93E
:102D40000423FFF777F800287FF45AAF94F8323065
:102D500043F0010384F83230002003B0BDE8F08F67
:102D6000B8F5806F2AD30BFA0EF35D1BD0F81C2246
:102D70004FEA5823AB4228BF2B4691424FEA4325E6
:102D800008D8CE18B24205D24FF0FF3280F8109228
:102D9000C0F81C22D0F8140206685246766AB04782
:102DA00000289CD1D2E7C9F50075454528BF4546A6
:102DB000012284E7E669F6B1A6615FE7D0F81C322C
:102DC000994221D0D0F81402036852461B6A9847F2
:102DD0000028BBD04FF4007000214FF4007580E74D
:102DE0004E1CA6614AE7019A00F018FD0028ADDBF1
:102DF0007FF442AF3BE72046FFF700FB0028A5D059
:102E0000A669E661206A39E74FF0FF3380F8109237
:102E1000C0F81C32D6E7206A00F5047004F01EFFEB
:102E200000287FF45CAF91E794F83310009861F0CC
:102E30007F01C4E9022384F833108EE700988CE701
:102E4000D4E9002367E700BF1C18FF1F70B50446D4
:102E500008460D4608F034FD236802462946204600
:102E60005B68BDE8704018478368C3F308038BB103
:102E700000210269D1540133B3F5007FF9D1C36851
:102E80000269016810B41C68246A184623465DF87C
:102E9000044B18470120704782680346C2F30802BA
:102EA000006930B481545D68986840F2FF1401EB0A
:102EB00075010130A2425960986002D0012030BCF7
:102EC0007047D868196804681A69246A4D1C1D6027
:102ED000234630BC184700BF38B50C46C9B205467A
:102EE000FFF7DAFF00B938BD210A2846BDE83840AF
:102EF000FFF7D2BF2DE9F8430026804601608660C7
:102F00004660B0B205F0A8F8B042814605460DD043
:102F100001464046FFF7E0FFA0B30136B6F5803F1B
:102F2000EFD34046BDE8F843FFF79EBF741CB4F5ED
:102F3000803F14D1C6F58037B7F5007F4FF4803459
:102F40001AD2A9B24046FFF7C7FF0135D0B1A5425A
:102F5000F7D32E46E2E70134B4F5803FEAD0A0B2C1
:102F600005F07AF8A042F6D0A71BB7F5007F03D290
:102F7000A642E6D34E46C4E74FF6FF714046FFF740
:102F8000ABFF10B90020BDE8F883B9B24046FFF7A7
:102F9000A3FF0028F6D02646C0E700BF2DE9F04F7A
:102FA00014460A68C160046189B081469269084686
:102FB0000E461F469047B0F5801F11D25FB13B68A7
:102FC000AA495B681522384698473B68A8495B6860
:102FD00038460F2298470025284609B0BDE8F08FF3
:102FE00005460123022201E095424FD90133DBB2AD
:102FF000202B4FEA4202F7D1A3F10B02521001211C
:10300000D0B291400690049101334FF001085B105B
:1030100008FA03F303FA08F105939B000191029368
:10302000029BEB1AD34003FA02F80393019B4FF47F
:1030300000720021204698444FF0010B08F0C2FBBB
:103040004FF0000AFF230721FE2284F8C21184F802
:10305000C32184F8BFB184F8C0B184F8C1A184F859
:10306000C43184F8C53133680199C4F8C6114AF6F1
:1030700055221B6AC4F8CA81A4F8FE215146224693
:1030800030469847B0B9002F9FD1A4E71C2BB3D886
:1030900008221A2B069200F29D814FF400430293FE
:1030A0004FF4804301934FF4807304934FF4005323
:1030B0000593B5E74FF400725146204608F082FBB5
:1030C000019B23649021A365039B059AC4F8488063
:1030D0004FF0EB0E76204FF05808E365A1709DF895
:1030E000183022654FF0450162656566412284F81B
:1030F0006D305425202384F800E060704FF0040EFA
:103100004FF480704FF0090CE17084F80480802146
:103110004FF04608A27123726372A37284F86F1095
:10312000C4F844A0C4F84CA0A4F86AA084F86EB017
:1031300084F870A084F80580E571C4F860E0A4F814
:10314000680084F86CC004F1770304F2FD11F422E6
:1031500003F8012F9942FBD14AF655220023A4F827
:10316000FE211D464FF0010802E0013308F101087D
:10317000A3F16A02012A04D9702BF6D0E25C02EBBB
:103180007505B8F5007FF0D1336801991B6A2246B6
:103190003046984700283FF476AF336801991B6AA0
:1031A00022460C313046984700283FF46CAF424627
:1031B0000021204608F006FB4AF65523019AA4F8A0
:1031C000FE31631ECDF81C9002F1010A02F1090BD9
:1031D000069304F2FF1899464B4613F8012F9845C1
:1031E00002EB7505F9D1336822461B6A5146304619
:1031F000984700283FF447AF336822461B6A0AF11C
:103200000C013046984700283FF43DAF0AF1010A0F
:10321000D345E1D14FF4007200212046DDF81C9027
:1032200008F0D0FA019B03F10B0A069B13F8012F5B
:10323000984502EB7505F9D1336822461B6A594659
:103240003046984700283FF41EAF336822461B6A79
:103250000BF10C013046984700283FF414AF0BF1F6
:103260000103534506D09B46DFE700BF04C00000C2
:1032700064C00000231F04F5FE7243F8045F93420C
:10328000FBD1336851461B6A2246304698470028D6
:103290003FF4F9AE33680BF10D011B6A224630464C
:1032A000984700283FF4EFAE2FB13B6887495B6831
:1032B0000C2238469847039B4FF4007200212046A9
:1032C0009D0008F07FFA0199059AF8230A4405F257
:1032D0000725904623704FEA552B234604F113012E
:1032E000FF2203F8012F9942FBD14FF0000A234639
:1032F000AD0B54469A4604E0002C64D00134A3453B
:1033000018D0B4FBF5F305FB134333B90122704920
:10331000384617B13B685B689847336852461B6A6A
:1033200004EB0801304698470028E5D1002F7FF4D0
:103330004CAE50E654468FB33B6866495B68022248
:1033400038469847039D049B0735ED0805F2FF18A2
:103350004FEA582898453FF638AE4FF400720021E6
:10336000504608F02FFA07238AF800304FF0000A81
:1033700007E0BAF1000F00F083800AF1010AD0459E
:103380002CD0336802991B6A224651443046984734
:103390000028EED1002F7FF418AE1CE6039D049B9D
:1033A0000735ED0805F2FF184FEA582898453FF613
:1033B00012AE4FF400723946504608F003FA072364
:1033C0008AF80030D2E74FF400722146504608F0E8
:1033D000F9F993E74FF48071049115E6002F61D05D
:1033E000019B3D4938464FEA4308FFF72FFD049BF8
:1033F000484608EB0301FFF77DFD00283FF4E5ADEB
:10340000D9F80830049AB3EB422F3FF6DEAD3349CA
:103410003846FFF71BFD4FF400720021204608F0EC
:10342000D1F903230221822281202370616384F871
:10343000200084F84020D9F8042062646365049970
:10344000D9F80820A265002308EB4109A563E365CC
:10345000984607E0B8F1000F1DD0049B08F1010861
:10346000984510D0336822461B6A09EB08013046A4
:10347000984705460028EDD1002F7FF4A6ADAAE5B8
:1034800084F800A079E7002F3FF4A6AD3846144930
:10349000FFF7DCFCA0E54FF400724146204608F03F
:1034A00091F9DAE7019B4FEA4308049B484608EB91
:1034B0000301FFF71FFD00283FF48DADD9F8083058
:1034C000049AB3EB422F3FF686ADA4E71CC0000080
:1034D00088BF000040C000002CC0000044C00000B5
:1034E00054C000002DE9F0410C46154601F11E08BC
:1034F000AB8934F8026F28461BB96A68AB689A42F8
:103500000ED004F099FC04F0A7FD0746304604F005
:10351000A3FD874209D14445EAD10120BDE8F081ED
:10352000B6FA86F04009BDE8F0810020BDE8F081E0
:103530002DE9F84F90F831308946002B44D090F8AF
:103540003030012B804651D9013A8E180C460227A3
:103550004FF0000B002239464046FEF7E7FA98B3D9
:103560000378C12B30D1824600F11E0519E000F529
:1035700010539BB2B3F5806F26D21E4B4FEA8B2BB4
:10358000C0F309000BEA0303184300F5803032460C
:10359000214604F0C7FC88B1AA4504464FF0000B51
:1035A0001DD03AF8020FBBF1000FE0D100F5205317
:1035B0009BB2B3F5006F0CD30028E8D1C9EB04002F
:1035C00000232370BDE8F88F002089F80000BDE8D3
:1035D000F88FB3F5806FF7D2AA458346E1D1013762
:1035E00098F83030FFB2BB42B4D2E7E70C46002077
:1035F000E6E700BF00FC0F00F8B50A684A60002348
:103600000E461F468B810B611C464FF6FF7516E078
:1036100004F012FCA84221D004F01EFDE30343EAAB
:10362000540454FA80F33169B789C3F34E0204128B
:1036300042EAC33314FA83F40131A4B23161304653
:10364000002FE5D17268B3689A42E1D13069B48243
:103650000138FE288CBF00200120F8BD0020F8BDF5
:1036600038B50C46D0F82414154601EBD41100F5FA
:103670000470012204F0C2FA034628B1A400C4F386
:10368000080401201D5138BD38BD00BF2DE9F84F99
:10369000804691468B46002944D08F1ED8F830349E
:1036A0009F423BD207F00705012303FA05F5EDB26F
:1036B000C7F3C80A3E463C46D8F82C14002201EB5A
:1036C0001431404604F09AFAC0B110F80A100AE02A
:1036D0004A452AD0A74210D0D8F83024944217D2B5
:1036E00013F0FF050CD001340D424FEA4503A4EB63
:1036F0000602EDD0A7422646EED10120BDE8F88FA4
:103700000AF1010ABAF5007F4FF00105DDD101E0B1
:10371000002634464FF0000A0125CDE70027BA46BF
:103720000125C7E7D0F82074B8E7BBF1000F04D13A
:10373000B9F1010F08BFC8F82064B01CBDE8F88FCC
:103740002DE9F04702398046D0F8300415468A1832
:10375000824238D89A46D8F82034BAF1000F35D1D1
:10376000994238BFC8F8201401F007040122D8F8A4
:103770002C3402FA04F4E4B203EB1139C1F3C806A5
:10378000012249464046914404F038FAD8B18719DD
:1037900000F5007017F8012B224214BF0126002605
:1037A000564582EA04024FEA44040CD0013D07F872
:1037B000012C15D014F0FF04EED1B84226464FF08C
:1037C0000104E7D1DCE70020BDE8F0879942CBD8BF
:1037D0009A42C9D9824228BF0022C8F82024C3E7F0
:1037E0000120BDE8F08700BFF8B50E4696E8280036
:1037F000D0F83814D0F82C4490F845742940023B96
:1038000004EB5121BB40194400F5047004F0F6F9B3
:1038100018B17368C3F308031844F8BD38B5D0F87D
:10382000303401338B4214D30C46D0F8241415469F
:1038300000F5047001EBD411002204F0DFF940B16F
:10384000A100C1F3080140582860013018BF0120D1
:1038500038BD4FF0FF3038BD70B50D464968D0F81F
:10386000383406468818686096F845440B40093499
:103870001A44E4B222FA04F43CB12B7A3BB12B682F
:1038800001332B60013C002CF7D1012070BD2A468A
:1038900029683046FFF7C2FF0128F3D070BD00BF92
:1038A00001290DD9D0F830340133994210B403D92D
:1038B00000205DF8044B70475DF8044BFFF7D0BE65
:1038C000002070472DE9F0410C4682B005460E46B7
:1038D00001AA21462846FFF7A1FFB0F100082146C2
:1038E0004FF00002284625DB012C23D9D5F83034CF
:1038F00001339C421ED8FFF7B3FE671C31460023FC
:10390000BA1BB8B12846B8F1000F08D0019CA742F5
:10391000DED0FFF715FF68B1019C2646D8E7621C90
:10392000921B434631462846FFF70AFF10B102B00A
:10393000BDE8F081002002B0BDE8F0812DE9F84338
:103940000024D0F82C64804600F5047725463146E3
:1039500000223846013604F051F930B300F1FF3E41
:10396000D8F830C41EF8010FFF2805F5805913D090
:1039700048B10822012318424FEA430118BF01341D
:10398000013ACBB2F7D10835AC450AD94D45DED066
:103990001EF8010FFF28EBD10835AC4504F10804EF
:1039A000F4D8C4EB0C00BDE8F883BDE8F88300BF91
:1039B000F0B5044687B000254FF0FF33C4F840143B
:1039C0006160C4F8141284F84454257084F81052CD
:1039D00008460295019500951146E360C4F81C3233
:1039E00004F5087205AB04F057F910F0FB0F13D083
:1039F000059F04F504762A463046394604F0FEF861
:103A0000054648B105221B49033007F0C7FF18B926
:103A100095F86C30092B02D0002007B0F0BD2B6D5B
:103A20003B44C4F824346B6DC4F82834AB6D1F4498
:103A3000C4F82C74EB6DC4F830342B6EC4F83434F5
:103A400095F86D3084F845340125093305FA03F300
:103A50005A1EC4F820040146C4F83C34C4F8382483
:103A600020462A46FFF712FE4023284684F84434B5
:103A7000D3E700BF74C0000070B582B002AED0F8CA
:103A8000341446F8041D0546002403E004F1010443
:103A900007D0019932462846FFF7C0FE0028F5DA24
:103AA000002495F845040930C0B204FA00F002B0D1
:103AB00070BD00BF38B504460D462422002107F032
:103AC00081FEA560EB79102B08D0202B04D1402378
:103AD00001202370A07038BD002038BD20230120B4
:103AE0002370A07038BD00BF024638B552F8105F91
:103AF00004462946806801F075FF50B155B123692D
:103B00000135AB42A37818BF03F0BF0363F07F0316
:103B1000A37038BDA37843F04003F7E72DE9F041E7
:103B2000037803F020032BB903F0FF044169204B15
:103B3000994203D900263046BDE8F0810546FFF7DB
:103B4000D3FF06460028F5D0A8682B69877942691B
:103B5000023BBB409F1828303946052204F04EF83E
:103B600080460028E6D04FF40072214607F02AFE76
:103B7000AB681A79012A10D9012403E0AB681A79DD
:103B8000A2420AD918680368E1191B6A424698479D
:103B90000134E4B20028F1D1CCE79B7969694FF494
:103BA000007202FA03F311FA83F36B61C3E700BFFB
:103BB000FFFD1F0010B5044680680A462830A16941
:103BC00004F01CF820B1A38803F00F0300EB4310AE
:103BD00010BD00BF70B590F90230002B82B00446D2
:103BE00019DBA56805F1280004F038F830B96378CE
:103BF00043F001036370002002B070BD05F50E7044
:103C000004F02CF80028F2D028680368DB69984794
:103C10000028ECD0F0E70121FFF7CCFF0546002893
:103C2000E5D00378E52BE2D023780E4A1B0744BF8A
:103C3000E369C361236A166843831B0C838266B100
:103C40000DF103020DF1060101A8B047BDF80430E3
:103C5000BDF806202B836B82EA82A37803F07F03F2
:103C6000A370BEE71C18FF1F10B50378044623B9E4
:103C700000232370A370012010BDFFF7ABFF0023CA
:103C80002370A37010BD00BF38B5037804460D46FD
:103C90005BB920460021FFF78DFF50B1014620227D
:103CA000284604F087FF012038BDFFF793FF002866
:103CB000EFD1002038BD00BF30B589B00D46694650
:103CC0001446FFF7E1FF28B1BDF81020BDF80E3013
:103CD0002A80238009B030BD30B589B00D466946D1
:103CE0001446FFF7D1FF28B1BDF81820BDF81630F3
:103CF0002A80238009B030BD2DE9F0410C7814F002
:103D0000700F88B003D1002008B0BDE8F08140F604
:103D1000022305460C4600F0FFFF0028F3D00122E5
:103D20001023AA702B702846FFF7F8FE0028EAD06F
:103D30002B782A692A62002B59D101212846FFF7E6
:103D400039FF06460028DED01023C37231462022F8
:103D5000684604F02FFFB17E307D777DF67E2E22FF
:103D600041EA06268DF800206B4640EA07270DF150
:103D70000A01202203F8012F8B42FBD1A8682B6A8D
:103D800082794169023B934019442830012203F0B3
:103D900035FF80460028B6D020226946ADF8147061
:103DA000ADF81A6004F006FF236AADF81A302E242D
:103DB0001B0C694608F1200020228DF80140ADF867
:103DC000143004F0F7FEAC6804F1280003F046FF5D
:103DD000002898D004F50E7003F040FF002892D020
:103DE00020680368DB6908B0BDE8F04118476B69DB
:103DF00033B1AB78002223F02003AB702A616A61F3
:103E00002846FFF7E7FE00283FF47DAF95E700BFA7
:103E10002DE9F041064694B0357801920020ADF8C6
:103E200014008DF82C008DF82D008DF82E002DB982
:103E300098460B7813F0700F0C4603D1002014B095
:103E4000BDE8F08113782F2B11462BD0002701AB52
:103E500002AA304601F0A2F802AA21460023002857
:103E6000ECD0019D2D783046002D2DD000F054FF70
:103E700048B9B8F1000FE1D0214602AA3046FFF759
:103E80003BFF0028DAD035460FCD0BAC0FC40FCD69
:103E90000FC433782A68226093B93770B7700199DC
:103EA0000BACD4E7013101910B782F2BFAD0A1682C
:103EB0000BA8FFF7FFFD0028C0D001990BACC5E7A8
:103EC0003046FFF787FEE8E702AA21463046FFF7B3
:103ED00013FF14B0BDE8F0812DE9F041064694B01F
:103EE0003578019200208DF808008DF809008DF8D2
:103EF0000A00ADF838002DB998460B7813F0700F12
:103F00000C4603D1002014B0BDE8F08113782F2BAC
:103F1000114626D0002703E001993770B77002AC34
:103F200001AB0BAA304601F039F80BAA2146002359
:103F30000028E7D0019D2D7830460DB300F0ECFE4F
:103F4000354602AC0028DDD00FCD0FC40FCD0FC415
:103F500033782A682260002BDED03046FFF73AFE25
:103F6000DAE7013101910B782F2BFAD08BB1A168E0
:103F700002A8FFF79FFD0028C4D0019902ACC9E751
:103F800043460BAA2146304600F0C6FE14B0BDE8F9
:103F9000F081A1683046FFF78DFDB4E719B101F556
:103FA0008961FFF799BF0846704700BF38B5CB68F5
:103FB00043B902780AB1184638BD8968BDE838406F
:103FC000FFF778BD04460D462422002107F0FAFBD6
:103FD000012310222270A370A968EA682262A160FE
:103FE000184638BD03780BB100207047FFF762BD5B
:103FF0002DE9F04F8378DF0783B0054640F19280CA
:104000000F4601780E07914600F195808C0608D581
:10401000826843691289C3EB42139BB2994528BF5A
:104020009946B9F1000F00F0AC806B69AA68880668
:104030004E464FF0000805F1100AC3F3080B40D5B7
:10404000116A01EB5321BBF1000F55D1B6F5007F8A
:1040500052D3536B99424FD0B6F5806F74D3287802
:1040600080064FEA562B05D41079C8EB0000834533
:1040700028BF834699424FEA4B240DD801EB0B0031
:10408000834209D202F128000191009203F0E6FD7B
:10409000009A0199002845D0D06A02685B46D2F8A0
:1040A00010B03A46D84700283CD06B69361B2344F1
:1040B00027446B6165D02978AA688806C3F3080B8A
:1040C000BED492F8058008EA5328BBF1000F39D11D
:1040D000B8F1000F36D1002B40D149064CBF146A0D
:1040E0002C6A2C6191795069023C8C4008EB0001EC
:1040F0002144BBF1000FA9D002F12800002203F0F7
:104100007DFD78B1CBF50074B44228BF344600EB96
:104110000B012246384604F04DFDC6E72B7813F01C
:10412000700F2FD16B784FF0FF3043F002036B70AC
:1041300003B0BDE8F08FC36942699B1A994528BF57
:1041400099466EE72C69CDE7D06A03683A46DB688A
:1041500098470028E6D04FF40074A6E70B0705D572
:10416000AB785C0602D52C690134BAE710462969A0
:10417000524601F0CBFB0028D4DBCFD0AA682C69D3
:10418000B0E70026C6EB090003B0BDE8F08F00BF22
:1041900070B582B001220DF1070104464669056938
:1041A000FFF726FF012808BF9DF80700666118BFCA
:1041B0004FF0FF30256102B070BD00BF30B54369DC
:1041C000C3F3431583B0044605B189B901220DF14B
:1041D00007012046FFF70CFF40B201280BD16369AD
:1041E0001F336361A068383000EB451003B030BD69
:1041F00020334361F6E7002003B030BD2DE9F041E4
:1042000005789AB0002415F0180F8DF820408DF82D
:1042100021408DF822408DF844408DF845408DF8BE
:10422000464004D086688D68AE42034603D0002025
:104230001AB0BDE8F0811D4690460E46FFF7CAFC55
:10424000AE46BEE80F0011AF0FC7BEE80F000FC7A4
:10425000DEF800303B6021462846FFF7ABFC002823
:10426000E5D001462022684604F0A4FC2A7802F03A
:10427000080202F0FF03002A74D04246314640F69D
:10428000012308A8FFF728FE0028D0D00E98BDF81B
:1042900024109DF823200B9BA861A9800027EA70B9
:1042A000EB60012128468DF820708DF82270FFF711
:1042B00081FC06460028BAD013220DF10D010D3005
:1042C00004F078FC9DF80B30F3724CB3A868827947
:1042D0004169A31E934019443A46283003F08EFCEE
:1042E0000028A4D000F120012022684604F062FCDE
:1042F0002146A86801F0BCFB002898D0A8682B6A6A
:1043000082794169023B934019442830012203F02D
:1043100075FC00288BD069462030202204F04AFC2E
:1043200000210222082311A819918DF846208DF84A
:10433000443000F089FE00283FF479AFAC6804F106
:10434000280003F08BFC00283FF471AF04F50E70D9
:1043500003F084FC00283FF46AAF20680368DB693F
:10436000984765E74246314608A8FFF751FD002807
:104370003FF45DAF109C89E70378DA061AD54369EC
:1043800010B5044633B18378002223F020038370F4
:104390000261426101212046FFF710FF60B10378FE
:1043A0006BB1E52BF6D02E2BF4D0C37A1B07F1D4DA
:1043B000002010BD002070476378002BF8D1A3784F
:1043C000082243F00203A37022702046BDE810408B
:1043D00000F03ABE2DE9F041037807690446B3B115
:1043E0000D464169A9422BD045B98378056123F078
:1043F0002003A37065610120BDE8F08118070AD48D
:104400009A060BD5A3681B89B5EB431F34D92761E6
:104410000020BDE8F081E2699542F8D8D4F808E0C0
:10442000A2789EF806000930C0B26E1E12F0400F4E
:1044300026FA00F607D0236A1E4426611346D6E703
:104440000120BDE8F0814A1E22FA00F0864215D212
:104450005B064CBFDEF82030236A236104F11008AC
:1044600007E02169A06801F051FA002806F1FF3643
:10447000CDDD4246002EF4D1A378B8E70029E7D07D
:10448000361AEBE72DE9F0410D4690460021242233
:1044900004461F469DF8186007F094F9A8682B6A37
:1044A000E36000F1380208F00F0302EB4312A06052
:1044B000A4F80480D17A0D0712D401F017012170FD
:1044C000D37AE67013F0180F08BF41F0080107F027
:1044D000030308BF2170012B07D0022B29D01BB387
:1044E00000202070A070BDE8F0810223A370217825
:1044F00011F0110FF4D159B207F4806507F00803E9
:104500000B43DBB2A370B2F814E0518B466BA6618B
:1045100041EA0E4185B1D1B963F07F03A3707B04FA
:104520000ED40120BDE8F08117F48065D8D10121B7
:10453000E4E70323A370DAE72162D369E361EEE7DE
:10454000E1692046FFF746FF0028EAD1C8E701F0FD
:104550008FFA0028C4D0A378DEE700BF03781BB928
:104560000B7813F0700F01D1002070472DE9F04354
:104570004D6915F01F0683B031D190460C460746B1
:10458000B14601E00026656900212046FFF716FECE
:1045900028B303781BB32E2BF4D0E52BF2D0C17ACD
:1045A00001F0080202F0FF0E42B10F29EAD15A06CB
:1045B000E9D503F01F0690F80D90E4E79EB1421E86
:1045C0000A3012F8011F4FEACE1343EA5E0E51FA89
:1045D0008EFE90425FFA8EFEF3D1CE4503D00020CE
:1045E00003B0BDE8F08300964346C5F34F12214661
:1045F0003846FFF747FFF3E703780BB1FFF7EABA56
:10460000012070472DE9F04F90F800C081B01CF0F8
:10461000080F9DF828709DF82C809DF830909DF82B
:10462000346053D0A2F2BC7294B27F2C4ED85A1E82
:104630000B2A4BD87A1E1E2A48D8B8F1170F45D836
:10464000B9F13B0F42D83B2E40D81D468A468346DF
:10465000FFF7C0FA002839D001215846FFF7AAFA1F
:10466000A0B347EA4515711045EA44241AF0010F3A
:1046700041EA4919A4B249EAC82818BF44821AF08D
:10468000020F1FFA88F807D016F0010618BF64263B
:1046900046730482A0F80E801AF0040F18BF04833A
:1046A000DBF8084018BFA0F8168004F1280003F0DA
:1046B000D5FA58B104F50E7003F0D0FA30B1206885
:1046C0000368DB6901B0BDE8F04F1847002001B076
:1046D000BDE8F08F83789B071AD5036AB3B110B594
:1046E000016982B00446F1B9019301621946A068DC
:1046F00001F0BEF9A8B1A37822786169E16163F0A5
:104700007F03A370EAB9012002B010BD01207047F9
:10471000002070476FF070422169A06801F02EF907
:1047200058B90020F0E702AA002342F8043D80684F
:1047300001F0ECF80028F4DBECD1019B002BDAD07F
:10474000D4E72046FFF746FADEE700BF2DE9F8433D
:1047500083789C0705465ED590461A070F4655D4C8
:104760006A69D343984556D8B8F1000F3ED0464603
:10477000A868437913EA5224C2F3080961D1B9F158
:10478000000F78D12969002900F0B280AB785B0670
:1047900048D5EB69934245D94B1C2B61827943691B
:1047A00001399140B6F5007F194472D2B6F5007F09
:1047B000344628BF4FF40074AB7813F0200F0CBFC1
:1047C00001220522283003F019FA20B3484422467A
:1047D0003946A14404F0EEF9B9F5007F00F0998064
:1047E0006A69361B224427446A61C1D1EB6993424E
:1047F000C0F0A180554B1B68002B00F0A480AB7863
:1048000063F07F03AB704046BDE8F883C169FFF7F2
:10481000E1FD0028A4D16B7843F001036B70002008
:10482000BDE8F88305F1100201F070F80028F2DB12
:1048300004D12846FFF758F90028ECD02B69A86866
:1048400059E02B6981794269023B03FA01F1114475
:104850002144B9F1000F15D1B6F5007F19D26A696C
:10486000EB69B6F5007F344628BF4FF400749A42D6
:10487000A2D30522A6E72B6981794269023B03FA9C
:1048800001F11144C9F50074B44228BF3446012235
:1048900098E7B6F5806F1ED30379D0F834E01B1B80
:1048A000720A934228BF13468E454FEA432409D328
:1048B0005A18964506D24FF0000E4FF0FF3280F89E
:1048C00028E04263C06A0268D2F824903A46C8479A
:1048D000002885D19FE7436B8B4213D0C06A0368E1
:1048E0003A461B6A9847002895D04FF4007477E742
:1048F0002B6AB3B12B6181794269023B03FA01F162
:104900001144A9E700224FF0FF3380F828204363C9
:10491000E4E7A868283003F0A1F900287FF460AF2D
:1049200079E72846FFF7E0F800283FF474AF2B69D9
:104930002B62A868DFE7AB78EA6163F07F03AB70B6
:104940004046BDE8F8834046BDE8F8831C18FF1FC9
:104950002DE9F04F0746154606468A4699460FCF81
:104960008DB003AC0FC40FCF0FC43B682A6823601F
:1049700000236A60AB81B9F1000F35D0CDF8049007
:104980004FF00108C8EB0A0189B2490103A8FFF7FB
:1049900021FD58B3002103A8FFF710FC074628B3F8
:1049A0000024E2B23946304600F090FEAB898346DF
:1049B000013428461BB96B68AA6893421AD003F0E9
:1049C0003BFA8146584603F047FB8346484603F0CE
:1049D00043FB83450AD10D2CE3D108F10108019B6B
:1049E0005FFA88F84345CDD2012000E000200DB0E9
:1049F000BDE8F08FBBFA8BF040090DB0BDE8F08F39
:104A00002DE9F04F8DB006461546009199460FCE20
:104A100003AC0FC40FCE0FC43368236005F1150239
:104A200005F120004FF0000812F8011F4FEAC813EB
:104A300043EA580851FA88F882425FFA88F8F3D1BD
:104A40002B686B600026AE81B9F1000F52D049F09F
:104A50004003B24601270193009BD91B89B249014B
:104A600003A8FFF7B7FC002851D0002103A8FFF7E7
:104A7000A5FB00284BD0059A019992F82830B9453A
:104A80004FF00F0443F0010314BFBE468E4682F878
:104A9000283000F1040BC47280F80CA080F80D805F
:104AA000A0F81AA080F800E000240CE00A2C04F121
:104AB0000104E4B294BFABF80000ABF802000D2C87
:104AC0000BF1020B12D0AB891BB96A68AB689A4232
:104AD00014D0284603F0B0F9042CE7D80134E4B22E
:104AE0000D2C2BF8030C0BF1020BECD10137FFB2AC
:104AF000B945B1D201200DB0BDE8F08F16B93046EE
:104B00000126E9E70136F6B24FF6FF70E4E7002030
:104B10000DB0BDE8F08F00BF02462DE9F04752F816
:104B2000153BD0F808E000F12004202102F8011F15
:104B3000A242FBD11A782E2A14BF4FF0010C4FF07D
:104B4000000C03D113F8012F2E2AFBD00EF1FF36F3
:104B50009E420FD91EF8012C2E2A18BFAEF1020278
:104B600003D107E031782E2904D09342164602F192
:104B7000FF32F7D19E454FF000087CD94146C2462E
:104B800007274FF0080915E0222A31D07C2A2FD0C0
:104B9000A2F12A04052C53D9A2F13A04052C3CD8E1
:104BA00002F0C002802A08BF4FF0000C20D1013370
:104BB0009E450DD91A782E2AE6D19E42F0D10133B6
:104BC0009E454FF00A074FF008014FF01009F1D849
:104BD000837D202B3ED0BCF1000F41D01AEA080F94
:104BE00018BF4FF0020880F815800120BDE8F0875B
:104BF000B9420AD84FF0000C5F224C1C4518E1B2B4
:104C00000629AA75D3D80175D1E70A2F25D09E426F
:104C100023D3731E4FF0000CC9E7A2F15B04022CF2
:104C2000BED9A2F121045D2CBAD8B942EDD8A2F1C7
:104C30006104192C07D8203AD2B249EA0808DCE707
:104C40002D2AEED0ACE7A2F14104192C98BF4AEA14
:104C5000090AD2E70020BDE8F087837D202BF9D038
:104C6000027D024401237E24312143759475D17560
:104C70001846BDE8F087C246AAE700BF2DE9F84311
:104C80000E7D0F46044601F116054FF062084FF005
:104C90007E0904F08DF9032E28BF0326331D80B250
:104CA000DBB200F00F02F918013B092ADBB294BF16
:104CB000303237329E424FEA10108A75F1D3BB1959
:104CC000002183F816902046FFF784FB012120463F
:104CD000FFF774FA0B2203460146A0B193F800E0F7
:104CE0002846BEF1000F14D0DB7A1B07EED406F085
:104CF00037FD0028EAD108F1FF3818F0FF08C8D1C5
:104D00004046BDE8F8836078B0FA80F04009BDE81D
:104D1000F8830120BDE8F8832DE9F04F0C7814F0FA
:104D2000700F8BB001D004781CB100200BB0BDE82F
:104D3000F08F1469974E557D0C34A6FB0464C4F3C0
:104D400087040294AC073ED14FF001080E460021C3
:104D50000F4615460790304605930392BA46FFF773
:104D600039FB3C460697B946049705F1160B756961
:104D700000213046C5F34F15FFF720FA002862D016
:104D80000378E52B32D08BB3444538BF00242E2B5B
:104D900029D0C27A0F2A36D002F0080202F0FF03AF
:104DA0000ABBB9F1000F40F0D6800B22594606F03D
:104DB000D7FC0028DBD1039B5B7DD80740F1DF8067
:104DC00001230493D3E7029C04F101085FFA88F8F9
:104DD000BCE70AF1FF3A5FFA8AFA534503D1437BF5
:104DE000069A9A4220D04FF00009C0E7002C08BF75
:104DF0002F4644453CBF0134E4B243B3E52BC6D152
:104E00004FF00009B3E7B9F1000FE2D1029A03F0C5
:104E10001F0A5245ABD15B0602D4DDF808A0A6E715
:104E2000437B069391469246BAF1010F9FD1691CCC
:104E30004B4689B2039A3046FFF78AFD002808BF27
:104E40004FF0000993E77378002B7FF46EAF059A5B
:104E500013469A057FF569AF03F00303013B012B6D
:104E60003FF663AF002C08BF2F46444503D318E03C
:104E7000DCB2A04515D900213046FFF79FF9631C2D
:104E80000028F5D1737823B14FE7B3681B791C4430
:104E9000E4B2A04505D93046FEF740FE0028F4D123
:104EA00043E7049B33B103993046FFF7E7FE002840
:104EB0003FF43BAF08F1FF385FFA88F907EB0905CB
:104EC000ADB229464B46039A3046FFF799FD0028BC
:104ED0003FF42BAF69013046FFF77CFA00283FF41E
:104EE00024AF00213046FFF769F9044600283FF45B
:104EF0001CAF2022002106F065FC039F0B2207F166
:104F00001601204603F056FE234A7B7D176803F006
:104F100018032373002F36D00DF123020DF1260163
:104F200009A8B847BDF82410BDF826209DF8233005
:104F30002182E2816373B26892F8283043F0010362
:104F400082F82830CDF80090059B07982A46314614
:104F5000FFF798FAEAE6BAF1010F7FF4E6AE441ED5
:104F60000A3014F8011FDA0142EA530351FA83F3BD
:104F7000A042DBB2F5D1069A9A427FF4D6AE059BE9
:104F80001905DFD5D1E645F22143238223836382CD
:104F9000D1E700BF4FECC44E1C18FF1FF0B51546FB
:104FA0000A78202A83B008461E4603D110F8013F34
:104FB000202BFBD02860037893B32F2B30D0002414
:104FC000204F1BE07F2B04F101040DD81F2B24D9A7
:104FD000D9B2A1F12202D2B21D2A1AD901F0BF0121
:104FE0003C291AD05C2B18D02E2B03D0202B1CBFB1
:104FF0002C61A86003789BB12F2B11D001AA011D51
:1050000002F0E4FF48B1019BB3F5803FDAD30234EC
:10501000EAE727FA02F2D207E0D5002003B0F0BD9C
:105020002B69013BFE2BF8D8024610F8013B202BE0
:10503000FAD02F2BF8D032602846FFF76DFD03B071
:10504000F0BD00BF012100312DE9F04182788AB026
:10505000002392078DF804308DF805308DF8063066
:1050600020D5016A054611BB01212846FEF7A2FDA5
:10507000C0B1411E00F10A070024E20111F8016FDE
:1050800042EA540356FA83F38F42DCB2F5D1E527A6
:105090000770AE68002306F128002B70AB7002F099
:1050A000DDFD50B9002630460AB0BDE8F0818068C9
:1050B00000F0DEFC0028D7D1F4E706F50E7002F010
:1050C000CDFD0028EED030680368DB6998470646BE
:1050D0000028E7D0EB78002BE5D001A82946FEF7A1
:1050E00065FF0028DED0EB78002BDBD04FF0010805
:1050F00020E001A8FFF762F808F101010028D1D0F3
:10510000C37A0F2BCED1027802F01F0398455FFAC5
:1051100081F8C7D1437BA342C4D10770A96891F835
:10512000283043F0010381F8283053060ED4EB7881
:105130004345B7D3A988C8EB010189B2490101A849
:10514000FFF748F900210028D3D1ABE7AC6804F1A0
:10515000280002F083FD0028A4D004F50E7002F0B0
:105160007DFD00289ED020680368DB6998470028F1
:1051700098D098E7486810B50C4668B10B894A8901
:1051800001339BB29A420B8106D8036803495B68DE
:105190000122984700232381206810BD88BF0000AA
:1051A000F0B5044687B00F461546406A4FF40072CA
:1051B000002106F007FB236A33B11A6822495668BA
:1051C00018460C22B047236AE069E1680668049338
:1051D00003AB626A00934FF0000E6B090392ADF8C7
:1051E0001630B66AADF814E001316A1E174BB047AD
:1051F000E0B1206A20B1036815495B680222984734
:10520000636A102F4FF0F8021A7014BF0C200420AC
:105210000123FF21626AD15401339842FAD1E06937
:10522000626A0368E1681B6A984710B9002007B0FA
:10523000F0BDE069E568A1680368626A1B6A2944F9
:10524000984707B0F0BD00BF1CC0000075510000BA
:1052500040C0000038B5446A4FF400720021054692
:10526000204606F0AFFA234676219022EB206170AB
:10527000207004F10A0103F8022F202203F8012F05
:105280008B42FBD14FF40073A4F80B3095F82B3010
:105290006373F82202212B8D217462752A69E26101
:1052A000AA69E3814AF655232262A4F8FE3138BD8B
:1052B00070B504464FF400720021406A06F082FA8D
:1052C000656A2269216805F2BF1002F0DDFDA3695D
:1052D000226921681A4405F2C310013A02F0D4FD94
:1052E00094F82A3085F8C231E0692369C5F8C631DF
:1052F000A2690368C5F8CA214AF65522A5F8FE211D
:105300001B6A626A0021BDE870401847F8B5D0F802
:1053100014C090F82BE0456AACF58071B1FBFEF14A
:1053200001F201131B0A4FF48072044642605800D8
:1053300000F1A1069642A36088BF4FF4C07301D864
:1053400072E03B46C3EB0C01B1FBFEF101F201122E
:10535000120A500000F1A1069E4203F18007F0D826
:105360006360A2609B1BA1F6F57203F18006B2F5A3
:10537000704F266108D3206A20B103682B495B680F
:10538000132298470020F8BD213001FB0E00813325
:10539000B0F5803FE3604FF0010234BF04230623E1
:1053A000A061228584F82A302046FFF781FF00287B
:1053B000E8D02046FFF74EFF4FF40072A0681C4B68
:1053C000A5F811208021292285F8241085F82620AF
:1053D000C5F82730E88205F12A0305F135012022BE
:1053E00003F8012F8B42FBD1412054213122362377
:1053F000462685F8366085F8370085F8381085F838
:10540000392085F83A30E069626A036821691B6ACD
:1054100098470028B6D06268E3682046D21A102167
:10542000BDE8F840FFF7BCBE13469BE77CC0000018
:1054300087D61200F8B5D0F814C090F82BE04FF4DE
:1054400000530361ACF58042B2FBFEF202F181032E
:10545000DB095C00054604F500504FF4804109303B
:105460008842AB606E6A696014D94FF4C04100E0B5
:105470003946C1EB0C02B2FBFEF202F18103DB09FB
:105480005C0004F500500930884201F50057EFD860
:105490006960AB604FF6F4739A4208D8286A20B16D
:1054A000036850495B68132298470020F8BDA1F5B6
:1054B00000531C1B4C4B02FB0E129A42A4B294BF29
:1054C0000B230C232C85A2F5005104F50054EC604D
:1054D000A96185F82A302846FFF7EAFE0028E4D0C3
:1054E0002846FFF7B7FEAA68404B72628021292246
:1054F00002270124062086F8401086F84220C6F8CC
:105500004330F7623486708606F1460306F1510196
:10551000202203F8012F9942FBD14120542133224C
:105520003223462486F8524086F8530086F85410F9
:1055300086F8552086F85630E8696A6A0368296952
:105540001B6A98470028B0D0E869296903686A6A2D
:105550001B6A063198470028A7D04FF4007200213B
:10556000686A06F02FF9224BE869C6F8FC31296910
:1055700003686A6A1B6A02319847002895D0E86977
:10558000296903686A6A1B6A0831984700288CD029
:10559000184BE869184A33604FF0FF33C6F8E4212E
:1055A000C6F8E831C6F8EC31296903686A6A1B6AF3
:1055B0000131984700283FF478AFE869296903680A
:1055C0006A6A1B6A0731984700283FF46EAFAA68E1
:1055D00095F82B30284603EB42022021BDE8F84025
:1055E000FFF7DEBD7CC000000004FB0087D6120080
:1055F000000055AA525261417272416138B50446A9
:105600000868E1616262236283690846984700F294
:10561000FF73DB0A062B6061236008D8206A20B183
:10562000036827495B6814229847002038BD102B77
:1056300013D8022384F82B30B0F5800F204614D203
:10564000FFF764FE0546206AADB108B303681D4943
:105650005B680D229847012038BD202B14D9402BC0
:1056600018D8082384F82B30E6E7FFF7E3FE054659
:10567000206A002DE9D10028D7D0036812495B6861
:105680000F229847284638BD042384F82B30D3E7EF
:10569000012038BD802B06D9B3F5806F07D82023B1
:1056A00084F82B30C8E7102384F82B30C4E7B3F517
:1056B000004F94BF4023802384F82B30BCE700BF09
:1056C00090C00000A8C00000B8C00000042A0CD997
:1056D0000A2A06D90C2A9ABF01EB4202D088002080
:1056E000704701EB42029088704701EB4202B2F82A
:1056F00001007047F0B5037883B00D465BB113F03D
:1057000060040CD0012A06D92F22002301200A7040
:105710004B7003B0F0BD0020287003B0F0BD2146EF
:105720000192FEF747FA0028F5D0214626460346A7
:105730004FF0080C019A0FE0077B1CEA070F01D01D
:105740002034E4B2771CBA42B64611D005F80E40B8
:10575000FEB201310C290BD008291C780DD0A4F120
:105760004107192F03F10103E6D9202CF1D0E9E715
:1057700000233046AB5503B0F0BD202CF8D04FF0DD
:10578000100C2E24DEE700BF2DE9F04F8BB003781C
:105790004FF0000B8DF804B08DF805B08DF806B011
:1057A0008946002B61D0C3780446002B63D001A842
:1057B00021461746FEF7FAFB002856D0E07800286D
:1057C0006FD0013F4F444D464FF00108A188C8EB10
:1057D000010189B2490101A8FEF7FCFD002844D06F
:1057E000002101A8FEF7EAFC064600283DD0C37A56
:1057F0000F2B3AD1037803F01F03984535D14FF0B2
:10580000000A1CE000F510539BB2B3F5806F2CD258
:10581000254B4FEA8B2BC0F309000BEA0303184317
:1058200000F580303A46294602F07CFBC0B10AF10F
:10583000010ABAF10D0F05464FF0000B29D05FFAAF
:105840008AF231462046FFF741FFBBF1000FD9D164
:1058500000F520539BB2B3F5006F11D30028E1D1BE
:10586000C9EB050000232B7002E0002089F800003E
:105870000BB0BDE8F08FFFF73DFF0BB0BDE8F08F38
:10588000B3F5806FF1D20AF1010ABAF10D0F834628
:10589000D5D108F10108E3785FFA88F8434595D23D
:1058A000DEE74D46DEE700BF00FC0F00FFF76CBFF0
:1058B00030B41468B4F5807F254628BF4FF4807556
:1058C00001EB4500814207D231F8023B13B953681E
:1058D000013353608842F7D8641B146030BC7047B2
:1058E00030B41468802C254628BF802501EB850044
:1058F000814207D251F8043B13B953680133536016
:105900008842F7D8641B146030BC7047012931D934
:10591000C36999422ED870B5C379202B1646054627
:105920000C4618D0102B13D18369C1F307211944F9
:10593000022200F50E7002F061F948B1E1B230F8D0
:105940001130EA6993429ABF01203360002070BD94
:105950004FF0FF3070BD8169022201EBD41100F5D8
:105960000E7002F04BF90028F2D004F07F0150F8DD
:105970002130E6E74FF0FF30704700BF01291DD905
:1059800038B5C369994206D8C379202B15460C4611
:1059900016D0102B01D0002038BD8369C1F3072138
:1059A000194400F50E70032202F028F9034600287E
:1059B000F1D0E1B2012023F8115038BD002070472A
:1059C0008169032200F50E7001EBD41102F016F983
:1059D00003460028DFD004F07F01012043F8215066
:1059E00038BD00BF2DE9F041C4688C4282B0054645
:1059F0000F4690463ABF0C4600260126EB6901345B
:105A00009C4201AA2846214609D966BBEC680134AC
:105A10009C424FF0010601AA28462146F5D8A7422C
:105A200021D0FFF773FF00281DDBE7D0019B002B7F
:105A3000E4D106B1EC606FF0704221462846FFF7D2
:105A40009DFF064678B13FB96B6A002B01DB013B35
:105A50006B62C8F8004007E0394622462846FFF747
:105A60008DFF0028F0D10026304602B0BDE8F0815D
:105A700070B5054682B00C460FE0FFF77FFFB8B166
:105A80006B6A002BA4BF01336B62EB689C423CBF86
:105A900004F1FF34EC60019C5EB101AA2146284666
:105AA000FFF734FF061E21464FF000022846E4DAD5
:105AB000002002B070BD00BF436A002B01DB184616
:105AC000704770B5C26990F83812056984B0044611
:105AD00001320020CB07029203901BD4E3794FF0F0
